{
  "contractName": "Auction",
  "abi": [
    {
      "inputs": [],
      "stateMutability": "nonpayable",
      "type": "constructor"
    },
    {
      "anonymous": false,
      "inputs": [
        {
          "indexed": true,
          "internalType": "address",
          "name": "account",
          "type": "address"
        },
        {
          "indexed": true,
          "internalType": "address",
          "name": "operator",
          "type": "address"
        },
        {
          "indexed": false,
          "internalType": "bool",
          "name": "approved",
          "type": "bool"
        }
      ],
      "name": "ApprovalForAll",
      "type": "event"
    },
    {
      "anonymous": false,
      "inputs": [
        {
          "indexed": false,
          "internalType": "address",
          "name": "",
          "type": "address"
        }
      ],
      "name": "AuctionCreated",
      "type": "event"
    },
    {
      "anonymous": false,
      "inputs": [
        {
          "indexed": false,
          "internalType": "address[]",
          "name": "",
          "type": "address[]"
        }
      ],
      "name": "Bidding",
      "type": "event"
    },
    {
      "anonymous": false,
      "inputs": [
        {
          "indexed": true,
          "internalType": "address",
          "name": "operator",
          "type": "address"
        },
        {
          "indexed": true,
          "internalType": "address",
          "name": "from",
          "type": "address"
        },
        {
          "indexed": true,
          "internalType": "address",
          "name": "to",
          "type": "address"
        },
        {
          "indexed": false,
          "internalType": "uint256[]",
          "name": "ids",
          "type": "uint256[]"
        },
        {
          "indexed": false,
          "internalType": "uint256[]",
          "name": "values",
          "type": "uint256[]"
        }
      ],
      "name": "TransferBatch",
      "type": "event"
    },
    {
      "anonymous": false,
      "inputs": [
        {
          "indexed": true,
          "internalType": "address",
          "name": "operator",
          "type": "address"
        },
        {
          "indexed": true,
          "internalType": "address",
          "name": "from",
          "type": "address"
        },
        {
          "indexed": true,
          "internalType": "address",
          "name": "to",
          "type": "address"
        },
        {
          "indexed": false,
          "internalType": "uint256",
          "name": "id",
          "type": "uint256"
        },
        {
          "indexed": false,
          "internalType": "uint256",
          "name": "value",
          "type": "uint256"
        }
      ],
      "name": "TransferSingle",
      "type": "event"
    },
    {
      "anonymous": false,
      "inputs": [
        {
          "indexed": false,
          "internalType": "string",
          "name": "value",
          "type": "string"
        },
        {
          "indexed": true,
          "internalType": "uint256",
          "name": "id",
          "type": "uint256"
        }
      ],
      "name": "URI",
      "type": "event"
    },
    {
      "anonymous": false,
      "inputs": [
        {
          "indexed": false,
          "internalType": "address",
          "name": "",
          "type": "address"
        },
        {
          "indexed": false,
          "internalType": "uint256",
          "name": "",
          "type": "uint256"
        },
        {
          "indexed": false,
          "internalType": "uint256",
          "name": "",
          "type": "uint256"
        }
      ],
      "name": "minted",
      "type": "event"
    },
    {
      "inputs": [
        {
          "internalType": "address",
          "name": "account",
          "type": "address"
        },
        {
          "internalType": "uint256",
          "name": "id",
          "type": "uint256"
        }
      ],
      "name": "balanceOf",
      "outputs": [
        {
          "internalType": "uint256",
          "name": "",
          "type": "uint256"
        }
      ],
      "stateMutability": "view",
      "type": "function"
    },
    {
      "inputs": [
        {
          "internalType": "address[]",
          "name": "accounts",
          "type": "address[]"
        },
        {
          "internalType": "uint256[]",
          "name": "ids",
          "type": "uint256[]"
        }
      ],
      "name": "balanceOfBatch",
      "outputs": [
        {
          "internalType": "uint256[]",
          "name": "",
          "type": "uint256[]"
        }
      ],
      "stateMutability": "view",
      "type": "function"
    },
    {
      "inputs": [
        {
          "internalType": "address",
          "name": "account",
          "type": "address"
        },
        {
          "internalType": "address",
          "name": "operator",
          "type": "address"
        }
      ],
      "name": "isApprovedForAll",
      "outputs": [
        {
          "internalType": "bool",
          "name": "",
          "type": "bool"
        }
      ],
      "stateMutability": "view",
      "type": "function"
    },
    {
      "inputs": [
        {
          "internalType": "uint256",
          "name": "amt",
          "type": "uint256"
        }
      ],
      "name": "mintNFT",
      "outputs": [],
      "stateMutability": "nonpayable",
      "type": "function"
    },
    {
      "inputs": [
        {
          "internalType": "address",
          "name": "from",
          "type": "address"
        },
        {
          "internalType": "address",
          "name": "to",
          "type": "address"
        },
        {
          "internalType": "uint256[]",
          "name": "ids",
          "type": "uint256[]"
        },
        {
          "internalType": "uint256[]",
          "name": "amounts",
          "type": "uint256[]"
        },
        {
          "internalType": "bytes",
          "name": "data",
          "type": "bytes"
        }
      ],
      "name": "safeBatchTransferFrom",
      "outputs": [],
      "stateMutability": "nonpayable",
      "type": "function"
    },
    {
      "inputs": [
        {
          "internalType": "address",
          "name": "from",
          "type": "address"
        },
        {
          "internalType": "address",
          "name": "to",
          "type": "address"
        },
        {
          "internalType": "uint256",
          "name": "id",
          "type": "uint256"
        },
        {
          "internalType": "uint256",
          "name": "amount",
          "type": "uint256"
        },
        {
          "internalType": "bytes",
          "name": "data",
          "type": "bytes"
        }
      ],
      "name": "safeTransferFrom",
      "outputs": [],
      "stateMutability": "nonpayable",
      "type": "function"
    },
    {
      "inputs": [
        {
          "internalType": "address",
          "name": "operator",
          "type": "address"
        },
        {
          "internalType": "bool",
          "name": "approved",
          "type": "bool"
        }
      ],
      "name": "setApprovalForAll",
      "outputs": [],
      "stateMutability": "nonpayable",
      "type": "function"
    },
    {
      "inputs": [
        {
          "internalType": "bytes4",
          "name": "interfaceId",
          "type": "bytes4"
        }
      ],
      "name": "supportsInterface",
      "outputs": [
        {
          "internalType": "bool",
          "name": "",
          "type": "bool"
        }
      ],
      "stateMutability": "view",
      "type": "function"
    },
    {
      "inputs": [
        {
          "internalType": "uint256",
          "name": "",
          "type": "uint256"
        }
      ],
      "name": "uri",
      "outputs": [
        {
          "internalType": "string",
          "name": "",
          "type": "string"
        }
      ],
      "stateMutability": "view",
      "type": "function"
    },
    {
      "inputs": [
        {
          "internalType": "uint256",
          "name": "start",
          "type": "uint256"
        },
        {
          "internalType": "uint256",
          "name": "end",
          "type": "uint256"
        }
      ],
      "name": "createAuction",
      "outputs": [],
      "stateMutability": "nonpayable",
      "type": "function"
    },
    {
      "inputs": [
        {
          "internalType": "uint256",
          "name": "id",
          "type": "uint256"
        }
      ],
      "name": "listForAuction",
      "outputs": [],
      "stateMutability": "payable",
      "type": "function"
    },
    {
      "inputs": [],
      "name": "cancelAuction",
      "outputs": [],
      "stateMutability": "nonpayable",
      "type": "function"
    },
    {
      "inputs": [
        {
          "internalType": "uint256",
          "name": "id",
          "type": "uint256"
        }
      ],
      "name": "Bid",
      "outputs": [],
      "stateMutability": "payable",
      "type": "function"
    }
  ],
  "bytecode": "0x6080604052600160035560016005556000600f60006101000a81548160ff0219169083151502179055503480156200003657600080fd5b506040518060800160405280604d815260200162003356604d91396200006281620000aa60201b60201c565b5033600760006101000a81548173ffffffffffffffffffffffffffffffffffffffff021916908373ffffffffffffffffffffffffffffffffffffffff160217905550620001db565b8060029080519060200190620000c2929190620000c6565b5050565b828054620000d49062000176565b90600052602060002090601f016020900481019282620000f8576000855562000144565b82601f106200011357805160ff191683800117855562000144565b8280016001018555821562000144579182015b828111156200014357825182559160200191906001019062000126565b5b50905062000153919062000157565b5090565b5b808211156200017257600081600090555060010162000158565b5090565b600060028204905060018216806200018f57607f821691505b60208210811415620001a657620001a5620001ac565b5b50919050565b7f4e487b7100000000000000000000000000000000000000000000000000000000600052602260045260246000fd5b61316b80620001eb6000396000f3fe6080604052600436106100c15760003560e01c80634e1273f41161007f5780639264274411610059578063926427441461025b578063a22cb46514610284578063e985e9c5146102ad578063f242432a146102ea576100c1565b80634e1273f4146101eb5780637a183e84146102285780638fa8b79014610244576100c1565b8062fdd58e146100c65780630121683f1461010357806301ffc9a71461012c5780630e89341c1461016957806326ad31b7146101a65780632eb2c2d6146101c2575b600080fd5b3480156100d257600080fd5b506100ed60048036038101906100e891906120bf565b610313565b6040516100fa919061287b565b60405180910390f35b34801561010f57600080fd5b5061012a600480360381019061012591906121e2565b6103dc565b005b34801561013857600080fd5b50610153600480360381019061014e9190612167565b6104ce565b604051610160919061267e565b60405180910390f35b34801561017557600080fd5b50610190600480360381019061018b91906121b9565b6105b0565b60405161019d9190612699565b60405180910390f35b6101c060048036038101906101bb91906121b9565b610644565b005b3480156101ce57600080fd5b506101e960048036038101906101e49190611f35565b610718565b005b3480156101f757600080fd5b50610212600480360381019061020d91906120fb565b6107b9565b60405161021f9190612625565b60405180910390f35b610242600480360381019061023d91906121b9565b61096a565b005b34801561025057600080fd5b50610259610c4a565b005b34801561026757600080fd5b50610282600480360381019061027d91906121b9565b610cce565b005b34801561029057600080fd5b506102ab60048036038101906102a69190612083565b610d99565b005b3480156102b957600080fd5b506102d460048036038101906102cf9190611ef9565b610f1a565b6040516102e1919061267e565b60405180910390f35b3480156102f657600080fd5b50610311600480360381019061030c9190611ff4565b610fae565b005b60008073ffffffffffffffffffffffffffffffffffffffff168373ffffffffffffffffffffffffffffffffffffffff161415610384576040517f08c379a000000000000000000000000000000000000000000000000000000000815260040161037b906126fb565b60405180910390fd5b60008083815260200190815260200160002060008473ffffffffffffffffffffffffffffffffffffffff1673ffffffffffffffffffffffffffffffffffffffff16815260200190815260200160002054905092915050565b81431080156103eb5750808211155b6103f457600080fd5b600760009054906101000a900473ffffffffffffffffffffffffffffffffffffffff1673ffffffffffffffffffffffffffffffffffffffff163373ffffffffffffffffffffffffffffffffffffffff161461044e57600080fd5b81600881905550806009819055503060066000600554815260200190815260200160002060006101000a81548173ffffffffffffffffffffffffffffffffffffffff021916908373ffffffffffffffffffffffffffffffffffffffff1602179055506001600560008282546104c391906129de565b925050819055505050565b60007fd9b67a26000000000000000000000000000000000000000000000000000000007bffffffffffffffffffffffffffffffffffffffffffffffffffffffff1916827bffffffffffffffffffffffffffffffffffffffffffffffffffffffff1916148061059957507f0e89341c000000000000000000000000000000000000000000000000000000007bffffffffffffffffffffffffffffffffffffffffffffffffffffffff1916827bffffffffffffffffffffffffffffffffffffffffffffffffffffffff1916145b806105a957506105a88261104f565b5b9050919050565b6060600280546105bf90612aea565b80601f01602080910402602001604051908101604052809291908181526020018280546105eb90612aea565b80156106385780601f1061060d57610100808354040283529160200191610638565b820191906000526020600020905b81548152906001019060200180831161061b57829003601f168201915b50505050509050919050565b6008544310610688576040517f08c379a000000000000000000000000000000000000000000000000000000000815260040161067f906127db565b60405180910390fd5b600061069433836110b9565b116106d4576040517f08c379a00000000000000000000000000000000000000000000000000000000081526004016106cb906127bb565b60405180910390fd5b600a81908060018154018082558091505060019003906000526020600020016000909190919091505534600d60008381526020019081526020016000208190555050565b6107206110cd565b73ffffffffffffffffffffffffffffffffffffffff168573ffffffffffffffffffffffffffffffffffffffff1614806107665750610765856107606110cd565b610f1a565b5b6107a5576040517f08c379a000000000000000000000000000000000000000000000000000000000815260040161079c9061277b565b60405180910390fd5b6107b285858585856110d5565b5050505050565b606081518351146107ff576040517f08c379a00000000000000000000000000000000000000000000000000000000081526004016107f69061281b565b60405180910390fd5b6000835167ffffffffffffffff811115610842577f4e487b7100000000000000000000000000000000000000000000000000000000600052604160045260246000fd5b6040519080825280602002602001820160405280156108705781602001602082028036833780820191505090505b50905060005b845181101561095f576109098582815181106108bb577f4e487b7100000000000000000000000000000000000000000000000000000000600052603260045260246000fd5b60200260200101518583815181106108fc577f4e487b7100000000000000000000000000000000000000000000000000000000600052603260045260246000fd5b6020026020010151610313565b828281518110610942577f4e487b7100000000000000000000000000000000000000000000000000000000600052603260045260246000fd5b6020026020010181815250508061095890612b4d565b9050610876565b508091505092915050565b60006004600083815260200190815260200160002060009054906101000a900473ffffffffffffffffffffffffffffffffffffffff1690503373ffffffffffffffffffffffffffffffffffffffff168173ffffffffffffffffffffffffffffffffffffffff161415610a11576040517f08c379a0000000000000000000000000000000000000000000000000000000008152600401610a089061271b565b60405180910390fd5b600d6000838152602001908152602001600020543411610a3057600080fd5b34600d60008481526020019081526020016000208190555033600e600084815260200190815260200160002060006101000a81548173ffffffffffffffffffffffffffffffffffffffff021916908373ffffffffffffffffffffffffffffffffffffffff1602179055506000600b600084815260200190815260200160002090506000805b8280549050811015610b74573373ffffffffffffffffffffffffffffffffffffffff16838281548110610b11577f4e487b7100000000000000000000000000000000000000000000000000000000600052603260045260246000fd5b9060005260206000200160009054906101000a900473ffffffffffffffffffffffffffffffffffffffff1673ffffffffffffffffffffffffffffffffffffffff161415610b615760019150610b74565b8080610b6c90612b4d565b915050610ab5565b5080610bef57600b6000858152602001908152602001600020339080600181540180825580915050600190039060005260206000200160009091909190916101000a81548173ffffffffffffffffffffffffffffffffffffffff021916908373ffffffffffffffffffffffffffffffffffffffff1602179055505b34600c600086815260200190815260200160002060003373ffffffffffffffffffffffffffffffffffffffff1673ffffffffffffffffffffffffffffffffffffffff1681526020019081526020016000208190555050505050565b600760009054906101000a900473ffffffffffffffffffffffffffffffffffffffff1673ffffffffffffffffffffffffffffffffffffffff163373ffffffffffffffffffffffffffffffffffffffff16148015610ca8575060085443105b610cb157600080fd5b6001600f60006101000a81548160ff021916908315150217905550565b610ceb336003548360405180602001604052806000815250611435565b3360046000600354815260200190815260200160002060006101000a81548173ffffffffffffffffffffffffffffffffffffffff021916908373ffffffffffffffffffffffffffffffffffffffff1602179055507fead94eb56e46b064207039af2a77f19bbfdcdf7cb4481d53d8f8c75dfcb59fc43360035483604051610d74939291906125ee565b60405180910390a1600160036000828254610d8f91906129de565b9250508190555050565b8173ffffffffffffffffffffffffffffffffffffffff16610db86110cd565b73ffffffffffffffffffffffffffffffffffffffff161415610e0f576040517f08c379a0000000000000000000000000000000000000000000000000000000008152600401610e06906127fb565b60405180910390fd5b8060016000610e1c6110cd565b73ffffffffffffffffffffffffffffffffffffffff1673ffffffffffffffffffffffffffffffffffffffff16815260200190815260200160002060008473ffffffffffffffffffffffffffffffffffffffff1673ffffffffffffffffffffffffffffffffffffffff16815260200190815260200160002060006101000a81548160ff0219169083151502179055508173ffffffffffffffffffffffffffffffffffffffff16610ec96110cd565b73ffffffffffffffffffffffffffffffffffffffff167f17307eab39ab6107e8899845ad3d59bd9653f200f220920489ca2b5937696c3183604051610f0e919061267e565b60405180910390a35050565b6000600160008473ffffffffffffffffffffffffffffffffffffffff1673ffffffffffffffffffffffffffffffffffffffff16815260200190815260200160002060008373ffffffffffffffffffffffffffffffffffffffff1673ffffffffffffffffffffffffffffffffffffffff16815260200190815260200160002060009054906101000a900460ff16905092915050565b610fb66110cd565b73ffffffffffffffffffffffffffffffffffffffff168573ffffffffffffffffffffffffffffffffffffffff161480610ffc5750610ffb85610ff66110cd565b610f1a565b5b61103b576040517f08c379a00000000000000000000000000000000000000000000000000000000081526004016110329061273b565b60405180910390fd5b61104885858585856115cb565b5050505050565b60007f01ffc9a7000000000000000000000000000000000000000000000000000000007bffffffffffffffffffffffffffffffffffffffffffffffffffffffff1916827bffffffffffffffffffffffffffffffffffffffffffffffffffffffff1916149050919050565b60006110c58383610313565b905092915050565b600033905090565b8151835114611119576040517f08c379a00000000000000000000000000000000000000000000000000000000081526004016111109061283b565b60405180910390fd5b600073ffffffffffffffffffffffffffffffffffffffff168473ffffffffffffffffffffffffffffffffffffffff161415611189576040517f08c379a00000000000000000000000000000000000000000000000000000000081526004016111809061275b565b60405180910390fd5b60006111936110cd565b90506111a381878787878761184d565b60005b84518110156113a05760008582815181106111ea577f4e487b7100000000000000000000000000000000000000000000000000000000600052603260045260246000fd5b60200260200101519050600085838151811061122f577f4e487b7100000000000000000000000000000000000000000000000000000000600052603260045260246000fd5b60200260200101519050600080600084815260200190815260200160002060008b73ffffffffffffffffffffffffffffffffffffffff1673ffffffffffffffffffffffffffffffffffffffff168152602001908152602001600020549050818110156112d0576040517f08c379a00000000000000000000000000000000000000000000000000000000081526004016112c79061279b565b60405180910390fd5b81810360008085815260200190815260200160002060008c73ffffffffffffffffffffffffffffffffffffffff1673ffffffffffffffffffffffffffffffffffffffff168152602001908152602001600020819055508160008085815260200190815260200160002060008b73ffffffffffffffffffffffffffffffffffffffff1673ffffffffffffffffffffffffffffffffffffffff168152602001908152602001600020600082825461138591906129de565b925050819055505050508061139990612b4d565b90506111a6565b508473ffffffffffffffffffffffffffffffffffffffff168673ffffffffffffffffffffffffffffffffffffffff168273ffffffffffffffffffffffffffffffffffffffff167f4a39dc06d4c0dbc64b70af90fd698a233a518aa5d07e595d983b8c0526c8f7fb8787604051611417929190612647565b60405180910390a461142d818787878787611855565b505050505050565b600073ffffffffffffffffffffffffffffffffffffffff168473ffffffffffffffffffffffffffffffffffffffff1614156114a5576040517f08c379a000000000000000000000000000000000000000000000000000000000815260040161149c9061285b565b60405180910390fd5b60006114af6110cd565b90506114d0816000876114c188611a3c565b6114ca88611a3c565b8761184d565b8260008086815260200190815260200160002060008773ffffffffffffffffffffffffffffffffffffffff1673ffffffffffffffffffffffffffffffffffffffff168152602001908152602001600020600082825461152f91906129de565b925050819055508473ffffffffffffffffffffffffffffffffffffffff16600073ffffffffffffffffffffffffffffffffffffffff168273ffffffffffffffffffffffffffffffffffffffff167fc3d58168c5ae7397731d063d5bbf3d657854427343f4c083240f7aacaa2d0f6287876040516115ad929190612896565b60405180910390a46115c481600087878787611b02565b5050505050565b600073ffffffffffffffffffffffffffffffffffffffff168473ffffffffffffffffffffffffffffffffffffffff16141561163b576040517f08c379a00000000000000000000000000000000000000000000000000000000081526004016116329061275b565b60405180910390fd5b60006116456110cd565b905061166581878761165688611a3c565b61165f88611a3c565b8761184d565b600080600086815260200190815260200160002060008873ffffffffffffffffffffffffffffffffffffffff1673ffffffffffffffffffffffffffffffffffffffff168152602001908152602001600020549050838110156116fc576040517f08c379a00000000000000000000000000000000000000000000000000000000081526004016116f39061279b565b60405180910390fd5b83810360008087815260200190815260200160002060008973ffffffffffffffffffffffffffffffffffffffff1673ffffffffffffffffffffffffffffffffffffffff168152602001908152602001600020819055508360008087815260200190815260200160002060008873ffffffffffffffffffffffffffffffffffffffff1673ffffffffffffffffffffffffffffffffffffffff16815260200190815260200160002060008282546117b191906129de565b925050819055508573ffffffffffffffffffffffffffffffffffffffff168773ffffffffffffffffffffffffffffffffffffffff168373ffffffffffffffffffffffffffffffffffffffff167fc3d58168c5ae7397731d063d5bbf3d657854427343f4c083240f7aacaa2d0f62888860405161182e929190612896565b60405180910390a4611844828888888888611b02565b50505050505050565b505050505050565b6118748473ffffffffffffffffffffffffffffffffffffffff16611ce9565b15611a34578373ffffffffffffffffffffffffffffffffffffffff1663bc197c8187878686866040518663ffffffff1660e01b81526004016118ba95949392919061252c565b602060405180830381600087803b1580156118d457600080fd5b505af192505050801561190557506040513d601f19601f820116820180604052508101906119029190612190565b60015b6119ab57611911612c23565b806308c379a0141561196e5750611926613043565b806119315750611970565b806040517f08c379a00000000000000000000000000000000000000000000000000000000081526004016119659190612699565b60405180910390fd5b505b6040517f08c379a00000000000000000000000000000000000000000000000000000000081526004016119a2906126bb565b60405180910390fd5b63bc197c8160e01b7bffffffffffffffffffffffffffffffffffffffffffffffffffffffff1916817bffffffffffffffffffffffffffffffffffffffffffffffffffffffff191614611a32576040517f08c379a0000000000000000000000000000000000000000000000000000000008152600401611a29906126db565b60405180910390fd5b505b505050505050565b60606000600167ffffffffffffffff811115611a81577f4e487b7100000000000000000000000000000000000000000000000000000000600052604160045260246000fd5b604051908082528060200260200182016040528015611aaf5781602001602082028036833780820191505090505b5090508281600081518110611aed577f4e487b7100000000000000000000000000000000000000000000000000000000600052603260045260246000fd5b60200260200101818152505080915050919050565b611b218473ffffffffffffffffffffffffffffffffffffffff16611ce9565b15611ce1578373ffffffffffffffffffffffffffffffffffffffff1663f23a6e6187878686866040518663ffffffff1660e01b8152600401611b67959493929190612594565b602060405180830381600087803b158015611b8157600080fd5b505af1925050508015611bb257506040513d601f19601f82011682018060405250810190611baf9190612190565b60015b611c5857611bbe612c23565b806308c379a01415611c1b5750611bd3613043565b80611bde5750611c1d565b806040517f08c379a0000000000000000000000000000000000000000000000000000000008152600401611c129190612699565b60405180910390fd5b505b6040517f08c379a0000000000000000000000000000000000000000000000000000000008152600401611c4f906126bb565b60405180910390fd5b63f23a6e6160e01b7bffffffffffffffffffffffffffffffffffffffffffffffffffffffff1916817bffffffffffffffffffffffffffffffffffffffffffffffffffffffff191614611cdf576040517f08c379a0000000000000000000000000000000000000000000000000000000008152600401611cd6906126db565b60405180910390fd5b505b505050505050565b600080823b905060008111915050919050565b6000611d0f611d0a846128e4565b6128bf565b90508083825260208201905082856020860282011115611d2e57600080fd5b60005b85811015611d5e5781611d448882611e12565b845260208401935060208301925050600181019050611d31565b5050509392505050565b6000611d7b611d7684612910565b6128bf565b90508083825260208201905082856020860282011115611d9a57600080fd5b60005b85811015611dca5781611db08882611ee4565b845260208401935060208301925050600181019050611d9d565b5050509392505050565b6000611de7611de28461293c565b6128bf565b905082815260208101848484011115611dff57600080fd5b611e0a848285612aa8565b509392505050565b600081359050611e21816130d9565b92915050565b600082601f830112611e3857600080fd5b8135611e48848260208601611cfc565b91505092915050565b600082601f830112611e6257600080fd5b8135611e72848260208601611d68565b91505092915050565b600081359050611e8a816130f0565b92915050565b600081359050611e9f81613107565b92915050565b600081519050611eb481613107565b92915050565b600082601f830112611ecb57600080fd5b8135611edb848260208601611dd4565b91505092915050565b600081359050611ef38161311e565b92915050565b60008060408385031215611f0c57600080fd5b6000611f1a85828601611e12565b9250506020611f2b85828601611e12565b9150509250929050565b600080600080600060a08688031215611f4d57600080fd5b6000611f5b88828901611e12565b9550506020611f6c88828901611e12565b945050604086013567ffffffffffffffff811115611f8957600080fd5b611f9588828901611e51565b935050606086013567ffffffffffffffff811115611fb257600080fd5b611fbe88828901611e51565b925050608086013567ffffffffffffffff811115611fdb57600080fd5b611fe788828901611eba565b9150509295509295909350565b600080600080600060a0868803121561200c57600080fd5b600061201a88828901611e12565b955050602061202b88828901611e12565b945050604061203c88828901611ee4565b935050606061204d88828901611ee4565b925050608086013567ffffffffffffffff81111561206a57600080fd5b61207688828901611eba565b9150509295509295909350565b6000806040838503121561209657600080fd5b60006120a485828601611e12565b92505060206120b585828601611e7b565b9150509250929050565b600080604083850312156120d257600080fd5b60006120e085828601611e12565b92505060206120f185828601611ee4565b9150509250929050565b6000806040838503121561210e57600080fd5b600083013567ffffffffffffffff81111561212857600080fd5b61213485828601611e27565b925050602083013567ffffffffffffffff81111561215157600080fd5b61215d85828601611e51565b9150509250929050565b60006020828403121561217957600080fd5b600061218784828501611e90565b91505092915050565b6000602082840312156121a257600080fd5b60006121b084828501611ea5565b91505092915050565b6000602082840312156121cb57600080fd5b60006121d984828501611ee4565b91505092915050565b600080604083850312156121f557600080fd5b600061220385828601611ee4565b925050602061221485828601611ee4565b9150509250929050565b600061222a838361250e565b60208301905092915050565b61223f81612a34565b82525050565b60006122508261297d565b61225a81856129ab565b93506122658361296d565b8060005b8381101561229657815161227d888261221e565b97506122888361299e565b925050600181019050612269565b5085935050505092915050565b6122ac81612a46565b82525050565b60006122bd82612988565b6122c781856129bc565b93506122d7818560208601612ab7565b6122e081612c45565b840191505092915050565b60006122f682612993565b61230081856129cd565b9350612310818560208601612ab7565b61231981612c45565b840191505092915050565b60006123316034836129cd565b915061233c82612c63565b604082019050919050565b60006123546028836129cd565b915061235f82612cb2565b604082019050919050565b6000612377602b836129cd565b915061238282612d01565b604082019050919050565b600061239a601a836129cd565b91506123a582612d50565b602082019050919050565b60006123bd6029836129cd565b91506123c882612d79565b604082019050919050565b60006123e06025836129cd565b91506123eb82612dc8565b604082019050919050565b60006124036032836129cd565b915061240e82612e17565b604082019050919050565b6000612426602a836129cd565b915061243182612e66565b604082019050919050565b6000612449601f836129cd565b915061245482612eb5565b602082019050919050565b600061246c601a836129cd565b915061247782612ede565b602082019050919050565b600061248f6029836129cd565b915061249a82612f07565b604082019050919050565b60006124b26029836129cd565b91506124bd82612f56565b604082019050919050565b60006124d56028836129cd565b91506124e082612fa5565b604082019050919050565b60006124f86021836129cd565b915061250382612ff4565b604082019050919050565b61251781612a9e565b82525050565b61252681612a9e565b82525050565b600060a0820190506125416000830188612236565b61254e6020830187612236565b81810360408301526125608186612245565b905081810360608301526125748185612245565b9050818103608083015261258881846122b2565b90509695505050505050565b600060a0820190506125a96000830188612236565b6125b66020830187612236565b6125c3604083018661251d565b6125d0606083018561251d565b81810360808301526125e281846122b2565b90509695505050505050565b60006060820190506126036000830186612236565b612610602083018561251d565b61261d604083018461251d565b949350505050565b6000602082019050818103600083015261263f8184612245565b905092915050565b600060408201905081810360008301526126618185612245565b905081810360208301526126758184612245565b90509392505050565b600060208201905061269360008301846122a3565b92915050565b600060208201905081810360008301526126b381846122eb565b905092915050565b600060208201905081810360008301526126d481612324565b9050919050565b600060208201905081810360008301526126f481612347565b9050919050565b600060208201905081810360008301526127148161236a565b9050919050565b600060208201905081810360008301526127348161238d565b9050919050565b60006020820190508181036000830152612754816123b0565b9050919050565b60006020820190508181036000830152612774816123d3565b9050919050565b60006020820190508181036000830152612794816123f6565b9050919050565b600060208201905081810360008301526127b481612419565b9050919050565b600060208201905081810360008301526127d48161243c565b9050919050565b600060208201905081810360008301526127f48161245f565b9050919050565b6000602082019050818103600083015261281481612482565b9050919050565b60006020820190508181036000830152612834816124a5565b9050919050565b60006020820190508181036000830152612854816124c8565b9050919050565b60006020820190508181036000830152612874816124eb565b9050919050565b6000602082019050612890600083018461251d565b92915050565b60006040820190506128ab600083018561251d565b6128b8602083018461251d565b9392505050565b60006128c96128da565b90506128d58282612b1c565b919050565b6000604051905090565b600067ffffffffffffffff8211156128ff576128fe612bf4565b5b602082029050602081019050919050565b600067ffffffffffffffff82111561292b5761292a612bf4565b5b602082029050602081019050919050565b600067ffffffffffffffff82111561295757612956612bf4565b5b61296082612c45565b9050602081019050919050565b6000819050602082019050919050565b600081519050919050565b600081519050919050565b600081519050919050565b6000602082019050919050565b600082825260208201905092915050565b600082825260208201905092915050565b600082825260208201905092915050565b60006129e982612a9e565b91506129f483612a9e565b9250827fffffffffffffffffffffffffffffffffffffffffffffffffffffffffffffffff03821115612a2957612a28612b96565b5b828201905092915050565b6000612a3f82612a7e565b9050919050565b60008115159050919050565b60007fffffffff0000000000000000000000000000000000000000000000000000000082169050919050565b600073ffffffffffffffffffffffffffffffffffffffff82169050919050565b6000819050919050565b82818337600083830152505050565b60005b83811015612ad5578082015181840152602081019050612aba565b83811115612ae4576000848401525b50505050565b60006002820490506001821680612b0257607f821691505b60208210811415612b1657612b15612bc5565b5b50919050565b612b2582612c45565b810181811067ffffffffffffffff82111715612b4457612b43612bf4565b5b80604052505050565b6000612b5882612a9e565b91507fffffffffffffffffffffffffffffffffffffffffffffffffffffffffffffffff821415612b8b57612b8a612b96565b5b600182019050919050565b7f4e487b7100000000000000000000000000000000000000000000000000000000600052601160045260246000fd5b7f4e487b7100000000000000000000000000000000000000000000000000000000600052602260045260246000fd5b7f4e487b7100000000000000000000000000000000000000000000000000000000600052604160045260246000fd5b600060033d1115612c425760046000803e612c3f600051612c56565b90505b90565b6000601f19601f8301169050919050565b60008160e01c9050919050565b7f455243313135353a207472616e7366657220746f206e6f6e204552433131353560008201527f526563656976657220696d706c656d656e746572000000000000000000000000602082015250565b7f455243313135353a204552433131353552656365697665722072656a6563746560008201527f6420746f6b656e73000000000000000000000000000000000000000000000000602082015250565b7f455243313135353a2062616c616e636520717565727920666f7220746865207a60008201527f65726f2061646472657373000000000000000000000000000000000000000000602082015250565b7f4f776e65722063616e206e6f742062696420666f72206974656d000000000000600082015250565b7f455243313135353a2063616c6c6572206973206e6f74206f776e6572206e6f7260008201527f20617070726f7665640000000000000000000000000000000000000000000000602082015250565b7f455243313135353a207472616e7366657220746f20746865207a65726f20616460008201527f6472657373000000000000000000000000000000000000000000000000000000602082015250565b7f455243313135353a207472616e736665722063616c6c6572206973206e6f742060008201527f6f776e6572206e6f7220617070726f7665640000000000000000000000000000602082015250565b7f455243313135353a20696e73756666696369656e742062616c616e636520666f60008201527f72207472616e7366657200000000000000000000000000000000000000000000602082015250565b7f4f6e6c79206f776e65722063616e206c69737420666f722061756374696f6e00600082015250565b7f41756374696f6e20697320616c72656164792073746172746564000000000000600082015250565b7f455243313135353a2073657474696e6720617070726f76616c2073746174757360008201527f20666f722073656c660000000000000000000000000000000000000000000000602082015250565b7f455243313135353a206163636f756e747320616e6420696473206c656e67746860008201527f206d69736d617463680000000000000000000000000000000000000000000000602082015250565b7f455243313135353a2069647320616e6420616d6f756e7473206c656e6774682060008201527f6d69736d61746368000000000000000000000000000000000000000000000000602082015250565b7f455243313135353a206d696e7420746f20746865207a65726f2061646472657360008201527f7300000000000000000000000000000000000000000000000000000000000000602082015250565b600060443d1015613053576130d6565b61305b6128da565b60043d036004823e80513d602482011167ffffffffffffffff821117156130835750506130d6565b808201805167ffffffffffffffff8111156130a157505050506130d6565b80602083010160043d0385018111156130be5750505050506130d6565b6130cd82602001850186612b1c565b82955050505050505b90565b6130e281612a34565b81146130ed57600080fd5b50565b6130f981612a46565b811461310457600080fd5b50565b61311081612a52565b811461311b57600080fd5b50565b61312781612a9e565b811461313257600080fd5b5056fea26469706673582212209265ca207aa92e294f4818bf265fb86263f2db36e1d75e92dac0c65d35eca46064736f6c6343000801003368747470733a2f2f697066732e696f2f697066732f516d51557136566d4c7a534b7659464a545765377a677a55416b57567073475464324c79656b6d776476417a767a2f7b69647d2e6a736f6e",
  "immutableReferences": {},
  "source": "// SPDX-License-Identifier: MIT\npragma solidity ^0.8.0;\n\nimport \"./Base.sol\";\n\n contract Auction is Base  {\n\n    uint256 auctionCount=1;\n    event AuctionCreated(address);\n    mapping(uint256=>address) auctions;\n    event Bidding(address[]);\n\n    address owner;\n    uint256 _startBlock;\n    uint256 _endBlock;\n    uint256 [] internal listedNFT;\n    mapping (uint256=>address[]) bidders;\n    mapping(uint256=>mapping(address=>uint256)) amountBidded;\n    mapping(uint256=>uint256) internal bid;\n    mapping(uint256=>address) highestBidAddress;\n    bool auctionCancelled=false;\n\n    \n    constructor(){\n        owner=msg.sender;\n    }\n\n    modifier auctionGoing(uint256 start,uint256 end){\n        require(!auctionCancelled && block.number>_startBlock && block.number<_endBlock);\n        _;\n    }\n\n    modifier auctionEnded(uint256 start, uint256 end){\n        require(!auctionCancelled && block.number>_endBlock);\n        _;\n    }\n\n    function createAuction(uint256 start, uint256 end) public{\n        require(block.number<start && start<=end);\n        require(msg.sender==owner);\n        _startBlock=start;\n        _endBlock=end;\n        auctions[auctionCount]=address(this);\n        auctionCount+=1;\n    }\n\n\n    // function getBidders(uint256 id) public view returns(address[] memory){\n    //     return bidders[id];\n    // }\n\n    function listForAuction(uint256 id)  public payable{\n        require(block.number<_startBlock,\"Auction is already started\");\n        require(getBalance(msg.sender,id)>0,\"Only owner can list for auction\"); \n        listedNFT.push(id);\n        bid[id]=msg.value;\n    }\n\n\n    function cancelAuction() public{\n        require(msg.sender==owner && block.number<_startBlock);\n        auctionCancelled=true;\n    }\n\n    function Bid(uint256 id) public payable {\n        address nftOwner=Base.nftHolders[id];\n        require(nftOwner!=msg.sender,\"Owner can not bid for item\");\n        require(msg.value>bid[id]);\n        bid[id]=msg.value;\n        highestBidAddress[id]=msg.sender;\n        address[] storage exisitingBidders=bidders[id];\n        bool exisits=false;\n        for(uint i=0;i<exisitingBidders.length;i++){\n            if(exisitingBidders[i]==msg.sender){\n                exisits=true;\n                break;\n            }\n        }\n        if(!exisits) bidders[id].push(msg.sender);\n        amountBidded[id][msg.sender]=msg.value;\n    }\n    \n}",
  "sourcePath": "/Users/ayush/Desktop/ProperT/contracts/Auction.sol",
  "compiler": {
    "name": "solc",
    "version": "0.8.1+commit.df193b15.Emscripten.clang"
  },
  "schemaVersion": "3.4.2",
  "updatedAt": "2022-01-12T15:32:12.520Z",
  "devdoc": {
    "kind": "dev",
    "methods": {
      "balanceOf(address,uint256)": {
        "details": "See {IERC1155-balanceOf}. Requirements: - `account` cannot be the zero address."
      },
      "balanceOfBatch(address[],uint256[])": {
        "details": "See {IERC1155-balanceOfBatch}. Requirements: - `accounts` and `ids` must have the same length."
      },
      "isApprovedForAll(address,address)": {
        "details": "See {IERC1155-isApprovedForAll}."
      },
      "safeBatchTransferFrom(address,address,uint256[],uint256[],bytes)": {
        "details": "See {IERC1155-safeBatchTransferFrom}."
      },
      "safeTransferFrom(address,address,uint256,uint256,bytes)": {
        "details": "See {IERC1155-safeTransferFrom}."
      },
      "setApprovalForAll(address,bool)": {
        "details": "See {IERC1155-setApprovalForAll}."
      },
      "supportsInterface(bytes4)": {
        "details": "See {IERC165-supportsInterface}."
      },
      "uri(uint256)": {
        "details": "See {IERC1155MetadataURI-uri}. This implementation returns the same URI for *all* token types. It relies on the token type ID substitution mechanism https://eips.ethereum.org/EIPS/eip-1155#metadata[defined in the EIP]. Clients calling this function must replace the `\\{id\\}` substring with the actual token type ID."
      }
    },
    "version": 1
  },
  "userdoc": {
    "kind": "user",
    "methods": {},
    "version": 1
  }
}