{
  "contractName": "Base",
  "abi": [
    {
      "inputs": [],
      "stateMutability": "nonpayable",
      "type": "constructor"
    },
    {
      "anonymous": false,
      "inputs": [
        {
          "indexed": true,
          "internalType": "address",
          "name": "account",
          "type": "address"
        },
        {
          "indexed": true,
          "internalType": "address",
          "name": "operator",
          "type": "address"
        },
        {
          "indexed": false,
          "internalType": "bool",
          "name": "approved",
          "type": "bool"
        }
      ],
      "name": "ApprovalForAll",
      "type": "event"
    },
    {
      "anonymous": false,
      "inputs": [
        {
          "indexed": true,
          "internalType": "address",
          "name": "operator",
          "type": "address"
        },
        {
          "indexed": true,
          "internalType": "address",
          "name": "from",
          "type": "address"
        },
        {
          "indexed": true,
          "internalType": "address",
          "name": "to",
          "type": "address"
        },
        {
          "indexed": false,
          "internalType": "uint256[]",
          "name": "ids",
          "type": "uint256[]"
        },
        {
          "indexed": false,
          "internalType": "uint256[]",
          "name": "values",
          "type": "uint256[]"
        }
      ],
      "name": "TransferBatch",
      "type": "event"
    },
    {
      "anonymous": false,
      "inputs": [
        {
          "indexed": true,
          "internalType": "address",
          "name": "operator",
          "type": "address"
        },
        {
          "indexed": true,
          "internalType": "address",
          "name": "from",
          "type": "address"
        },
        {
          "indexed": true,
          "internalType": "address",
          "name": "to",
          "type": "address"
        },
        {
          "indexed": false,
          "internalType": "uint256",
          "name": "id",
          "type": "uint256"
        },
        {
          "indexed": false,
          "internalType": "uint256",
          "name": "value",
          "type": "uint256"
        }
      ],
      "name": "TransferSingle",
      "type": "event"
    },
    {
      "anonymous": false,
      "inputs": [
        {
          "indexed": false,
          "internalType": "string",
          "name": "value",
          "type": "string"
        },
        {
          "indexed": true,
          "internalType": "uint256",
          "name": "id",
          "type": "uint256"
        }
      ],
      "name": "URI",
      "type": "event"
    },
    {
      "anonymous": false,
      "inputs": [
        {
          "indexed": false,
          "internalType": "address",
          "name": "",
          "type": "address"
        },
        {
          "indexed": false,
          "internalType": "uint256",
          "name": "",
          "type": "uint256"
        },
        {
          "indexed": false,
          "internalType": "uint256",
          "name": "",
          "type": "uint256"
        }
      ],
      "name": "minted",
      "type": "event"
    },
    {
      "inputs": [
        {
          "internalType": "address",
          "name": "account",
          "type": "address"
        },
        {
          "internalType": "uint256",
          "name": "id",
          "type": "uint256"
        }
      ],
      "name": "balanceOf",
      "outputs": [
        {
          "internalType": "uint256",
          "name": "",
          "type": "uint256"
        }
      ],
      "stateMutability": "view",
      "type": "function"
    },
    {
      "inputs": [
        {
          "internalType": "address[]",
          "name": "accounts",
          "type": "address[]"
        },
        {
          "internalType": "uint256[]",
          "name": "ids",
          "type": "uint256[]"
        }
      ],
      "name": "balanceOfBatch",
      "outputs": [
        {
          "internalType": "uint256[]",
          "name": "",
          "type": "uint256[]"
        }
      ],
      "stateMutability": "view",
      "type": "function"
    },
    {
      "inputs": [
        {
          "internalType": "address",
          "name": "account",
          "type": "address"
        },
        {
          "internalType": "address",
          "name": "operator",
          "type": "address"
        }
      ],
      "name": "isApprovedForAll",
      "outputs": [
        {
          "internalType": "bool",
          "name": "",
          "type": "bool"
        }
      ],
      "stateMutability": "view",
      "type": "function"
    },
    {
      "inputs": [
        {
          "internalType": "address",
          "name": "from",
          "type": "address"
        },
        {
          "internalType": "address",
          "name": "to",
          "type": "address"
        },
        {
          "internalType": "uint256[]",
          "name": "ids",
          "type": "uint256[]"
        },
        {
          "internalType": "uint256[]",
          "name": "amounts",
          "type": "uint256[]"
        },
        {
          "internalType": "bytes",
          "name": "data",
          "type": "bytes"
        }
      ],
      "name": "safeBatchTransferFrom",
      "outputs": [],
      "stateMutability": "nonpayable",
      "type": "function"
    },
    {
      "inputs": [
        {
          "internalType": "address",
          "name": "from",
          "type": "address"
        },
        {
          "internalType": "address",
          "name": "to",
          "type": "address"
        },
        {
          "internalType": "uint256",
          "name": "id",
          "type": "uint256"
        },
        {
          "internalType": "uint256",
          "name": "amount",
          "type": "uint256"
        },
        {
          "internalType": "bytes",
          "name": "data",
          "type": "bytes"
        }
      ],
      "name": "safeTransferFrom",
      "outputs": [],
      "stateMutability": "nonpayable",
      "type": "function"
    },
    {
      "inputs": [
        {
          "internalType": "address",
          "name": "operator",
          "type": "address"
        },
        {
          "internalType": "bool",
          "name": "approved",
          "type": "bool"
        }
      ],
      "name": "setApprovalForAll",
      "outputs": [],
      "stateMutability": "nonpayable",
      "type": "function"
    },
    {
      "inputs": [
        {
          "internalType": "bytes4",
          "name": "interfaceId",
          "type": "bytes4"
        }
      ],
      "name": "supportsInterface",
      "outputs": [
        {
          "internalType": "bool",
          "name": "",
          "type": "bool"
        }
      ],
      "stateMutability": "view",
      "type": "function"
    },
    {
      "inputs": [
        {
          "internalType": "uint256",
          "name": "",
          "type": "uint256"
        }
      ],
      "name": "uri",
      "outputs": [
        {
          "internalType": "string",
          "name": "",
          "type": "string"
        }
      ],
      "stateMutability": "view",
      "type": "function"
    },
    {
      "inputs": [
        {
          "internalType": "uint256",
          "name": "amt",
          "type": "uint256"
        }
      ],
      "name": "mintNFT",
      "outputs": [],
      "stateMutability": "nonpayable",
      "type": "function"
    }
  ],
  "bytecode": "0x608060405260016003553480156200001657600080fd5b506040518060800160405280604d815260200162002b1b604d913962000042816200004960201b60201c565b506200017a565b80600290805190602001906200006192919062000065565b5050565b828054620000739062000115565b90600052602060002090601f016020900481019282620000975760008555620000e3565b82601f10620000b257805160ff1916838001178555620000e3565b82800160010185558215620000e3579182015b82811115620000e2578251825591602001919060010190620000c5565b5b509050620000f29190620000f6565b5090565b5b8082111562000111576000816000905550600101620000f7565b5090565b600060028204905060018216806200012e57607f821691505b602082108114156200014557620001446200014b565b5b50919050565b7f4e487b7100000000000000000000000000000000000000000000000000000000600052602260045260246000fd5b612991806200018a6000396000f3fe608060405234801561001057600080fd5b50600436106100925760003560e01c80634e1273f4116100665780634e1273f4146101435780639264274414610173578063a22cb4651461018f578063e985e9c5146101ab578063f242432a146101db57610092565b8062fdd58e1461009757806301ffc9a7146100c75780630e89341c146100f75780632eb2c2d614610127575b600080fd5b6100b160048036038101906100ac9190611a65565b6101f7565b6040516100be919061211c565b60405180910390f35b6100e160048036038101906100dc9190611b0d565b6102c0565b6040516100ee9190611f7f565b60405180910390f35b610111600480360381019061010c9190611b5f565b6103a2565b60405161011e9190611f9a565b60405180910390f35b610141600480360381019061013c91906118db565b610436565b005b61015d60048036038101906101589190611aa1565b6104d7565b60405161016a9190611f26565b60405180910390f35b61018d60048036038101906101889190611b5f565b610688565b005b6101a960048036038101906101a49190611a29565b610753565b005b6101c560048036038101906101c0919061189f565b6108d4565b6040516101d29190611f7f565b60405180910390f35b6101f560048036038101906101f0919061199a565b610968565b005b60008073ffffffffffffffffffffffffffffffffffffffff168373ffffffffffffffffffffffffffffffffffffffff161415610268576040517f08c379a000000000000000000000000000000000000000000000000000000000815260040161025f90611ffc565b60405180910390fd5b60008083815260200190815260200160002060008473ffffffffffffffffffffffffffffffffffffffff1673ffffffffffffffffffffffffffffffffffffffff16815260200190815260200160002054905092915050565b60007fd9b67a26000000000000000000000000000000000000000000000000000000007bffffffffffffffffffffffffffffffffffffffffffffffffffffffff1916827bffffffffffffffffffffffffffffffffffffffffffffffffffffffff1916148061038b57507f0e89341c000000000000000000000000000000000000000000000000000000007bffffffffffffffffffffffffffffffffffffffffffffffffffffffff1916827bffffffffffffffffffffffffffffffffffffffffffffffffffffffff1916145b8061039b575061039a82610a09565b5b9050919050565b6060600280546103b19061238b565b80601f01602080910402602001604051908101604052809291908181526020018280546103dd9061238b565b801561042a5780601f106103ff5761010080835404028352916020019161042a565b820191906000526020600020905b81548152906001019060200180831161040d57829003601f168201915b50505050509050919050565b61043e610a73565b73ffffffffffffffffffffffffffffffffffffffff168573ffffffffffffffffffffffffffffffffffffffff16148061048457506104838561047e610a73565b6108d4565b5b6104c3576040517f08c379a00000000000000000000000000000000000000000000000000000000081526004016104ba9061205c565b60405180910390fd5b6104d08585858585610a7b565b5050505050565b6060815183511461051d576040517f08c379a0000000000000000000000000000000000000000000000000000000008152600401610514906120bc565b60405180910390fd5b6000835167ffffffffffffffff811115610560577f4e487b7100000000000000000000000000000000000000000000000000000000600052604160045260246000fd5b60405190808252806020026020018201604052801561058e5781602001602082028036833780820191505090505b50905060005b845181101561067d576106278582815181106105d9577f4e487b7100000000000000000000000000000000000000000000000000000000600052603260045260246000fd5b602002602001015185838151811061061a577f4e487b7100000000000000000000000000000000000000000000000000000000600052603260045260246000fd5b60200260200101516101f7565b828281518110610660577f4e487b7100000000000000000000000000000000000000000000000000000000600052603260045260246000fd5b60200260200101818152505080610676906123ee565b9050610594565b508091505092915050565b6106a5336003548360405180602001604052806000815250610ddb565b3360046000600354815260200190815260200160002060006101000a81548173ffffffffffffffffffffffffffffffffffffffff021916908373ffffffffffffffffffffffffffffffffffffffff1602179055507fead94eb56e46b064207039af2a77f19bbfdcdf7cb4481d53d8f8c75dfcb59fc4336003548360405161072e93929190611eef565b60405180910390a1600160036000828254610749919061227f565b9250508190555050565b8173ffffffffffffffffffffffffffffffffffffffff16610772610a73565b73ffffffffffffffffffffffffffffffffffffffff1614156107c9576040517f08c379a00000000000000000000000000000000000000000000000000000000081526004016107c09061209c565b60405180910390fd5b80600160006107d6610a73565b73ffffffffffffffffffffffffffffffffffffffff1673ffffffffffffffffffffffffffffffffffffffff16815260200190815260200160002060008473ffffffffffffffffffffffffffffffffffffffff1673ffffffffffffffffffffffffffffffffffffffff16815260200190815260200160002060006101000a81548160ff0219169083151502179055508173ffffffffffffffffffffffffffffffffffffffff16610883610a73565b73ffffffffffffffffffffffffffffffffffffffff167f17307eab39ab6107e8899845ad3d59bd9653f200f220920489ca2b5937696c31836040516108c89190611f7f565b60405180910390a35050565b6000600160008473ffffffffffffffffffffffffffffffffffffffff1673ffffffffffffffffffffffffffffffffffffffff16815260200190815260200160002060008373ffffffffffffffffffffffffffffffffffffffff1673ffffffffffffffffffffffffffffffffffffffff16815260200190815260200160002060009054906101000a900460ff16905092915050565b610970610a73565b73ffffffffffffffffffffffffffffffffffffffff168573ffffffffffffffffffffffffffffffffffffffff1614806109b657506109b5856109b0610a73565b6108d4565b5b6109f5576040517f08c379a00000000000000000000000000000000000000000000000000000000081526004016109ec9061201c565b60405180910390fd5b610a028585858585610f71565b5050505050565b60007f01ffc9a7000000000000000000000000000000000000000000000000000000007bffffffffffffffffffffffffffffffffffffffffffffffffffffffff1916827bffffffffffffffffffffffffffffffffffffffffffffffffffffffff1916149050919050565b600033905090565b8151835114610abf576040517f08c379a0000000000000000000000000000000000000000000000000000000008152600401610ab6906120dc565b60405180910390fd5b600073ffffffffffffffffffffffffffffffffffffffff168473ffffffffffffffffffffffffffffffffffffffff161415610b2f576040517f08c379a0000000000000000000000000000000000000000000000000000000008152600401610b269061203c565b60405180910390fd5b6000610b39610a73565b9050610b498187878787876111f3565b60005b8451811015610d46576000858281518110610b90577f4e487b7100000000000000000000000000000000000000000000000000000000600052603260045260246000fd5b602002602001015190506000858381518110610bd5577f4e487b7100000000000000000000000000000000000000000000000000000000600052603260045260246000fd5b60200260200101519050600080600084815260200190815260200160002060008b73ffffffffffffffffffffffffffffffffffffffff1673ffffffffffffffffffffffffffffffffffffffff16815260200190815260200160002054905081811015610c76576040517f08c379a0000000000000000000000000000000000000000000000000000000008152600401610c6d9061207c565b60405180910390fd5b81810360008085815260200190815260200160002060008c73ffffffffffffffffffffffffffffffffffffffff1673ffffffffffffffffffffffffffffffffffffffff168152602001908152602001600020819055508160008085815260200190815260200160002060008b73ffffffffffffffffffffffffffffffffffffffff1673ffffffffffffffffffffffffffffffffffffffff1681526020019081526020016000206000828254610d2b919061227f565b9250508190555050505080610d3f906123ee565b9050610b4c565b508473ffffffffffffffffffffffffffffffffffffffff168673ffffffffffffffffffffffffffffffffffffffff168273ffffffffffffffffffffffffffffffffffffffff167f4a39dc06d4c0dbc64b70af90fd698a233a518aa5d07e595d983b8c0526c8f7fb8787604051610dbd929190611f48565b60405180910390a4610dd38187878787876111fb565b505050505050565b600073ffffffffffffffffffffffffffffffffffffffff168473ffffffffffffffffffffffffffffffffffffffff161415610e4b576040517f08c379a0000000000000000000000000000000000000000000000000000000008152600401610e42906120fc565b60405180910390fd5b6000610e55610a73565b9050610e7681600087610e67886113e2565b610e70886113e2565b876111f3565b8260008086815260200190815260200160002060008773ffffffffffffffffffffffffffffffffffffffff1673ffffffffffffffffffffffffffffffffffffffff1681526020019081526020016000206000828254610ed5919061227f565b925050819055508473ffffffffffffffffffffffffffffffffffffffff16600073ffffffffffffffffffffffffffffffffffffffff168273ffffffffffffffffffffffffffffffffffffffff167fc3d58168c5ae7397731d063d5bbf3d657854427343f4c083240f7aacaa2d0f628787604051610f53929190612137565b60405180910390a4610f6a816000878787876114a8565b5050505050565b600073ffffffffffffffffffffffffffffffffffffffff168473ffffffffffffffffffffffffffffffffffffffff161415610fe1576040517f08c379a0000000000000000000000000000000000000000000000000000000008152600401610fd89061203c565b60405180910390fd5b6000610feb610a73565b905061100b818787610ffc886113e2565b611005886113e2565b876111f3565b600080600086815260200190815260200160002060008873ffffffffffffffffffffffffffffffffffffffff1673ffffffffffffffffffffffffffffffffffffffff168152602001908152602001600020549050838110156110a2576040517f08c379a00000000000000000000000000000000000000000000000000000000081526004016110999061207c565b60405180910390fd5b83810360008087815260200190815260200160002060008973ffffffffffffffffffffffffffffffffffffffff1673ffffffffffffffffffffffffffffffffffffffff168152602001908152602001600020819055508360008087815260200190815260200160002060008873ffffffffffffffffffffffffffffffffffffffff1673ffffffffffffffffffffffffffffffffffffffff1681526020019081526020016000206000828254611157919061227f565b925050819055508573ffffffffffffffffffffffffffffffffffffffff168773ffffffffffffffffffffffffffffffffffffffff168373ffffffffffffffffffffffffffffffffffffffff167fc3d58168c5ae7397731d063d5bbf3d657854427343f4c083240f7aacaa2d0f6288886040516111d4929190612137565b60405180910390a46111ea8288888888886114a8565b50505050505050565b505050505050565b61121a8473ffffffffffffffffffffffffffffffffffffffff1661168f565b156113da578373ffffffffffffffffffffffffffffffffffffffff1663bc197c8187878686866040518663ffffffff1660e01b8152600401611260959493929190611e2d565b602060405180830381600087803b15801561127a57600080fd5b505af19250505080156112ab57506040513d601f19601f820116820180604052508101906112a89190611b36565b60015b611351576112b76124c4565b806308c379a0141561131457506112cc612869565b806112d75750611316565b806040517f08c379a000000000000000000000000000000000000000000000000000000000815260040161130b9190611f9a565b60405180910390fd5b505b6040517f08c379a000000000000000000000000000000000000000000000000000000000815260040161134890611fbc565b60405180910390fd5b63bc197c8160e01b7bffffffffffffffffffffffffffffffffffffffffffffffffffffffff1916817bffffffffffffffffffffffffffffffffffffffffffffffffffffffff1916146113d8576040517f08c379a00000000000000000000000000000000000000000000000000000000081526004016113cf90611fdc565b60405180910390fd5b505b505050505050565b60606000600167ffffffffffffffff811115611427577f4e487b7100000000000000000000000000000000000000000000000000000000600052604160045260246000fd5b6040519080825280602002602001820160405280156114555781602001602082028036833780820191505090505b5090508281600081518110611493577f4e487b7100000000000000000000000000000000000000000000000000000000600052603260045260246000fd5b60200260200101818152505080915050919050565b6114c78473ffffffffffffffffffffffffffffffffffffffff1661168f565b15611687578373ffffffffffffffffffffffffffffffffffffffff1663f23a6e6187878686866040518663ffffffff1660e01b815260040161150d959493929190611e95565b602060405180830381600087803b15801561152757600080fd5b505af192505050801561155857506040513d601f19601f820116820180604052508101906115559190611b36565b60015b6115fe576115646124c4565b806308c379a014156115c15750611579612869565b8061158457506115c3565b806040517f08c379a00000000000000000000000000000000000000000000000000000000081526004016115b89190611f9a565b60405180910390fd5b505b6040517f08c379a00000000000000000000000000000000000000000000000000000000081526004016115f590611fbc565b60405180910390fd5b63f23a6e6160e01b7bffffffffffffffffffffffffffffffffffffffffffffffffffffffff1916817bffffffffffffffffffffffffffffffffffffffffffffffffffffffff191614611685576040517f08c379a000000000000000000000000000000000000000000000000000000000815260040161167c90611fdc565b60405180910390fd5b505b505050505050565b600080823b905060008111915050919050565b60006116b56116b084612185565b612160565b905080838252602082019050828560208602820111156116d457600080fd5b60005b8581101561170457816116ea88826117b8565b8452602084019350602083019250506001810190506116d7565b5050509392505050565b600061172161171c846121b1565b612160565b9050808382526020820190508285602086028201111561174057600080fd5b60005b858110156117705781611756888261188a565b845260208401935060208301925050600181019050611743565b5050509392505050565b600061178d611788846121dd565b612160565b9050828152602081018484840111156117a557600080fd5b6117b0848285612349565b509392505050565b6000813590506117c7816128ff565b92915050565b600082601f8301126117de57600080fd5b81356117ee8482602086016116a2565b91505092915050565b600082601f83011261180857600080fd5b813561181884826020860161170e565b91505092915050565b60008135905061183081612916565b92915050565b6000813590506118458161292d565b92915050565b60008151905061185a8161292d565b92915050565b600082601f83011261187157600080fd5b813561188184826020860161177a565b91505092915050565b60008135905061189981612944565b92915050565b600080604083850312156118b257600080fd5b60006118c0858286016117b8565b92505060206118d1858286016117b8565b9150509250929050565b600080600080600060a086880312156118f357600080fd5b6000611901888289016117b8565b9550506020611912888289016117b8565b945050604086013567ffffffffffffffff81111561192f57600080fd5b61193b888289016117f7565b935050606086013567ffffffffffffffff81111561195857600080fd5b611964888289016117f7565b925050608086013567ffffffffffffffff81111561198157600080fd5b61198d88828901611860565b9150509295509295909350565b600080600080600060a086880312156119b257600080fd5b60006119c0888289016117b8565b95505060206119d1888289016117b8565b94505060406119e28882890161188a565b93505060606119f38882890161188a565b925050608086013567ffffffffffffffff811115611a1057600080fd5b611a1c88828901611860565b9150509295509295909350565b60008060408385031215611a3c57600080fd5b6000611a4a858286016117b8565b9250506020611a5b85828601611821565b9150509250929050565b60008060408385031215611a7857600080fd5b6000611a86858286016117b8565b9250506020611a978582860161188a565b9150509250929050565b60008060408385031215611ab457600080fd5b600083013567ffffffffffffffff811115611ace57600080fd5b611ada858286016117cd565b925050602083013567ffffffffffffffff811115611af757600080fd5b611b03858286016117f7565b9150509250929050565b600060208284031215611b1f57600080fd5b6000611b2d84828501611836565b91505092915050565b600060208284031215611b4857600080fd5b6000611b568482850161184b565b91505092915050565b600060208284031215611b7157600080fd5b6000611b7f8482850161188a565b91505092915050565b6000611b948383611e0f565b60208301905092915050565b611ba9816122d5565b82525050565b6000611bba8261221e565b611bc4818561224c565b9350611bcf8361220e565b8060005b83811015611c00578151611be78882611b88565b9750611bf28361223f565b925050600181019050611bd3565b5085935050505092915050565b611c16816122e7565b82525050565b6000611c2782612229565b611c31818561225d565b9350611c41818560208601612358565b611c4a816124e6565b840191505092915050565b6000611c6082612234565b611c6a818561226e565b9350611c7a818560208601612358565b611c83816124e6565b840191505092915050565b6000611c9b60348361226e565b9150611ca682612504565b604082019050919050565b6000611cbe60288361226e565b9150611cc982612553565b604082019050919050565b6000611ce1602b8361226e565b9150611cec826125a2565b604082019050919050565b6000611d0460298361226e565b9150611d0f826125f1565b604082019050919050565b6000611d2760258361226e565b9150611d3282612640565b604082019050919050565b6000611d4a60328361226e565b9150611d558261268f565b604082019050919050565b6000611d6d602a8361226e565b9150611d78826126de565b604082019050919050565b6000611d9060298361226e565b9150611d9b8261272d565b604082019050919050565b6000611db360298361226e565b9150611dbe8261277c565b604082019050919050565b6000611dd660288361226e565b9150611de1826127cb565b604082019050919050565b6000611df960218361226e565b9150611e048261281a565b604082019050919050565b611e188161233f565b82525050565b611e278161233f565b82525050565b600060a082019050611e426000830188611ba0565b611e4f6020830187611ba0565b8181036040830152611e618186611baf565b90508181036060830152611e758185611baf565b90508181036080830152611e898184611c1c565b90509695505050505050565b600060a082019050611eaa6000830188611ba0565b611eb76020830187611ba0565b611ec46040830186611e1e565b611ed16060830185611e1e565b8181036080830152611ee38184611c1c565b90509695505050505050565b6000606082019050611f046000830186611ba0565b611f116020830185611e1e565b611f1e6040830184611e1e565b949350505050565b60006020820190508181036000830152611f408184611baf565b905092915050565b60006040820190508181036000830152611f628185611baf565b90508181036020830152611f768184611baf565b90509392505050565b6000602082019050611f946000830184611c0d565b92915050565b60006020820190508181036000830152611fb48184611c55565b905092915050565b60006020820190508181036000830152611fd581611c8e565b9050919050565b60006020820190508181036000830152611ff581611cb1565b9050919050565b6000602082019050818103600083015261201581611cd4565b9050919050565b6000602082019050818103600083015261203581611cf7565b9050919050565b6000602082019050818103600083015261205581611d1a565b9050919050565b6000602082019050818103600083015261207581611d3d565b9050919050565b6000602082019050818103600083015261209581611d60565b9050919050565b600060208201905081810360008301526120b581611d83565b9050919050565b600060208201905081810360008301526120d581611da6565b9050919050565b600060208201905081810360008301526120f581611dc9565b9050919050565b6000602082019050818103600083015261211581611dec565b9050919050565b60006020820190506121316000830184611e1e565b92915050565b600060408201905061214c6000830185611e1e565b6121596020830184611e1e565b9392505050565b600061216a61217b565b905061217682826123bd565b919050565b6000604051905090565b600067ffffffffffffffff8211156121a05761219f612495565b5b602082029050602081019050919050565b600067ffffffffffffffff8211156121cc576121cb612495565b5b602082029050602081019050919050565b600067ffffffffffffffff8211156121f8576121f7612495565b5b612201826124e6565b9050602081019050919050565b6000819050602082019050919050565b600081519050919050565b600081519050919050565b600081519050919050565b6000602082019050919050565b600082825260208201905092915050565b600082825260208201905092915050565b600082825260208201905092915050565b600061228a8261233f565b91506122958361233f565b9250827fffffffffffffffffffffffffffffffffffffffffffffffffffffffffffffffff038211156122ca576122c9612437565b5b828201905092915050565b60006122e08261231f565b9050919050565b60008115159050919050565b60007fffffffff0000000000000000000000000000000000000000000000000000000082169050919050565b600073ffffffffffffffffffffffffffffffffffffffff82169050919050565b6000819050919050565b82818337600083830152505050565b60005b8381101561237657808201518184015260208101905061235b565b83811115612385576000848401525b50505050565b600060028204905060018216806123a357607f821691505b602082108114156123b7576123b6612466565b5b50919050565b6123c6826124e6565b810181811067ffffffffffffffff821117156123e5576123e4612495565b5b80604052505050565b60006123f98261233f565b91507fffffffffffffffffffffffffffffffffffffffffffffffffffffffffffffffff82141561242c5761242b612437565b5b600182019050919050565b7f4e487b7100000000000000000000000000000000000000000000000000000000600052601160045260246000fd5b7f4e487b7100000000000000000000000000000000000000000000000000000000600052602260045260246000fd5b7f4e487b7100000000000000000000000000000000000000000000000000000000600052604160045260246000fd5b600060033d11156124e35760046000803e6124e06000516124f7565b90505b90565b6000601f19601f8301169050919050565b60008160e01c9050919050565b7f455243313135353a207472616e7366657220746f206e6f6e204552433131353560008201527f526563656976657220696d706c656d656e746572000000000000000000000000602082015250565b7f455243313135353a204552433131353552656365697665722072656a6563746560008201527f6420746f6b656e73000000000000000000000000000000000000000000000000602082015250565b7f455243313135353a2062616c616e636520717565727920666f7220746865207a60008201527f65726f2061646472657373000000000000000000000000000000000000000000602082015250565b7f455243313135353a2063616c6c6572206973206e6f74206f776e6572206e6f7260008201527f20617070726f7665640000000000000000000000000000000000000000000000602082015250565b7f455243313135353a207472616e7366657220746f20746865207a65726f20616460008201527f6472657373000000000000000000000000000000000000000000000000000000602082015250565b7f455243313135353a207472616e736665722063616c6c6572206973206e6f742060008201527f6f776e6572206e6f7220617070726f7665640000000000000000000000000000602082015250565b7f455243313135353a20696e73756666696369656e742062616c616e636520666f60008201527f72207472616e7366657200000000000000000000000000000000000000000000602082015250565b7f455243313135353a2073657474696e6720617070726f76616c2073746174757360008201527f20666f722073656c660000000000000000000000000000000000000000000000602082015250565b7f455243313135353a206163636f756e747320616e6420696473206c656e67746860008201527f206d69736d617463680000000000000000000000000000000000000000000000602082015250565b7f455243313135353a2069647320616e6420616d6f756e7473206c656e6774682060008201527f6d69736d61746368000000000000000000000000000000000000000000000000602082015250565b7f455243313135353a206d696e7420746f20746865207a65726f2061646472657360008201527f7300000000000000000000000000000000000000000000000000000000000000602082015250565b600060443d1015612879576128fc565b61288161217b565b60043d036004823e80513d602482011167ffffffffffffffff821117156128a95750506128fc565b808201805167ffffffffffffffff8111156128c757505050506128fc565b80602083010160043d0385018111156128e45750505050506128fc565b6128f3826020018501866123bd565b82955050505050505b90565b612908816122d5565b811461291357600080fd5b50565b61291f816122e7565b811461292a57600080fd5b50565b612936816122f3565b811461294157600080fd5b50565b61294d8161233f565b811461295857600080fd5b5056fea2646970667358221220696971fa6bbe921097e8a1b84896142fb9e7b4370c185b43ce5cdf15c46b67de64736f6c6343000801003368747470733a2f2f697066732e696f2f697066732f516d51557136566d4c7a534b7659464a545765377a677a55416b57567073475464324c79656b6d776476417a767a2f7b69647d2e6a736f6e",
  "immutableReferences": {},
  "source": "// SPDX-License-Identifier: MIT\npragma solidity ^0.8.0;\nimport \"@openzeppelin/contracts/token/ERC1155/ERC1155.sol\";\n\ncontract Base is ERC1155{\n    uint256 currentId=1;\n    mapping(uint256 =>address) internal nftHolders;\n    event minted(address,uint256,uint256);\n\n    constructor() ERC1155(\"https://ipfs.io/ipfs/QmQUq6VmLzSKvYFJTWe7zgzUAkWVpsGTd2LyekmwdvAzvz/{id}.json\") {\n    }\n\n    function mintNFT(uint256 amt) public{\n        _mint(msg.sender, currentId, amt,\"\");\n        nftHolders[currentId]=msg.sender;\n        emit minted(msg.sender,currentId,amt);\n        currentId+=1;  \n    }\n\n    function getBalance(address acc, uint256 id) internal view returns(uint256){\n        return balanceOf(acc,id);\n    }\n    \n\n    function transferNFT(address from, address to, uint256 id, uint256 amnt) internal{\n        _safeTransferFrom(from, to, id, amnt,\"\");\n    }\n\n    function totalSupply() internal view returns(uint256){\n        return currentId;\n    }\n}\n",
  "sourcePath": "/Users/ayush/Desktop/ProperT/contracts/Base.sol",
  "compiler": {
    "name": "solc",
    "version": "0.8.1+commit.df193b15.Emscripten.clang"
  },
  "schemaVersion": "3.4.2",
  "updatedAt": "2022-01-12T15:32:12.526Z",
  "devdoc": {
    "kind": "dev",
    "methods": {
      "balanceOf(address,uint256)": {
        "details": "See {IERC1155-balanceOf}. Requirements: - `account` cannot be the zero address."
      },
      "balanceOfBatch(address[],uint256[])": {
        "details": "See {IERC1155-balanceOfBatch}. Requirements: - `accounts` and `ids` must have the same length."
      },
      "isApprovedForAll(address,address)": {
        "details": "See {IERC1155-isApprovedForAll}."
      },
      "safeBatchTransferFrom(address,address,uint256[],uint256[],bytes)": {
        "details": "See {IERC1155-safeBatchTransferFrom}."
      },
      "safeTransferFrom(address,address,uint256,uint256,bytes)": {
        "details": "See {IERC1155-safeTransferFrom}."
      },
      "setApprovalForAll(address,bool)": {
        "details": "See {IERC1155-setApprovalForAll}."
      },
      "supportsInterface(bytes4)": {
        "details": "See {IERC165-supportsInterface}."
      },
      "uri(uint256)": {
        "details": "See {IERC1155MetadataURI-uri}. This implementation returns the same URI for *all* token types. It relies on the token type ID substitution mechanism https://eips.ethereum.org/EIPS/eip-1155#metadata[defined in the EIP]. Clients calling this function must replace the `\\{id\\}` substring with the actual token type ID."
      }
    },
    "version": 1
  },
  "userdoc": {
    "kind": "user",
    "methods": {},
    "version": 1
  }
}