{
  "contractName": "Campaign",
  "abi": [
    {
      "inputs": [
        {
          "internalType": "string",
          "name": "campaignTag",
          "type": "string"
        },
        {
          "internalType": "uint256",
          "name": "initCoins",
          "type": "uint256"
        }
      ],
      "stateMutability": "nonpayable",
      "type": "constructor"
    },
    {
      "inputs": [
        {
          "internalType": "string",
          "name": "",
          "type": "string"
        },
        {
          "internalType": "string",
          "name": "",
          "type": "string"
        }
      ],
      "name": "userReward",
      "outputs": [
        {
          "internalType": "uint256",
          "name": "",
          "type": "uint256"
        }
      ],
      "stateMutability": "view",
      "type": "function"
    },
    {
      "inputs": [
        {
          "internalType": "string",
          "name": "userId",
          "type": "string"
        },
        {
          "internalType": "string",
          "name": "platform",
          "type": "string"
        },
        {
          "internalType": "uint256[]",
          "name": "data",
          "type": "uint256[]"
        }
      ],
      "name": "updateUserReward",
      "outputs": [],
      "stateMutability": "nonpayable",
      "type": "function"
    },
    {
      "inputs": [
        {
          "internalType": "string",
          "name": "userId",
          "type": "string"
        }
      ],
      "name": "getUserShare",
      "outputs": [
        {
          "internalType": "uint256",
          "name": "",
          "type": "uint256"
        }
      ],
      "stateMutability": "view",
      "type": "function"
    }
  ],
  "bytecode": "0x60806040523480156200001157600080fd5b5060405162000f8038038062000f8083398181016040528101906200003791906200016e565b336000806101000a81548173ffffffffffffffffffffffffffffffffffffffff021916908373ffffffffffffffffffffffffffffffffffffffff160217905550306001836040516200008a9190620001ff565b908152602001604051809103902060006101000a81548173ffffffffffffffffffffffffffffffffffffffff021916908373ffffffffffffffffffffffffffffffffffffffff1602179055508060098190555050506200035d565b6000620000fc620000f68462000241565b62000218565b9050828152602081018484840111156200011557600080fd5b6200012284828562000297565b509392505050565b600082601f8301126200013c57600080fd5b81516200014e848260208601620000e5565b91505092915050565b600081519050620001688162000343565b92915050565b600080604083850312156200018257600080fd5b600083015167ffffffffffffffff8111156200019d57600080fd5b620001ab858286016200012a565b9250506020620001be8582860162000157565b9150509250929050565b6000620001d58262000277565b620001e1818562000282565b9350620001f381856020860162000297565b80840191505092915050565b60006200020d8284620001c8565b915081905092915050565b60006200022462000237565b9050620002328282620002cd565b919050565b6000604051905090565b600067ffffffffffffffff8211156200025f576200025e62000303565b5b6200026a8262000332565b9050602081019050919050565b600081519050919050565b600081905092915050565b6000819050919050565b60005b83811015620002b75780820151818401526020810190506200029a565b83811115620002c7576000848401525b50505050565b620002d88262000332565b810181811067ffffffffffffffff82111715620002fa57620002f962000303565b5b80604052505050565b7f4e487b7100000000000000000000000000000000000000000000000000000000600052604160045260246000fd5b6000601f19601f8301169050919050565b6200034e816200028d565b81146200035a57600080fd5b50565b610c13806200036d6000396000f3fe608060405234801561001057600080fd5b50600436106100415760003560e01c80633604a8d51461004657806398f9a62014610076578063a3282e48146100a6575b600080fd5b610060600480360381019061005b9190610577565b6100c2565b60405161006d9190610821565b60405180910390f35b610090600480360381019061008b9190610536565b610113565b60405161009d9190610821565b60405180910390f35b6100c060048036038101906100bb91906105e3565b6101fa565b005b600a8280516020810182018051848252602083016020850120818352809550505050505081805160208101820180518482526020830160208501208183528095505050505050600091509150505481565b600080600a83604051610126919061078c565b9081526020016040518091039020604051610140906107f7565b908152602001604051809103902054600a8460405161015f919061078c565b90815260200160405180910390206040516101799061080c565b908152602001604051809103902054600a85604051610198919061078c565b90815260200160405180910390206040516101b2906107e2565b9081526020016040518091039020546101cb91906108d4565b6101d591906108d4565b9050600954600854826101e8919061092a565b6101f2919061095b565b915050919050565b600060038360405161020c919061078c565b9081526020016040518091039020604051610226906107b8565b9081526020016040518091039020548260008151811061026f577f4e487b7100000000000000000000000000000000000000000000000000000000600052603260045260246000fd5b6020026020010151610281919061095b565b90506000600384604051610295919061078c565b90815260200160405180910390206040516102af906107cd565b908152602001604051809103902054836001815181106102f8577f4e487b7100000000000000000000000000000000000000000000000000000000600052603260045260246000fd5b602002602001015161030a919061095b565b9050600060038560405161031e919061078c565b9081526020016040518091039020604051610338906107a3565b90815260200160405180910390205484600281518110610381577f4e487b7100000000000000000000000000000000000000000000000000000000600052603260045260246000fd5b6020026020010151610393919061095b565b905060008183856103a491906108d4565b6103ae91906108d4565b905080600a886040516103c1919061078c565b9081526020016040518091039020876040516103dd919061078c565b908152602001604051809103902060008282546103fa91906108d4565b92505081905550806008600082825461041391906108d4565b9250508190555050505050505050565b600061043661043184610861565b61083c565b9050808382526020820190508285602086028201111561045557600080fd5b60005b85811015610485578161046b8882610521565b845260208401935060208301925050600181019050610458565b5050509392505050565b60006104a261049d8461088d565b61083c565b9050828152602081018484840111156104ba57600080fd5b6104c58482856109bf565b509392505050565b600082601f8301126104de57600080fd5b81356104ee848260208601610423565b91505092915050565b600082601f83011261050857600080fd5b813561051884826020860161048f565b91505092915050565b60008135905061053081610bc6565b92915050565b60006020828403121561054857600080fd5b600082013567ffffffffffffffff81111561056257600080fd5b61056e848285016104f7565b91505092915050565b6000806040838503121561058a57600080fd5b600083013567ffffffffffffffff8111156105a457600080fd5b6105b0858286016104f7565b925050602083013567ffffffffffffffff8111156105cd57600080fd5b6105d9858286016104f7565b9150509250929050565b6000806000606084860312156105f857600080fd5b600084013567ffffffffffffffff81111561061257600080fd5b61061e868287016104f7565b935050602084013567ffffffffffffffff81111561063b57600080fd5b610647868287016104f7565b925050604084013567ffffffffffffffff81111561066457600080fd5b610670868287016104cd565b9150509250925092565b6000610685826108be565b61068f81856108c9565b935061069f8185602086016109ce565b80840191505092915050565b60006106b86006836108c9565b91506106c382610ad0565b600682019050919050565b60006106db6005836108c9565b91506106e682610af9565b600582019050919050565b60006106fe6008836108c9565b915061070982610b22565b600882019050919050565b60006107216007836108c9565b915061072c82610b4b565b600782019050919050565b60006107446009836108c9565b915061074f82610b74565b600982019050919050565b60006107676008836108c9565b915061077282610b9d565b600882019050919050565b610786816109b5565b82525050565b6000610798828461067a565b915081905092915050565b60006107ae826106ab565b9150819050919050565b60006107c3826106ce565b9150819050919050565b60006107d8826106f1565b9150819050919050565b60006107ed82610714565b9150819050919050565b600061080282610737565b9150819050919050565b60006108178261075a565b9150819050919050565b6000602082019050610836600083018461077d565b92915050565b6000610846610857565b90506108528282610a01565b919050565b6000604051905090565b600067ffffffffffffffff82111561087c5761087b610a90565b5b602082029050602081019050919050565b600067ffffffffffffffff8211156108a8576108a7610a90565b5b6108b182610abf565b9050602081019050919050565b600081519050919050565b600081905092915050565b60006108df826109b5565b91506108ea836109b5565b9250827fffffffffffffffffffffffffffffffffffffffffffffffffffffffffffffffff0382111561091f5761091e610a32565b5b828201905092915050565b6000610935826109b5565b9150610940836109b5565b9250826109505761094f610a61565b5b828204905092915050565b6000610966826109b5565b9150610971836109b5565b9250817fffffffffffffffffffffffffffffffffffffffffffffffffffffffffffffffff04831182151516156109aa576109a9610a32565b5b828202905092915050565b6000819050919050565b82818337600083830152505050565b60005b838110156109ec5780820151818401526020810190506109d1565b838111156109fb576000848401525b50505050565b610a0a82610abf565b810181811067ffffffffffffffff82111715610a2957610a28610a90565b5b80604052505050565b7f4e487b7100000000000000000000000000000000000000000000000000000000600052601160045260246000fd5b7f4e487b7100000000000000000000000000000000000000000000000000000000600052601260045260246000fd5b7f4e487b7100000000000000000000000000000000000000000000000000000000600052604160045260246000fd5b6000601f19601f8301169050919050565b7f6f74686572730000000000000000000000000000000000000000000000000000600082015250565b7f6c696b6573000000000000000000000000000000000000000000000000000000600082015250565b7f636f6d6d656e7473000000000000000000000000000000000000000000000000600082015250565b7f7477697474657200000000000000000000000000000000000000000000000000600082015250565b7f696e7374616772616d0000000000000000000000000000000000000000000000600082015250565b7f66616365626f6f6b000000000000000000000000000000000000000000000000600082015250565b610bcf816109b5565b8114610bda57600080fd5b5056fea2646970667358221220b32f72da50819e3a9db5d9b78e2c26affe20ddbb6d9d04aa2c0283c6fe2c5a4c64736f6c63430008010033",
  "immutableReferences": {},
  "source": "// SPDX-License-Identifier: MIT\npragma solidity ^0.8.0;\nimport \"./SocialMedia.sol\";\n\ncontract Campaign is SocialMedia{\n    address CampaignOwner;\n    uint256 private totalEngagement;\n    uint256 private coinsAvailable;\n\n    constructor(string memory campaignTag,uint initCoins){\n        SocialMedia.campaigns[campaignTag]=address(this);\n        coinsAvailable=initCoins;\n    }\n\n    mapping(string=>mapping(string=>uint256)) public userReward;\n\n\n    function updateUserReward(string memory userId, string memory platform, uint256[] memory data) public{\n        uint256 likeReward=data[0]*SocialMedia.individualWeightMatrix[platform][\"likes\"];\n        uint256 commentReward=data[1]*SocialMedia.individualWeightMatrix[platform][\"comments\"];\n        uint256 otherReward=data[2]*SocialMedia.individualWeightMatrix[platform][\"others\"];\n\n        uint256 totalUserReward=likeReward+commentReward+otherReward;\n        userReward[userId][platform]+=totalUserReward;\n\n        totalEngagement+=totalUserReward;\n    }\n\n    function getUserShare(string memory userId) public view returns (uint256){\n        uint256 totalUserEngagement= userReward[userId][\"twitter\"]+userReward[userId][\"facebook\"]+userReward[userId][\"instagram\"];\n        return (totalUserEngagement/totalEngagement)*coinsAvailable;\n    }\n}",
  "sourcePath": "/Users/ayush/Desktop/ProperT/contracts/Campaign.sol",
  "compiler": {
    "name": "solc",
    "version": "0.8.1+commit.df193b15.Emscripten.clang"
  },
  "schemaVersion": "3.4.2",
  "updatedAt": "2022-01-12T15:32:12.530Z",
  "devdoc": {
    "kind": "dev",
    "methods": {},
    "version": 1
  },
  "userdoc": {
    "kind": "user",
    "methods": {},
    "version": 1
  }
}