{
  "contractName": "LandRent",
  "abi": [
    {
      "inputs": [],
      "stateMutability": "nonpayable",
      "type": "constructor"
    },
    {
      "anonymous": false,
      "inputs": [
        {
          "indexed": true,
          "internalType": "address",
          "name": "owner",
          "type": "address"
        },
        {
          "indexed": true,
          "internalType": "address",
          "name": "approved",
          "type": "address"
        },
        {
          "indexed": true,
          "internalType": "uint256",
          "name": "tokenId",
          "type": "uint256"
        }
      ],
      "name": "Approval",
      "type": "event"
    },
    {
      "anonymous": false,
      "inputs": [
        {
          "indexed": true,
          "internalType": "address",
          "name": "owner",
          "type": "address"
        },
        {
          "indexed": true,
          "internalType": "address",
          "name": "operator",
          "type": "address"
        },
        {
          "indexed": false,
          "internalType": "bool",
          "name": "approved",
          "type": "bool"
        }
      ],
      "name": "ApprovalForAll",
      "type": "event"
    },
    {
      "anonymous": false,
      "inputs": [
        {
          "indexed": true,
          "internalType": "address",
          "name": "from",
          "type": "address"
        },
        {
          "indexed": true,
          "internalType": "address",
          "name": "to",
          "type": "address"
        },
        {
          "indexed": true,
          "internalType": "uint256",
          "name": "tokenId",
          "type": "uint256"
        }
      ],
      "name": "Transfer",
      "type": "event"
    },
    {
      "anonymous": false,
      "inputs": [],
      "name": "e1",
      "type": "event"
    },
    {
      "anonymous": false,
      "inputs": [],
      "name": "e2",
      "type": "event"
    },
    {
      "anonymous": false,
      "inputs": [],
      "name": "e3",
      "type": "event"
    },
    {
      "anonymous": false,
      "inputs": [],
      "name": "e4",
      "type": "event"
    },
    {
      "anonymous": false,
      "inputs": [
        {
          "indexed": false,
          "internalType": "bytes32",
          "name": "",
          "type": "bytes32"
        },
        {
          "indexed": false,
          "internalType": "string",
          "name": "",
          "type": "string"
        }
      ],
      "name": "tokenCreated",
      "type": "event"
    },
    {
      "inputs": [],
      "name": "TOTAL_LAND",
      "outputs": [
        {
          "internalType": "uint256",
          "name": "",
          "type": "uint256"
        }
      ],
      "stateMutability": "view",
      "type": "function"
    },
    {
      "inputs": [
        {
          "internalType": "uint256",
          "name": "",
          "type": "uint256"
        }
      ],
      "name": "allUsers",
      "outputs": [
        {
          "internalType": "address",
          "name": "",
          "type": "address"
        }
      ],
      "stateMutability": "view",
      "type": "function"
    },
    {
      "inputs": [
        {
          "internalType": "address",
          "name": "to",
          "type": "address"
        },
        {
          "internalType": "uint256",
          "name": "tokenId",
          "type": "uint256"
        }
      ],
      "name": "approve",
      "outputs": [],
      "stateMutability": "nonpayable",
      "type": "function"
    },
    {
      "inputs": [
        {
          "internalType": "address",
          "name": "owner",
          "type": "address"
        }
      ],
      "name": "balanceOf",
      "outputs": [
        {
          "internalType": "uint256",
          "name": "",
          "type": "uint256"
        }
      ],
      "stateMutability": "view",
      "type": "function"
    },
    {
      "inputs": [
        {
          "internalType": "address",
          "name": "",
          "type": "address"
        },
        {
          "internalType": "uint256",
          "name": "",
          "type": "uint256"
        }
      ],
      "name": "boostsOfUser",
      "outputs": [
        {
          "internalType": "uint256",
          "name": "",
          "type": "uint256"
        }
      ],
      "stateMutability": "view",
      "type": "function"
    },
    {
      "inputs": [
        {
          "internalType": "uint256",
          "name": "tokenId",
          "type": "uint256"
        }
      ],
      "name": "getApproved",
      "outputs": [
        {
          "internalType": "address",
          "name": "",
          "type": "address"
        }
      ],
      "stateMutability": "view",
      "type": "function"
    },
    {
      "inputs": [],
      "name": "getTotalSupply",
      "outputs": [
        {
          "internalType": "uint256",
          "name": "",
          "type": "uint256"
        }
      ],
      "stateMutability": "view",
      "type": "function"
    },
    {
      "inputs": [
        {
          "internalType": "address",
          "name": "owner",
          "type": "address"
        },
        {
          "internalType": "address",
          "name": "operator",
          "type": "address"
        }
      ],
      "name": "isApprovedForAll",
      "outputs": [
        {
          "internalType": "bool",
          "name": "",
          "type": "bool"
        }
      ],
      "stateMutability": "view",
      "type": "function"
    },
    {
      "inputs": [
        {
          "internalType": "address",
          "name": "",
          "type": "address"
        }
      ],
      "name": "landOfUser",
      "outputs": [
        {
          "internalType": "uint256",
          "name": "",
          "type": "uint256"
        }
      ],
      "stateMutability": "view",
      "type": "function"
    },
    {
      "inputs": [
        {
          "internalType": "uint256",
          "name": "x",
          "type": "uint256"
        },
        {
          "internalType": "uint256",
          "name": "y",
          "type": "uint256"
        },
        {
          "internalType": "string",
          "name": "cost",
          "type": "string"
        },
        {
          "internalType": "string",
          "name": "hashG",
          "type": "string"
        },
        {
          "internalType": "string",
          "name": "_tokenURI",
          "type": "string"
        }
      ],
      "name": "mint",
      "outputs": [],
      "stateMutability": "nonpayable",
      "type": "function"
    },
    {
      "inputs": [],
      "name": "name",
      "outputs": [
        {
          "internalType": "string",
          "name": "",
          "type": "string"
        }
      ],
      "stateMutability": "view",
      "type": "function"
    },
    {
      "inputs": [
        {
          "internalType": "uint256",
          "name": "tokenId",
          "type": "uint256"
        }
      ],
      "name": "ownerOf",
      "outputs": [
        {
          "internalType": "address",
          "name": "",
          "type": "address"
        }
      ],
      "stateMutability": "view",
      "type": "function"
    },
    {
      "inputs": [
        {
          "internalType": "address",
          "name": "from",
          "type": "address"
        },
        {
          "internalType": "address",
          "name": "to",
          "type": "address"
        },
        {
          "internalType": "uint256",
          "name": "tokenId",
          "type": "uint256"
        }
      ],
      "name": "safeTransferFrom",
      "outputs": [],
      "stateMutability": "nonpayable",
      "type": "function"
    },
    {
      "inputs": [
        {
          "internalType": "address",
          "name": "from",
          "type": "address"
        },
        {
          "internalType": "address",
          "name": "to",
          "type": "address"
        },
        {
          "internalType": "uint256",
          "name": "tokenId",
          "type": "uint256"
        },
        {
          "internalType": "bytes",
          "name": "_data",
          "type": "bytes"
        }
      ],
      "name": "safeTransferFrom",
      "outputs": [],
      "stateMutability": "nonpayable",
      "type": "function"
    },
    {
      "inputs": [
        {
          "internalType": "address",
          "name": "operator",
          "type": "address"
        },
        {
          "internalType": "bool",
          "name": "approved",
          "type": "bool"
        }
      ],
      "name": "setApprovalForAll",
      "outputs": [],
      "stateMutability": "nonpayable",
      "type": "function"
    },
    {
      "inputs": [
        {
          "internalType": "bytes4",
          "name": "interfaceId",
          "type": "bytes4"
        }
      ],
      "name": "supportsInterface",
      "outputs": [
        {
          "internalType": "bool",
          "name": "",
          "type": "bool"
        }
      ],
      "stateMutability": "view",
      "type": "function"
    },
    {
      "inputs": [],
      "name": "symbol",
      "outputs": [
        {
          "internalType": "string",
          "name": "",
          "type": "string"
        }
      ],
      "stateMutability": "view",
      "type": "function"
    },
    {
      "inputs": [
        {
          "internalType": "uint256",
          "name": "tokenId",
          "type": "uint256"
        }
      ],
      "name": "tokenURI",
      "outputs": [
        {
          "internalType": "string",
          "name": "",
          "type": "string"
        }
      ],
      "stateMutability": "view",
      "type": "function"
    },
    {
      "inputs": [],
      "name": "totalNFT",
      "outputs": [
        {
          "internalType": "uint256",
          "name": "",
          "type": "uint256"
        }
      ],
      "stateMutability": "view",
      "type": "function"
    },
    {
      "inputs": [
        {
          "internalType": "address",
          "name": "from",
          "type": "address"
        },
        {
          "internalType": "address",
          "name": "to",
          "type": "address"
        },
        {
          "internalType": "uint256",
          "name": "tokenId",
          "type": "uint256"
        }
      ],
      "name": "transferFrom",
      "outputs": [],
      "stateMutability": "nonpayable",
      "type": "function"
    },
    {
      "inputs": [
        {
          "internalType": "uint256",
          "name": "tokenId",
          "type": "uint256"
        },
        {
          "internalType": "string",
          "name": "_newURI",
          "type": "string"
        }
      ],
      "name": "updateTokenURI",
      "outputs": [],
      "stateMutability": "nonpayable",
      "type": "function"
    },
    {
      "inputs": [
        {
          "internalType": "address",
          "name": "user",
          "type": "address"
        }
      ],
      "name": "getMaxBoost",
      "outputs": [
        {
          "internalType": "uint256",
          "name": "",
          "type": "uint256"
        }
      ],
      "stateMutability": "view",
      "type": "function"
    },
    {
      "inputs": [],
      "name": "startCollection",
      "outputs": [],
      "stateMutability": "nonpayable",
      "type": "function"
    },
    {
      "inputs": [],
      "name": "stopCollection",
      "outputs": [],
      "stateMutability": "nonpayable",
      "type": "function"
    },
    {
      "inputs": [],
      "name": "updateVirtualLand",
      "outputs": [],
      "stateMutability": "nonpayable",
      "type": "function"
    },
    {
      "inputs": [],
      "name": "distributeRent",
      "outputs": [],
      "stateMutability": "nonpayable",
      "type": "function"
    },
    {
      "inputs": [],
      "name": "collectRent",
      "outputs": [],
      "stateMutability": "payable",
      "type": "function"
    }
  ],
  "bytecode": "0x608060405260006007556107d06008556000600f60006101000a81548160ff02191690831515021790555060085460105560006011553480156200004257600080fd5b506040518060400160405280600781526020017f50726f70657254000000000000000000000000000000000000000000000000008152506040518060400160405280600381526020017f50525400000000000000000000000000000000000000000000000000000000008152508160009080519060200190620000c79291906200016b565b508060019080519060200190620000e09291906200016b565b50505033600960006101000a81548173ffffffffffffffffffffffffffffffffffffffff021916908373ffffffffffffffffffffffffffffffffffffffff16021790555033600f60016101000a81548173ffffffffffffffffffffffffffffffffffffffff021916908373ffffffffffffffffffffffffffffffffffffffff16021790555062000280565b82805462000179906200021b565b90600052602060002090601f0160209004810192826200019d5760008555620001e9565b82601f10620001b857805160ff1916838001178555620001e9565b82800160010185558215620001e9579182015b82811115620001e8578251825591602001919060010190620001cb565b5b509050620001f89190620001fc565b5090565b5b8082111562000217576000816000905550600101620001fd565b5090565b600060028204905060018216806200023457607f821691505b602082108114156200024b576200024a62000251565b5b50919050565b7f4e487b7100000000000000000000000000000000000000000000000000000000600052602260045260246000fd5b613c8480620002906000396000f3fe60806040526004361061019b5760003560e01c80636352211e116100ec578063b88d4fde1161008a578063c87b56dd11610064578063c87b56dd1461057e578063da11d675146105bb578063e985e9c5146105e4578063f211c3d0146106215761019b565b8063b88d4fde146104ed578063bc06a6ce14610516578063c4e41b22146105535761019b565b806395d89b41116100c657806395d89b4114610445578063a22cb46514610470578063a29dd13a14610499578063a2bdedf4146104b05761019b565b80636352211e146103b457806370a08231146103f15780638d49da751461042e5761019b565b8063085a1daa1161015957806318e97fd11161013357806318e97fd11461032f57806323b872dd146103585780632e7e46a91461038157806342842e0e1461038b5761019b565b8063085a1daa146102c4578063095ea7b3146102db57806317be6bc1146103045761019b565b8062456379146101a057806301ffc9a7146101cb5780630293c8f61461020857806306c60b6e1461021f57806306fdde031461025c578063081812fc14610287575b600080fd5b3480156101ac57600080fd5b506101b561065e565b6040516101c29190613207565b60405180910390f35b3480156101d757600080fd5b506101f260048036038101906101ed9190612882565b610664565b6040516101ff9190612f4a565b60405180910390f35b34801561021457600080fd5b5061021d610746565b005b34801561022b57600080fd5b5061024660048036038101906102419190612846565b61092d565b6040516102539190613207565b60405180910390f35b34801561026857600080fd5b5061027161095e565b60405161027e9190612f65565b60405180910390f35b34801561029357600080fd5b506102ae60048036038101906102a991906128d4565b6109f0565b6040516102bb9190612ee3565b60405180910390f35b3480156102d057600080fd5b506102d9610a75565b005b3480156102e757600080fd5b5061030260048036038101906102fd9190612846565b610b22565b005b34801561031057600080fd5b50610319610c3a565b6040516103269190613207565b60405180910390f35b34801561033b57600080fd5b50610356600480360381019061035191906128fd565b610c40565b005b34801561036457600080fd5b5061037f600480360381019061037a9190612740565b610cc4565b005b610389610d24565b005b34801561039757600080fd5b506103b260048036038101906103ad9190612740565b610e10565b005b3480156103c057600080fd5b506103db60048036038101906103d691906128d4565b610e30565b6040516103e89190612ee3565b60405180910390f35b3480156103fd57600080fd5b50610418600480360381019061041391906126db565b610ee2565b6040516104259190613207565b60405180910390f35b34801561043a57600080fd5b50610443610f9a565b005b34801561045157600080fd5b5061045a611047565b6040516104679190612f65565b60405180910390f35b34801561047c57600080fd5b506104976004803603810190610492919061280a565b6110d9565b005b3480156104a557600080fd5b506104ae61125a565b005b3480156104bc57600080fd5b506104d760048036038101906104d291906128d4565b611387565b6040516104e49190612ee3565b60405180910390f35b3480156104f957600080fd5b50610514600480360381019061050f919061278f565b6113c6565b005b34801561052257600080fd5b5061053d600480360381019061053891906126db565b611428565b60405161054a9190613207565b60405180910390f35b34801561055f57600080fd5b50610568611440565b6040516105759190613207565b60405180910390f35b34801561058a57600080fd5b506105a560048036038101906105a091906128d4565b61144a565b6040516105b29190612f65565b60405180910390f35b3480156105c757600080fd5b506105e260048036038101906105dd9190612951565b61145c565b005b3480156105f057600080fd5b5061060b60048036038101906106069190612704565b611560565b6040516106189190612f4a565b60405180910390f35b34801561062d57600080fd5b50610648600480360381019061064391906126db565b6115f4565b6040516106559190613207565b60405180910390f35b60075481565b60007f80ac58cd000000000000000000000000000000000000000000000000000000007bffffffffffffffffffffffffffffffffffffffffffffffffffffffff1916827bffffffffffffffffffffffffffffffffffffffffffffffffffffffff1916148061072f57507f5b5e139f000000000000000000000000000000000000000000000000000000007bffffffffffffffffffffffffffffffffffffffffffffffffffffffff1916827bffffffffffffffffffffffffffffffffffffffffffffffffffffffff1916145b8061073f575061073e82611743565b5b9050919050565b600f60019054906101000a900473ffffffffffffffffffffffffffffffffffffffff1673ffffffffffffffffffffffffffffffffffffffff163373ffffffffffffffffffffffffffffffffffffffff16146107d6576040517f08c379a00000000000000000000000000000000000000000000000000000000081526004016107cd90613107565b60405180910390fd5b600047905060005b600c80549050811015610929576000600c8281548110610827577f4e487b7100000000000000000000000000000000000000000000000000000000600052603260045260246000fd5b9060005260206000200160009054906101000a900473ffffffffffffffffffffffffffffffffffffffff16905060006108bc846108ae601154600b60008773ffffffffffffffffffffffffffffffffffffffff1673ffffffffffffffffffffffffffffffffffffffff168152602001908152602001600020546117ad90919063ffffffff16565b6117c390919063ffffffff16565b905080600e60008473ffffffffffffffffffffffffffffffffffffffff1673ffffffffffffffffffffffffffffffffffffffff168152602001908152602001600020600082825461090d919061330c565b92505081905550505080806109219061353a565b9150506107de565b5050565b600a602052816000526040600020818154811061094957600080fd5b90600052602060002001600091509150505481565b60606000805461096d906134d7565b80601f0160208091040260200160405190810160405280929190818152602001828054610999906134d7565b80156109e65780601f106109bb576101008083540402835291602001916109e6565b820191906000526020600020905b8154815290600101906020018083116109c957829003601f168201915b5050505050905090565b60006109fb826117d9565b610a3a576040517f08c379a0000000000000000000000000000000000000000000000000000000008152600401610a3190613127565b60405180910390fd5b6004600083815260200190815260200160002060009054906101000a900473ffffffffffffffffffffffffffffffffffffffff169050919050565b600f60019054906101000a900473ffffffffffffffffffffffffffffffffffffffff1673ffffffffffffffffffffffffffffffffffffffff163373ffffffffffffffffffffffffffffffffffffffff1614610b05576040517f08c379a0000000000000000000000000000000000000000000000000000000008152600401610afc90613107565b60405180910390fd5b6001600f60006101000a81548160ff021916908315150217905550565b6000610b2d82610e30565b90508073ffffffffffffffffffffffffffffffffffffffff168373ffffffffffffffffffffffffffffffffffffffff161415610b9e576040517f08c379a0000000000000000000000000000000000000000000000000000000008152600401610b9590613187565b60405180910390fd5b8073ffffffffffffffffffffffffffffffffffffffff16610bbd611845565b73ffffffffffffffffffffffffffffffffffffffff161480610bec5750610beb81610be6611845565b611560565b5b610c2b576040517f08c379a0000000000000000000000000000000000000000000000000000000008152600401610c2290613027565b60405180910390fd5b610c35838361184d565b505050565b60085481565b610c4982610e30565b73ffffffffffffffffffffffffffffffffffffffff163373ffffffffffffffffffffffffffffffffffffffff1614610cb6576040517f08c379a0000000000000000000000000000000000000000000000000000000008152600401610cad906131a7565b60405180910390fd5b610cc08282611906565b5050565b610cd5610ccf611845565b8261197a565b610d14576040517f08c379a0000000000000000000000000000000000000000000000000000000008152600401610d0b906131c7565b60405180910390fd5b610d1f838383611a58565b505050565b60011515600f60009054906101000a900460ff16151514610d7a576040517f08c379a0000000000000000000000000000000000000000000000000000000008152600401610d71906130a7565b60405180910390fd5b6000339050610dc881600e60008473ffffffffffffffffffffffffffffffffffffffff1673ffffffffffffffffffffffffffffffffffffffff16815260200190815260200160002054611cb4565b6000600e60008373ffffffffffffffffffffffffffffffffffffffff1673ffffffffffffffffffffffffffffffffffffffff1681526020019081526020016000208190555050565b610e2b838383604051806020016040528060008152506113c6565b505050565b6000806002600084815260200190815260200160002060009054906101000a900473ffffffffffffffffffffffffffffffffffffffff169050600073ffffffffffffffffffffffffffffffffffffffff168173ffffffffffffffffffffffffffffffffffffffff161415610ed9576040517f08c379a0000000000000000000000000000000000000000000000000000000008152600401610ed090613067565b60405180910390fd5b80915050919050565b60008073ffffffffffffffffffffffffffffffffffffffff168273ffffffffffffffffffffffffffffffffffffffff161415610f53576040517f08c379a0000000000000000000000000000000000000000000000000000000008152600401610f4a90613047565b60405180910390fd5b600360008373ffffffffffffffffffffffffffffffffffffffff1673ffffffffffffffffffffffffffffffffffffffff168152602001908152602001600020549050919050565b600f60019054906101000a900473ffffffffffffffffffffffffffffffffffffffff1673ffffffffffffffffffffffffffffffffffffffff163373ffffffffffffffffffffffffffffffffffffffff161461102a576040517f08c379a000000000000000000000000000000000000000000000000000000000815260040161102190613107565b60405180910390fd5b6000600f60006101000a81548160ff021916908315150217905550565b606060018054611056906134d7565b80601f0160208091040260200160405190810160405280929190818152602001828054611082906134d7565b80156110cf5780601f106110a4576101008083540402835291602001916110cf565b820191906000526020600020905b8154815290600101906020018083116110b257829003601f168201915b5050505050905090565b6110e1611845565b73ffffffffffffffffffffffffffffffffffffffff168273ffffffffffffffffffffffffffffffffffffffff16141561114f576040517f08c379a000000000000000000000000000000000000000000000000000000000815260040161114690612fe7565b60405180910390fd5b806005600061115c611845565b73ffffffffffffffffffffffffffffffffffffffff1673ffffffffffffffffffffffffffffffffffffffff16815260200190815260200160002060008473ffffffffffffffffffffffffffffffffffffffff1673ffffffffffffffffffffffffffffffffffffffff16815260200190815260200160002060006101000a81548160ff0219169083151502179055508173ffffffffffffffffffffffffffffffffffffffff16611209611845565b73ffffffffffffffffffffffffffffffffffffffff167f17307eab39ab6107e8899845ad3d59bd9653f200f220920489ca2b5937696c318360405161124e9190612f4a565b60405180910390a35050565b60005b600c80549050811015611384576000600c82815481106112a6577f4e487b7100000000000000000000000000000000000000000000000000000000600052603260045260246000fd5b9060005260206000200160009054906101000a900473ffffffffffffffffffffffffffffffffffffffff16905060006112de826115f4565b90506000600b60008473ffffffffffffffffffffffffffffffffffffffff1673ffffffffffffffffffffffffffffffffffffffff168152602001908152602001600020549050611356600161133d6064856117ad90919063ffffffff16565b611347919061330c565b826117c390919063ffffffff16565b60116000828254611367919061330c565b92505081905550505050808061137c9061353a565b91505061125d565b50565b600c818154811061139757600080fd5b906000526020600020016000915054906101000a900473ffffffffffffffffffffffffffffffffffffffff1681565b6113d76113d1611845565b8361197a565b611416576040517f08c379a000000000000000000000000000000000000000000000000000000000815260040161140d906131c7565b60405180910390fd5b61142284848484611d69565b50505050565b600b6020528060005260406000206000915090505481565b6000600754905090565b606061145582611dc5565b9050919050565b60016007600082825461146f919061330c565b92505081905550600083600d60405160200161148c929190612eaa565b604051602081830303815290604052905060006003826040516114af9190612e6f565b602060405180830381855afa1580156114cc573d6000803e3d6000fd5b5050506040515160601b6bffffffffffffffffffffffff191690506114f333600754611f17565b7f56800b5260512456b844fc9371dbdb10a629694349bc1829c0518bc84861b0c160405160405180910390a161152b60075484611906565b7f79e5f05486520ee227978e44df5013b958eb8b7c4045fd17db1c8f340f2c361160405160405180910390a150505050505050565b6000600560008473ffffffffffffffffffffffffffffffffffffffff1673ffffffffffffffffffffffffffffffffffffffff16815260200190815260200160002060008373ffffffffffffffffffffffffffffffffffffffff1673ffffffffffffffffffffffffffffffffffffffff16815260200190815260200160002060009054906101000a900460ff16905092915050565b600080600090506000600a60008573ffffffffffffffffffffffffffffffffffffffff1673ffffffffffffffffffffffffffffffffffffffff16815260200190815260200160002080548060200260200160405190810160405280929190818152602001828054801561168657602002820191906000526020600020905b815481526020019060010190808311611672575b5050505050905060005b815181101561173857828282815181106116d3577f4e487b7100000000000000000000000000000000000000000000000000000000600052603260045260246000fd5b602002602001015111156117255781818151811061171a577f4e487b7100000000000000000000000000000000000000000000000000000000600052603260045260246000fd5b602002602001015192505b80806117309061353a565b915050611690565b508192505050919050565b60007f01ffc9a7000000000000000000000000000000000000000000000000000000007bffffffffffffffffffffffffffffffffffffffffffffffffffffffff1916827bffffffffffffffffffffffffffffffffffffffffffffffffffffffff1916149050919050565b600081836117bb9190613362565b905092915050565b600081836117d19190613393565b905092915050565b60008073ffffffffffffffffffffffffffffffffffffffff166002600084815260200190815260200160002060009054906101000a900473ffffffffffffffffffffffffffffffffffffffff1673ffffffffffffffffffffffffffffffffffffffff1614159050919050565b600033905090565b816004600083815260200190815260200160002060006101000a81548173ffffffffffffffffffffffffffffffffffffffff021916908373ffffffffffffffffffffffffffffffffffffffff160217905550808273ffffffffffffffffffffffffffffffffffffffff166118c083610e30565b73ffffffffffffffffffffffffffffffffffffffff167f8c5be1e5ebec7d5bd14f71427d1e84f3dd0314c0f7b2291e5b200ac8c7c3b92560405160405180910390a45050565b61190f826117d9565b61194e576040517f08c379a000000000000000000000000000000000000000000000000000000000815260040161194590613087565b60405180910390fd5b806006600084815260200190815260200160002090805190602001906119759291906124ff565b505050565b6000611985826117d9565b6119c4576040517f08c379a00000000000000000000000000000000000000000000000000000000081526004016119bb90613007565b60405180910390fd5b60006119cf83610e30565b90508073ffffffffffffffffffffffffffffffffffffffff168473ffffffffffffffffffffffffffffffffffffffff161480611a3e57508373ffffffffffffffffffffffffffffffffffffffff16611a26846109f0565b73ffffffffffffffffffffffffffffffffffffffff16145b80611a4f5750611a4e8185611560565b5b91505092915050565b8273ffffffffffffffffffffffffffffffffffffffff16611a7882610e30565b73ffffffffffffffffffffffffffffffffffffffff1614611ace576040517f08c379a0000000000000000000000000000000000000000000000000000000008152600401611ac590613147565b60405180910390fd5b600073ffffffffffffffffffffffffffffffffffffffff168273ffffffffffffffffffffffffffffffffffffffff161415611b3e576040517f08c379a0000000000000000000000000000000000000000000000000000000008152600401611b3590612fc7565b60405180910390fd5b611b498383836120e5565b611b5460008261184d565b6001600360008573ffffffffffffffffffffffffffffffffffffffff1673ffffffffffffffffffffffffffffffffffffffff1681526020019081526020016000206000828254611ba491906133ed565b925050819055506001600360008473ffffffffffffffffffffffffffffffffffffffff1673ffffffffffffffffffffffffffffffffffffffff1681526020019081526020016000206000828254611bfb919061330c565b92505081905550816002600083815260200190815260200160002060006101000a81548173ffffffffffffffffffffffffffffffffffffffff021916908373ffffffffffffffffffffffffffffffffffffffff160217905550808273ffffffffffffffffffffffffffffffffffffffff168473ffffffffffffffffffffffffffffffffffffffff167fddf252ad1be2c89b69c2b068fc378daa952ba7f163c4a11628f55a4df523b3ef60405160405180910390a4505050565b60008273ffffffffffffffffffffffffffffffffffffffff166159d883604051611cdd90612ece565b600060405180830381858888f193505050503d8060008114611d1b576040519150601f19603f3d011682016040523d82523d6000602084013e611d20565b606091505b5050905080611d64576040517f08c379a0000000000000000000000000000000000000000000000000000000008152600401611d5b906131e7565b60405180910390fd5b505050565b611d74848484611a58565b611d80848484846120ea565b611dbf576040517f08c379a0000000000000000000000000000000000000000000000000000000008152600401611db690612f87565b60405180910390fd5b50505050565b6060611dd0826117d9565b611e0f576040517f08c379a0000000000000000000000000000000000000000000000000000000008152600401611e06906130e7565b60405180910390fd5b6000600660008481526020019081526020016000208054611e2f906134d7565b80601f0160208091040260200160405190810160405280929190818152602001828054611e5b906134d7565b8015611ea85780601f10611e7d57610100808354040283529160200191611ea8565b820191906000526020600020905b815481529060010190602001808311611e8b57829003601f168201915b505050505090506000611eb9612281565b9050600081511415611ecf578192505050611f12565b600082511115611f04578082604051602001611eec929190612e86565b60405160208183030381529060405292505050611f12565b611f0d84612298565b925050505b919050565b600073ffffffffffffffffffffffffffffffffffffffff168273ffffffffffffffffffffffffffffffffffffffff161415611f87576040517f08c379a0000000000000000000000000000000000000000000000000000000008152600401611f7e906130c7565b60405180910390fd5b611f90816117d9565b15611fd0576040517f08c379a0000000000000000000000000000000000000000000000000000000008152600401611fc790612fa7565b60405180910390fd5b611fdc600083836120e5565b6001600360008473ffffffffffffffffffffffffffffffffffffffff1673ffffffffffffffffffffffffffffffffffffffff168152602001908152602001600020600082825461202c919061330c565b92505081905550816002600083815260200190815260200160002060006101000a81548173ffffffffffffffffffffffffffffffffffffffff021916908373ffffffffffffffffffffffffffffffffffffffff160217905550808273ffffffffffffffffffffffffffffffffffffffff16600073ffffffffffffffffffffffffffffffffffffffff167fddf252ad1be2c89b69c2b068fc378daa952ba7f163c4a11628f55a4df523b3ef60405160405180910390a45050565b505050565b600061210b8473ffffffffffffffffffffffffffffffffffffffff1661233f565b15612274578373ffffffffffffffffffffffffffffffffffffffff1663150b7a02612134611845565b8786866040518563ffffffff1660e01b81526004016121569493929190612efe565b602060405180830381600087803b15801561217057600080fd5b505af19250505080156121a157506040513d601f19601f8201168201806040525081019061219e91906128ab565b60015b612224573d80600081146121d1576040519150601f19603f3d011682016040523d82523d6000602084013e6121d6565b606091505b5060008151141561221c576040517f08c379a000000000000000000000000000000000000000000000000000000000815260040161221390612f87565b60405180910390fd5b805181602001fd5b63150b7a0260e01b7bffffffffffffffffffffffffffffffffffffffffffffffffffffffff1916817bffffffffffffffffffffffffffffffffffffffffffffffffffffffff191614915050612279565b600190505b949350505050565b606060405180602001604052806000815250905090565b60606122a3826117d9565b6122e2576040517f08c379a00000000000000000000000000000000000000000000000000000000081526004016122d990613167565b60405180910390fd5b60006122ec612281565b9050600081511161230c5760405180602001604052806000815250612337565b8061231684612352565b604051602001612327929190612e86565b6040516020818303038152906040525b915050919050565b600080823b905060008111915050919050565b6060600082141561239a576040518060400160405280600181526020017f300000000000000000000000000000000000000000000000000000000000000081525090506124fa565b600082905060005b600082146123cc5780806123b59061353a565b915050600a826123c59190613362565b91506123a2565b60008167ffffffffffffffff81111561240e577f4e487b7100000000000000000000000000000000000000000000000000000000600052604160045260246000fd5b6040519080825280601f01601f1916602001820160405280156124405781602001600182028036833780820191505090505b5090505b600085146124f35760018261245991906133ed565b9150600a856124689190613583565b6030612474919061330c565b60f81b8183815181106124b0577f4e487b7100000000000000000000000000000000000000000000000000000000600052603260045260246000fd5b60200101907effffffffffffffffffffffffffffffffffffffffffffffffffffffffffffff1916908160001a905350600a856124ec9190613362565b9450612444565b8093505050505b919050565b82805461250b906134d7565b90600052602060002090601f01602090048101928261252d5760008555612574565b82601f1061254657805160ff1916838001178555612574565b82800160010185558215612574579182015b82811115612573578251825591602001919060010190612558565b5b5090506125819190612585565b5090565b5b8082111561259e576000816000905550600101612586565b5090565b60006125b56125b084613247565b613222565b9050828152602081018484840111156125cd57600080fd5b6125d8848285613495565b509392505050565b60006125f36125ee84613278565b613222565b90508281526020810184848401111561260b57600080fd5b612616848285613495565b509392505050565b60008135905061262d81613bf2565b92915050565b60008135905061264281613c09565b92915050565b60008135905061265781613c20565b92915050565b60008151905061266c81613c20565b92915050565b600082601f83011261268357600080fd5b81356126938482602086016125a2565b91505092915050565b600082601f8301126126ad57600080fd5b81356126bd8482602086016125e0565b91505092915050565b6000813590506126d581613c37565b92915050565b6000602082840312156126ed57600080fd5b60006126fb8482850161261e565b91505092915050565b6000806040838503121561271757600080fd5b60006127258582860161261e565b92505060206127368582860161261e565b9150509250929050565b60008060006060848603121561275557600080fd5b60006127638682870161261e565b93505060206127748682870161261e565b9250506040612785868287016126c6565b9150509250925092565b600080600080608085870312156127a557600080fd5b60006127b38782880161261e565b94505060206127c48782880161261e565b93505060406127d5878288016126c6565b925050606085013567ffffffffffffffff8111156127f257600080fd5b6127fe87828801612672565b91505092959194509250565b6000806040838503121561281d57600080fd5b600061282b8582860161261e565b925050602061283c85828601612633565b9150509250929050565b6000806040838503121561285957600080fd5b60006128678582860161261e565b9250506020612878858286016126c6565b9150509250929050565b60006020828403121561289457600080fd5b60006128a284828501612648565b91505092915050565b6000602082840312156128bd57600080fd5b60006128cb8482850161265d565b91505092915050565b6000602082840312156128e657600080fd5b60006128f4848285016126c6565b91505092915050565b6000806040838503121561291057600080fd5b600061291e858286016126c6565b925050602083013567ffffffffffffffff81111561293b57600080fd5b6129478582860161269c565b9150509250929050565b600080600080600060a0868803121561296957600080fd5b6000612977888289016126c6565b9550506020612988888289016126c6565b945050604086013567ffffffffffffffff8111156129a557600080fd5b6129b18882890161269c565b935050606086013567ffffffffffffffff8111156129ce57600080fd5b6129da8882890161269c565b925050608086013567ffffffffffffffff8111156129f757600080fd5b612a038882890161269c565b9150509295509295909350565b612a1981613421565b82525050565b612a2881613433565b82525050565b6000612a39826132be565b612a4381856132d4565b9350612a538185602086016134a4565b612a5c81613670565b840191505092915050565b6000612a72826132be565b612a7c81856132e5565b9350612a8c8185602086016134a4565b80840191505092915050565b6000612aa3826132c9565b612aad81856132f0565b9350612abd8185602086016134a4565b612ac681613670565b840191505092915050565b6000612adc826132c9565b612ae68185613301565b9350612af68185602086016134a4565b80840191505092915050565b60008154612b0f816134d7565b612b198186613301565b94506001821660008114612b345760018114612b4557612b78565b60ff19831686528186019350612b78565b612b4e856132a9565b60005b83811015612b7057815481890152600182019150602081019050612b51565b838801955050505b50505092915050565b6000612b8e6032836132f0565b9150612b9982613681565b604082019050919050565b6000612bb1601c836132f0565b9150612bbc826136d0565b602082019050919050565b6000612bd46024836132f0565b9150612bdf826136f9565b604082019050919050565b6000612bf76019836132f0565b9150612c0282613748565b602082019050919050565b6000612c1a602c836132f0565b9150612c2582613771565b604082019050919050565b6000612c3d6038836132f0565b9150612c48826137c0565b604082019050919050565b6000612c60602a836132f0565b9150612c6b8261380f565b604082019050919050565b6000612c836029836132f0565b9150612c8e8261385e565b604082019050919050565b6000612ca6602e836132f0565b9150612cb1826138ad565b604082019050919050565b6000612cc96016836132f0565b9150612cd4826138fc565b602082019050919050565b6000612cec6020836132f0565b9150612cf782613925565b602082019050919050565b6000612d0f6031836132f0565b9150612d1a8261394e565b604082019050919050565b6000612d326015836132f0565b9150612d3d8261399d565b602082019050919050565b6000612d55602c836132f0565b9150612d60826139c6565b604082019050919050565b6000612d786029836132f0565b9150612d8382613a15565b604082019050919050565b6000612d9b602f836132f0565b9150612da682613a64565b604082019050919050565b6000612dbe6021836132f0565b9150612dc982613ab3565b604082019050919050565b6000612de16022836132f0565b9150612dec82613b02565b604082019050919050565b6000612e046000836132e5565b9150612e0f82613b51565b600082019050919050565b6000612e276031836132f0565b9150612e3282613b54565b604082019050919050565b6000612e4a6023836132f0565b9150612e5582613ba3565b604082019050919050565b612e698161348b565b82525050565b6000612e7b8284612a67565b915081905092915050565b6000612e928285612ad1565b9150612e9e8284612ad1565b91508190509392505050565b6000612eb68285612ad1565b9150612ec28284612b02565b91508190509392505050565b6000612ed982612df7565b9150819050919050565b6000602082019050612ef86000830184612a10565b92915050565b6000608082019050612f136000830187612a10565b612f206020830186612a10565b612f2d6040830185612e60565b8181036060830152612f3f8184612a2e565b905095945050505050565b6000602082019050612f5f6000830184612a1f565b92915050565b60006020820190508181036000830152612f7f8184612a98565b905092915050565b60006020820190508181036000830152612fa081612b81565b9050919050565b60006020820190508181036000830152612fc081612ba4565b9050919050565b60006020820190508181036000830152612fe081612bc7565b9050919050565b6000602082019050818103600083015261300081612bea565b9050919050565b6000602082019050818103600083015261302081612c0d565b9050919050565b6000602082019050818103600083015261304081612c30565b9050919050565b6000602082019050818103600083015261306081612c53565b9050919050565b6000602082019050818103600083015261308081612c76565b9050919050565b600060208201905081810360008301526130a081612c99565b9050919050565b600060208201905081810360008301526130c081612cbc565b9050919050565b600060208201905081810360008301526130e081612cdf565b9050919050565b6000602082019050818103600083015261310081612d02565b9050919050565b6000602082019050818103600083015261312081612d25565b9050919050565b6000602082019050818103600083015261314081612d48565b9050919050565b6000602082019050818103600083015261316081612d6b565b9050919050565b6000602082019050818103600083015261318081612d8e565b9050919050565b600060208201905081810360008301526131a081612db1565b9050919050565b600060208201905081810360008301526131c081612dd4565b9050919050565b600060208201905081810360008301526131e081612e1a565b9050919050565b6000602082019050818103600083015261320081612e3d565b9050919050565b600060208201905061321c6000830184612e60565b92915050565b600061322c61323d565b90506132388282613509565b919050565b6000604051905090565b600067ffffffffffffffff82111561326257613261613641565b5b61326b82613670565b9050602081019050919050565b600067ffffffffffffffff82111561329357613292613641565b5b61329c82613670565b9050602081019050919050565b60008190508160005260206000209050919050565b600081519050919050565b600081519050919050565b600082825260208201905092915050565b600081905092915050565b600082825260208201905092915050565b600081905092915050565b60006133178261348b565b91506133228361348b565b9250827fffffffffffffffffffffffffffffffffffffffffffffffffffffffffffffffff03821115613357576133566135b4565b5b828201905092915050565b600061336d8261348b565b91506133788361348b565b925082613388576133876135e3565b5b828204905092915050565b600061339e8261348b565b91506133a98361348b565b9250817fffffffffffffffffffffffffffffffffffffffffffffffffffffffffffffffff04831182151516156133e2576133e16135b4565b5b828202905092915050565b60006133f88261348b565b91506134038361348b565b925082821015613416576134156135b4565b5b828203905092915050565b600061342c8261346b565b9050919050565b60008115159050919050565b60007fffffffff0000000000000000000000000000000000000000000000000000000082169050919050565b600073ffffffffffffffffffffffffffffffffffffffff82169050919050565b6000819050919050565b82818337600083830152505050565b60005b838110156134c25780820151818401526020810190506134a7565b838111156134d1576000848401525b50505050565b600060028204905060018216806134ef57607f821691505b6020821081141561350357613502613612565b5b50919050565b61351282613670565b810181811067ffffffffffffffff8211171561353157613530613641565b5b80604052505050565b60006135458261348b565b91507fffffffffffffffffffffffffffffffffffffffffffffffffffffffffffffffff821415613578576135776135b4565b5b600182019050919050565b600061358e8261348b565b91506135998361348b565b9250826135a9576135a86135e3565b5b828206905092915050565b7f4e487b7100000000000000000000000000000000000000000000000000000000600052601160045260246000fd5b7f4e487b7100000000000000000000000000000000000000000000000000000000600052601260045260246000fd5b7f4e487b7100000000000000000000000000000000000000000000000000000000600052602260045260246000fd5b7f4e487b7100000000000000000000000000000000000000000000000000000000600052604160045260246000fd5b6000601f19601f8301169050919050565b7f4552433732313a207472616e7366657220746f206e6f6e20455243373231526560008201527f63656976657220696d706c656d656e7465720000000000000000000000000000602082015250565b7f4552433732313a20746f6b656e20616c7265616479206d696e74656400000000600082015250565b7f4552433732313a207472616e7366657220746f20746865207a65726f2061646460008201527f7265737300000000000000000000000000000000000000000000000000000000602082015250565b7f4552433732313a20617070726f766520746f2063616c6c657200000000000000600082015250565b7f4552433732313a206f70657261746f7220717565727920666f72206e6f6e657860008201527f697374656e7420746f6b656e0000000000000000000000000000000000000000602082015250565b7f4552433732313a20617070726f76652063616c6c6572206973206e6f74206f7760008201527f6e6572206e6f7220617070726f76656420666f7220616c6c0000000000000000602082015250565b7f4552433732313a2062616c616e636520717565727920666f7220746865207a6560008201527f726f206164647265737300000000000000000000000000000000000000000000602082015250565b7f4552433732313a206f776e657220717565727920666f72206e6f6e657869737460008201527f656e7420746f6b656e0000000000000000000000000000000000000000000000602082015250565b7f45524337323155524953746f726167653a2055524920736574206f66206e6f6e60008201527f6578697374656e7420746f6b656e000000000000000000000000000000000000602082015250565b7f43616e277420636f6c6c6563742072656e74206e6f7700000000000000000000600082015250565b7f4552433732313a206d696e7420746f20746865207a65726f2061646472657373600082015250565b7f45524337323155524953746f726167653a2055524920717565727920666f722060008201527f6e6f6e6578697374656e7420746f6b656e000000000000000000000000000000602082015250565b7f4f6e6c79206f776e65722063616e207065726d69740000000000000000000000600082015250565b7f4552433732313a20617070726f76656420717565727920666f72206e6f6e657860008201527f697374656e7420746f6b656e0000000000000000000000000000000000000000602082015250565b7f4552433732313a207472616e73666572206f6620746f6b656e2074686174206960008201527f73206e6f74206f776e0000000000000000000000000000000000000000000000602082015250565b7f4552433732314d657461646174613a2055524920717565727920666f72206e6f60008201527f6e6578697374656e7420746f6b656e0000000000000000000000000000000000602082015250565b7f4552433732313a20617070726f76616c20746f2063757272656e74206f776e6560008201527f7200000000000000000000000000000000000000000000000000000000000000602082015250565b7f596f7520617265206e6f7420746865206f776e6572206f662074686520746f6b60008201527f656e000000000000000000000000000000000000000000000000000000000000602082015250565b50565b7f4552433732313a207472616e736665722063616c6c6572206973206e6f74206f60008201527f776e6572206e6f7220617070726f766564000000000000000000000000000000602082015250565b7f5472616e7366657248656c7065723a204554485f5452414e534645525f46414960008201527f4c45440000000000000000000000000000000000000000000000000000000000602082015250565b613bfb81613421565b8114613c0657600080fd5b50565b613c1281613433565b8114613c1d57600080fd5b50565b613c298161343f565b8114613c3457600080fd5b50565b613c408161348b565b8114613c4b57600080fd5b5056fea264697066735822122006b3e90088e9dd4173faf5dfad2732bcc99a1b53c20cd307753cd6d60106b60e64736f6c63430008010033",
  "immutableReferences": {},
  "source": "// SPDX-License-Identifier: MIT\npragma solidity ^0.8.0;\nimport \"@openzeppelin/contracts/utils/math/SafeMath.sol\";\nimport \"./MintNft.sol\";\n\ncontract LandRent is NFT{\n    using SafeMath for uint256;\n    mapping(address=>uint256) private rentAvailable;\n    bool collectRentMode=false;\n\n    address admin;\n    constructor(){\n        admin=msg.sender;\n    }\n    uint256 originalLand=NFT.TOTAL_LAND;\n    uint256 virtualLand=0;\n\n    modifier onlyAdmin{\n        require(msg.sender==admin,\"Only owner can permit\");\n        _;\n    }\n\n    function getMaxBoost(address user) public view returns(uint256){\n        uint256 maxBoost=0;\n        uint256[] memory boosts=NFT.boostsOfUser[user];\n        for(uint256 i=0;i<boosts.length;i++){\n            if(boosts[i]>maxBoost) maxBoost=boosts[i];\n        }\n        return maxBoost;\n    }\n\n    function startCollection() public onlyAdmin{\n        collectRentMode=true;\n    }\n\n    function stopCollection() public onlyAdmin{\n        collectRentMode=false;\n    }\n\n    function safeTransferEth(address to, uint256 value) private {\n        (bool success, ) = to.call{gas: 23000, value: value}(\"\");\n        // (bool success,) = to.call{value:value}(new bytes(0));\n        require(success, 'TransferHelper: ETH_TRANSFER_FAILED');\n    }\n\n    function updateVirtualLand() public {\n        for(uint256 i=0;i<NFT.allUsers.length;i++){\n            address user=NFT.allUsers[i];\n            uint256 boost=getMaxBoost(user);\n            uint256 land=NFT.landOfUser[user];\n            virtualLand+=land.mul(boost.div(100)+1);\n        }\n    }\n\n    function distributeRent() public onlyAdmin{\n        uint256 balanceAvl=address(this).balance;\n        for(uint256 i=0;i<NFT.allUsers.length;i++){\n            address user=NFT.allUsers[i];\n            uint256 rent=NFT.landOfUser[user].div(virtualLand).mul(balanceAvl);\n            rentAvailable[user]+=rent;\n        }\n    }\n\n    function collectRent() public payable{\n        require(collectRentMode==true,\"Can't collect rent now\");\n        address user=msg.sender;\n        safeTransferEth(user, rentAvailable[user]);\n        rentAvailable[user]=0;\n    }\n}",
  "sourcePath": "/Users/ayush/Desktop/ProperT/contracts/LandRent.sol",
  "compiler": {
    "name": "solc",
    "version": "0.8.1+commit.df193b15.Emscripten.clang"
  },
  "schemaVersion": "3.4.2",
  "updatedAt": "2022-01-12T17:37:01.596Z",
  "devdoc": {
    "kind": "dev",
    "methods": {
      "approve(address,uint256)": {
        "details": "See {IERC721-approve}."
      },
      "balanceOf(address)": {
        "details": "See {IERC721-balanceOf}."
      },
      "getApproved(uint256)": {
        "details": "See {IERC721-getApproved}."
      },
      "isApprovedForAll(address,address)": {
        "details": "See {IERC721-isApprovedForAll}."
      },
      "name()": {
        "details": "See {IERC721Metadata-name}."
      },
      "ownerOf(uint256)": {
        "details": "See {IERC721-ownerOf}."
      },
      "safeTransferFrom(address,address,uint256)": {
        "details": "See {IERC721-safeTransferFrom}."
      },
      "safeTransferFrom(address,address,uint256,bytes)": {
        "details": "See {IERC721-safeTransferFrom}."
      },
      "setApprovalForAll(address,bool)": {
        "details": "See {IERC721-setApprovalForAll}."
      },
      "supportsInterface(bytes4)": {
        "details": "See {IERC165-supportsInterface}."
      },
      "symbol()": {
        "details": "See {IERC721Metadata-symbol}."
      },
      "transferFrom(address,address,uint256)": {
        "details": "See {IERC721-transferFrom}."
      }
    },
    "version": 1
  },
  "userdoc": {
    "kind": "user",
    "methods": {},
    "version": 1
  }
}