{
  "contractName": "main",
  "abi": [
    {
      "inputs": [
        {
          "internalType": "contract ERC20",
          "name": "token",
          "type": "address"
        }
      ],
      "stateMutability": "nonpayable",
      "type": "constructor"
    },
    {
      "inputs": [],
      "name": "updateSupply",
      "outputs": [],
      "stateMutability": "nonpayable",
      "type": "function"
    },
    {
      "inputs": [
        {
          "internalType": "uint256",
          "name": "startBlock",
          "type": "uint256"
        },
        {
          "internalType": "uint256",
          "name": "endBlock",
          "type": "uint256"
        }
      ],
      "name": "createStakingPool",
      "outputs": [],
      "stateMutability": "nonpayable",
      "type": "function"
    },
    {
      "inputs": [],
      "name": "stake",
      "outputs": [],
      "stateMutability": "nonpayable",
      "type": "function"
    },
    {
      "inputs": [
        {
          "internalType": "uint256",
          "name": "amount",
          "type": "uint256"
        }
      ],
      "name": "withdrawToken",
      "outputs": [],
      "stateMutability": "nonpayable",
      "type": "function"
    }
  ],
  "bytecode": "0x6080604052601960035560006004553480156200001b57600080fd5b506040516200230f3803806200230f8339818101604052810190620000419190620001ae565b80600160006101000a81548173ffffffffffffffffffffffffffffffffffffffff021916908373ffffffffffffffffffffffffffffffffffffffff160217905550336000806101000a81548173ffffffffffffffffffffffffffffffffffffffff021916908373ffffffffffffffffffffffffffffffffffffffff160217905550600160009054906101000a900473ffffffffffffffffffffffffffffffffffffffff1673ffffffffffffffffffffffffffffffffffffffff166370a08231306040518263ffffffff1660e01b81526004016200011f919062000217565b60206040518083038186803b1580156200013857600080fd5b505afa1580156200014d573d6000803e3d6000fd5b505050506040513d601f19601f82011682018060405250810190620001739190620001da565b60028190555050620002ba565b600081519050620001918162000286565b92915050565b600081519050620001a881620002a0565b92915050565b600060208284031215620001c157600080fd5b6000620001d18482850162000180565b91505092915050565b600060208284031215620001ed57600080fd5b6000620001fd8482850162000197565b91505092915050565b620002118162000234565b82525050565b60006020820190506200022e600083018462000206565b92915050565b600062000241826200025c565b9050919050565b6000620002558262000234565b9050919050565b600073ffffffffffffffffffffffffffffffffffffffff82169050919050565b6000819050919050565b620002918162000248565b81146200029d57600080fd5b50565b620002ab816200027c565b8114620002b757600080fd5b50565b61204580620002ca6000396000f3fe60806040523480156200001157600080fd5b5060043610620000525760003560e01c80630c3f1f1414620000575780633a4b66f1146200006357806350baa622146200006f578063c64e93af146200008f575b600080fd5b62000061620000af565b005b6200006d620001f9565b005b6200008d600480360381019062000087919062000504565b6200027f565b005b620000ad6004803603810190620000a791906200055c565b62000313565b005b60008054906101000a900473ffffffffffffffffffffffffffffffffffffffff1673ffffffffffffffffffffffffffffffffffffffff163373ffffffffffffffffffffffffffffffffffffffff161462000140576040517f08c379a0000000000000000000000000000000000000000000000000000000008152600401620001379062000671565b60405180910390fd5b600160009054906101000a900473ffffffffffffffffffffffffffffffffffffffff1673ffffffffffffffffffffffffffffffffffffffff166370a08231306040518263ffffffff1660e01b81526004016200019d9190620005f7565b60206040518083038186803b158015620001b657600080fd5b505afa158015620001cb573d6000803e3d6000fd5b505050506040513d601f19601f82011682018060405250810190620001f1919062000530565b600281905550565b600560009054906101000a900473ffffffffffffffffffffffffffffffffffffffff1673ffffffffffffffffffffffffffffffffffffffff1663c89039c56040518163ffffffff1660e01b8152600401600060405180830381600087803b1580156200026457600080fd5b505af115801562000279573d6000803e3d6000fd5b50505050565b600560009054906101000a900473ffffffffffffffffffffffffffffffffffffffff1673ffffffffffffffffffffffffffffffffffffffff16632e1a7d4d826040518263ffffffff1660e01b8152600401620002dc919062000693565b600060405180830381600087803b158015620002f757600080fd5b505af11580156200030c573d6000803e3d6000fd5b5050505050565b60008054906101000a900473ffffffffffffffffffffffffffffffffffffffff1673ffffffffffffffffffffffffffffffffffffffff163373ffffffffffffffffffffffffffffffffffffffff1614620003a4576040517f08c379a00000000000000000000000000000000000000000000000000000000081526004016200039b9062000671565b60405180910390fd5b600160009054906101000a900473ffffffffffffffffffffffffffffffffffffffff16620003f56064620003e66003546002546200049890919063ffffffff16565b620004b090919063ffffffff16565b838360008054906101000a900473ffffffffffffffffffffffffffffffffffffffff166040516200042690620004c8565b6200043695949392919062000614565b604051809103906000f08015801562000453573d6000803e3d6000fd5b50600560006101000a81548173ffffffffffffffffffffffffffffffffffffffff021916908373ffffffffffffffffffffffffffffffffffffffff1602179055505050565b60008183620004a89190620006f9565b905092915050565b60008183620004c09190620006c1565b905092915050565b6117ae806200086283390190565b600081359050620004e78162000847565b92915050565b600081519050620004fe8162000847565b92915050565b6000602082840312156200051757600080fd5b60006200052784828501620004d6565b91505092915050565b6000602082840312156200054357600080fd5b60006200055384828501620004ed565b91505092915050565b600080604083850312156200057057600080fd5b60006200058085828601620004d6565b92505060206200059385828601620004d6565b9150509250929050565b620005a8816200075a565b82525050565b620005b98162000798565b82525050565b6000620005ce600c83620006b0565b9150620005db826200081e565b602082019050919050565b620005f1816200078e565b82525050565b60006020820190506200060e60008301846200059d565b92915050565b600060a0820190506200062b6000830188620005ae565b6200063a6020830187620005e6565b620006496040830186620005e6565b620006586060830185620005e6565b6200066760808301846200059d565b9695505050505050565b600060208201905081810360008301526200068c81620005bf565b9050919050565b6000602082019050620006aa6000830184620005e6565b92915050565b600082825260208201905092915050565b6000620006ce826200078e565b9150620006db836200078e565b925082620006ee57620006ed620007ef565b5b828204905092915050565b600062000706826200078e565b915062000713836200078e565b9250817fffffffffffffffffffffffffffffffffffffffffffffffffffffffffffffffff04831182151516156200074f576200074e620007c0565b5b828202905092915050565b600062000767826200076e565b9050919050565b600073ffffffffffffffffffffffffffffffffffffffff82169050919050565b6000819050919050565b6000620007a582620007ac565b9050919050565b6000620007b9826200076e565b9050919050565b7f4e487b7100000000000000000000000000000000000000000000000000000000600052601160045260246000fd5b7f4e487b7100000000000000000000000000000000000000000000000000000000600052601260045260246000fd5b7f4e6f7420616e2061646d696e0000000000000000000000000000000000000000600082015250565b62000852816200078e565b81146200085e57600080fd5b5056fe608060405260018055678ac7230489e8000060065560006007553480156200002657600080fd5b50604051620017ae380380620017ae83398181016040528101906200004c9190620001a6565b846000806101000a81548173ffffffffffffffffffffffffffffffffffffffff021916908373ffffffffffffffffffffffffffffffffffffffff16021790555083600381905550826008819055508160098190555080600260006101000a81548173ffffffffffffffffffffffffffffffffffffffff021916908373ffffffffffffffffffffffffffffffffffffffff160217905550600460405180606001604052806103e8815260200160085481526020016000815250908060018154018082558091505060019003906000526020600020906003020160009091909190915060008201518160000155602082015181600101556040820151816002015550506103e86007819055505050505050620002c8565b60008151905062000172816200027a565b92915050565b600081519050620001898162000294565b92915050565b600081519050620001a081620002ae565b92915050565b600080600080600060a08688031215620001bf57600080fd5b6000620001cf8882890162000178565b9550506020620001e2888289016200018f565b9450506040620001f5888289016200018f565b935050606062000208888289016200018f565b92505060806200021b8882890162000161565b9150509295509295909350565b6000620002358262000250565b9050919050565b6000620002498262000228565b9050919050565b600073ffffffffffffffffffffffffffffffffffffffff82169050919050565b6000819050919050565b620002858162000228565b81146200029157600080fd5b50565b6200029f816200023c565b8114620002ab57600080fd5b50565b620002b98162000270565b8114620002c557600080fd5b50565b6114d680620002d86000396000f3fe6080604052600436106100f35760003560e01c806378abafaf1161008a578063e4997dc511610059578063e4997dc5146102ee578063f40f0f5214610317578063f7c618c114610354578063fc6f94681461037f576100f3565b806378abafaf146102655780638ae39cac14610290578063c89039c5146102bb578063ced92670146102c5576100f3565b80632e1a7d4d116100c65780632e1a7d4d146101cc57806348cd4cb1146101e857806351eb05a614610213578063727002411461023c576100f3565b80631526fe27146100f857806317caf6f1146101375780631959a002146101625780631aed6553146101a1575b600080fd5b34801561010457600080fd5b5061011f600480360381019061011a9190610ed6565b6103aa565b60405161012e9392919061114a565b60405180910390f35b34801561014357600080fd5b5061014c6103e4565b60405161015991906110f8565b60405180910390f35b34801561016e57600080fd5b5061018960048036038101906101849190610ead565b6103ea565b60405161019893929190611113565b60405180910390f35b3480156101ad57600080fd5b506101b6610421565b6040516101c391906110f8565b60405180910390f35b6101e660048036038101906101e19190610ed6565b610427565b005b3480156101f457600080fd5b506101fd610644565b60405161020a91906110f8565b60405180910390f35b34801561021f57600080fd5b5061023a60048036038101906102359190610ed6565b61064a565b005b34801561024857600080fd5b50610263600480360381019061025e9190610ead565b610737565b005b34801561027157600080fd5b5061027a610825565b60405161028791906110f8565b60405180910390f35b34801561029c57600080fd5b506102a561082b565b6040516102b291906110f8565b60405180910390f35b6102c3610831565b005b3480156102d157600080fd5b506102ec60048036038101906102e79190610ed6565b610a37565b005b3480156102fa57600080fd5b5061031560048036038101906103109190610ead565b610ad1565b005b34801561032357600080fd5b5061033e60048036038101906103399190610ead565b610bbf565b60405161034b91906110f8565b60405180910390f35b34801561036057600080fd5b50610369610d2c565b604051610376919061103d565b60405180910390f35b34801561038b57600080fd5b50610394610d50565b6040516103a19190611022565b60405180910390f35b600481815481106103ba57600080fd5b90600052602060002090600302016000915090508060000154908060010154908060020154905083565b60075481565b60056020528060005260406000206000915090508060000154908060010154908060020160009054906101000a900460ff16905083565b60095481565b60006004600081548110610464577f4e487b7100000000000000000000000000000000000000000000000000000000600052603260045260246000fd5b906000526020600020906003020190506000600560003373ffffffffffffffffffffffffffffffffffffffff1673ffffffffffffffffffffffffffffffffffffffff168152602001908152602001600020905082816000015410156104fe576040517f08c379a00000000000000000000000000000000000000000000000000000000081526004016104f5906110b8565b60405180910390fd5b610508600061064a565b6000610552826001015461054464e8d4a5100061053687600201548760000154610d7690919063ffffffff16565b610d8c90919063ffffffff16565b610da290919063ffffffff16565b905060008111801561057357508160020160009054906101000a900460ff16155b15610583576105823034610db8565b5b60008411156105b6576105a3848360000154610da290919063ffffffff16565b82600001819055506105b53385610db8565b5b6105e864e8d4a510006105da85600201548560000154610d7690919063ffffffff16565b610d8c90919063ffffffff16565b82600101819055503373ffffffffffffffffffffffffffffffffffffffff167f884edad9ce6fa2440d8a54cc123490eb96d2768479d49ff9c7366125a94243648560405161063691906110f8565b60405180910390a250505050565b60085481565b600060048281548110610686577f4e487b7100000000000000000000000000000000000000000000000000000000600052603260045260246000fd5b90600052602060002090600302019050806001015443116106a75750610734565b6000600154905060006106ef6007546106e185600001546106d360035487610d7690919063ffffffff16565b610d7690919063ffffffff16565b610d8c90919063ffffffff16565b905061071f61070c64e8d4a5100083610d7690919063ffffffff16565b8460020154610e6d90919063ffffffff16565b83600201819055504383600101819055505050505b50565b600260009054906101000a900473ffffffffffffffffffffffffffffffffffffffff1673ffffffffffffffffffffffffffffffffffffffff163373ffffffffffffffffffffffffffffffffffffffff16146107c7576040517f08c379a00000000000000000000000000000000000000000000000000000000081526004016107be90611098565b60405180910390fd5b6001600560008373ffffffffffffffffffffffffffffffffffffffff1673ffffffffffffffffffffffffffffffffffffffff16815260200190815260200160002060020160006101000a81548160ff02191690831515021790555050565b60065481565b60035481565b6000600460008154811061086e577f4e487b7100000000000000000000000000000000000000000000000000000000600052603260045260246000fd5b906000526020600020906003020190506000600560003373ffffffffffffffffffffffffffffffffffffffff1673ffffffffffffffffffffffffffffffffffffffff16815260200190815260200160002090506006546108db348360000154610e6d90919063ffffffff16565b111561091c576040517f08c379a000000000000000000000000000000000000000000000000000000000815260040161091390611058565b60405180910390fd5b8060020160009054906101000a900460ff161561096e576040517f08c379a000000000000000000000000000000000000000000000000000000000815260040161096590611078565b60405180910390fd5b610978600061064a565b60003411156109ab5761098b3034610db8565b6109a2348260000154610e6d90919063ffffffff16565b81600001819055505b6109dd64e8d4a510006109cf84600201548460000154610d7690919063ffffffff16565b610d8c90919063ffffffff16565b81600101819055503373ffffffffffffffffffffffffffffffffffffffff167fe1fffcc4923d04b559f4d29a8bfc6cda04eb5b0d3c460751c2402c5c5cc9109c34604051610a2b91906110f8565b60405180910390a25050565b600260009054906101000a900473ffffffffffffffffffffffffffffffffffffffff1673ffffffffffffffffffffffffffffffffffffffff163373ffffffffffffffffffffffffffffffffffffffff1614610ac7576040517f08c379a0000000000000000000000000000000000000000000000000000000008152600401610abe90611098565b60405180910390fd5b8060018190555050565b600260009054906101000a900473ffffffffffffffffffffffffffffffffffffffff1673ffffffffffffffffffffffffffffffffffffffff163373ffffffffffffffffffffffffffffffffffffffff1614610b61576040517f08c379a0000000000000000000000000000000000000000000000000000000008152600401610b5890611098565b60405180910390fd5b6000600560008373ffffffffffffffffffffffffffffffffffffffff1673ffffffffffffffffffffffffffffffffffffffff16815260200190815260200160002060020160006101000a81548160ff02191690831515021790555050565b6000806004600081548110610bfd577f4e487b7100000000000000000000000000000000000000000000000000000000600052603260045260246000fd5b906000526020600020906003020190506000600560008573ffffffffffffffffffffffffffffffffffffffff1673ffffffffffffffffffffffffffffffffffffffff16815260200190815260200160002090506000826002015490508260010154431115610cde57600060015490506000610cad600754610c9f8760000154610c9160035487610d7690919063ffffffff16565b610d7690919063ffffffff16565b610d8c90919063ffffffff16565b9050610cd9610cca64e8d4a5100083610d7690919063ffffffff16565b84610e6d90919063ffffffff16565b925050505b610d228260010154610d1464e8d4a51000610d06858760000154610d7690919063ffffffff16565b610d8c90919063ffffffff16565b610da290919063ffffffff16565b9350505050919050565b60008054906101000a900473ffffffffffffffffffffffffffffffffffffffff1681565b600260009054906101000a900473ffffffffffffffffffffffffffffffffffffffff1681565b60008183610d849190611224565b905092915050565b60008183610d9a91906111f3565b905092915050565b60008183610db0919061127e565b905092915050565b60008273ffffffffffffffffffffffffffffffffffffffff166159d883604051610de19061100d565b600060405180830381858888f193505050503d8060008114610e1f576040519150601f19603f3d011682016040523d82523d6000602084013e610e24565b606091505b5050905080610e68576040517f08c379a0000000000000000000000000000000000000000000000000000000008152600401610e5f906110d8565b60405180910390fd5b505050565b60008183610e7b919061119d565b905092915050565b600081359050610e9281611472565b92915050565b600081359050610ea781611489565b92915050565b600060208284031215610ebf57600080fd5b6000610ecd84828501610e83565b91505092915050565b600060208284031215610ee857600080fd5b6000610ef684828501610e98565b91505092915050565b610f08816112b2565b82525050565b610f17816112c4565b82525050565b610f26816112fa565b82525050565b6000610f39600e8361118c565b9150610f448261137c565b602082019050919050565b6000610f5c600d8361118c565b9150610f67826113a5565b602082019050919050565b6000610f7f60118361118c565b9150610f8a826113ce565b602082019050919050565b6000610fa2600083611181565b9150610fad826113f7565b600082019050919050565b6000610fc560128361118c565b9150610fd0826113fa565b602082019050919050565b6000610fe860238361118c565b9150610ff382611423565b604082019050919050565b611007816112f0565b82525050565b600061101882610f95565b9150819050919050565b60006020820190506110376000830184610eff565b92915050565b60006020820190506110526000830184610f1d565b92915050565b6000602082019050818103600083015261107181610f2c565b9050919050565b6000602082019050818103600083015261109181610f4f565b9050919050565b600060208201905081810360008301526110b181610f72565b9050919050565b600060208201905081810360008301526110d181610fb8565b9050919050565b600060208201905081810360008301526110f181610fdb565b9050919050565b600060208201905061110d6000830184610ffe565b92915050565b60006060820190506111286000830186610ffe565b6111356020830185610ffe565b6111426040830184610f0e565b949350505050565b600060608201905061115f6000830186610ffe565b61116c6020830185610ffe565b6111796040830184610ffe565b949350505050565b600081905092915050565b600082825260208201905092915050565b60006111a8826112f0565b91506111b3836112f0565b9250827fffffffffffffffffffffffffffffffffffffffffffffffffffffffffffffffff038211156111e8576111e761131e565b5b828201905092915050565b60006111fe826112f0565b9150611209836112f0565b9250826112195761121861134d565b5b828204905092915050565b600061122f826112f0565b915061123a836112f0565b9250817fffffffffffffffffffffffffffffffffffffffffffffffffffffffffffffffff04831182151516156112735761127261131e565b5b828202905092915050565b6000611289826112f0565b9150611294836112f0565b9250828210156112a7576112a661131e565b5b828203905092915050565b60006112bd826112d0565b9050919050565b60008115159050919050565b600073ffffffffffffffffffffffffffffffffffffffff82169050919050565b6000819050919050565b60006113058261130c565b9050919050565b6000611317826112d0565b9050919050565b7f4e487b7100000000000000000000000000000000000000000000000000000000600052601160045260246000fd5b7f4e487b7100000000000000000000000000000000000000000000000000000000600052601260045260246000fd5b7f6578636565642074686520746f70000000000000000000000000000000000000600082015250565b7f696e20626c61636b206c69737400000000000000000000000000000000000000600082015250565b7f596f7520617265206e6f742061646d696e000000000000000000000000000000600082015250565b50565b7f77697468647261773a206e6f7420676f6f640000000000000000000000000000600082015250565b7f5472616e7366657248656c7065723a204554485f5452414e534645525f46414960008201527f4c45440000000000000000000000000000000000000000000000000000000000602082015250565b61147b816112b2565b811461148657600080fd5b50565b611492816112f0565b811461149d57600080fd5b5056fea264697066735822122037908c9cb78cd443bb8909b347b212a9b62124bfad9dc81a61f7ba7981bb10b164736f6c63430008010033a2646970667358221220e154240b5f36a5328ea7d975040abcfc0240b9b3b7a4840de578ae2ac543c74a64736f6c63430008010033",
  "immutableReferences": {},
  "source": "pragma solidity ^0.8.0;\nimport \"@openzeppelin/contracts/token/ERC20/ERC20.sol\";\nimport \"@openzeppelin/contracts/utils/math/SafeMath.sol\";\nimport \"./StakingContract.sol\";\n\ncontract main{\n    using SafeMath for uint256;\n    address admin;\n    ERC20 viron;\n    uint256 totalSupplyAvailable;\n    uint256 stakingPercentage=25;\n    uint256 totalNFTS=0;\n\n    constructor(ERC20 token) {\n        viron=token;\n        admin=msg.sender;\n        totalSupplyAvailable=viron.balanceOf(address(this));\n    }\n\n\n    // staking[] public stakingPools;\n    staking private s;\n\n    modifier onlyAdmin(){\n        require(msg.sender==admin,\"Not an admin\");\n        _;\n    }\n\n    function updateSupply() public onlyAdmin{\n        totalSupplyAvailable=viron.balanceOf(address(this));\n    }\n\n    function createStakingPool(uint256 startBlock, uint256 endBlock) public onlyAdmin{\n        s=new staking(viron,(totalSupplyAvailable.mul(stakingPercentage).div(100)),startBlock,endBlock,admin);\n        //stakingPools.push(s);\n    }\n\n    function stake() public{\n        s.depositToken();\n    }\n\n    function withdrawToken(uint256 amount) public{\n        s.withdraw(amount);\n    }\n\n    \n}",
  "sourcePath": "/Users/ayush/Desktop/ProperT/contracts/DefiMain.sol",
  "compiler": {
    "name": "solc",
    "version": "0.8.1+commit.df193b15.Emscripten.clang"
  },
  "schemaVersion": "3.4.2",
  "updatedAt": "2022-01-17T14:40:55.346Z",
  "devdoc": {
    "kind": "dev",
    "methods": {},
    "version": 1
  },
  "userdoc": {
    "kind": "user",
    "methods": {},
    "version": 1
  }
}