{
  "contractName": "NFT",
  "abi": [
    {
      "inputs": [],
      "stateMutability": "nonpayable",
      "type": "constructor"
    },
    {
      "anonymous": false,
      "inputs": [
        {
          "indexed": true,
          "internalType": "address",
          "name": "owner",
          "type": "address"
        },
        {
          "indexed": true,
          "internalType": "address",
          "name": "approved",
          "type": "address"
        },
        {
          "indexed": true,
          "internalType": "uint256",
          "name": "tokenId",
          "type": "uint256"
        }
      ],
      "name": "Approval",
      "type": "event"
    },
    {
      "anonymous": false,
      "inputs": [
        {
          "indexed": true,
          "internalType": "address",
          "name": "owner",
          "type": "address"
        },
        {
          "indexed": true,
          "internalType": "address",
          "name": "operator",
          "type": "address"
        },
        {
          "indexed": false,
          "internalType": "bool",
          "name": "approved",
          "type": "bool"
        }
      ],
      "name": "ApprovalForAll",
      "type": "event"
    },
    {
      "anonymous": false,
      "inputs": [
        {
          "indexed": false,
          "internalType": "address",
          "name": "",
          "type": "address"
        }
      ],
      "name": "Breach",
      "type": "event"
    },
    {
      "anonymous": false,
      "inputs": [
        {
          "indexed": true,
          "internalType": "address",
          "name": "from",
          "type": "address"
        },
        {
          "indexed": true,
          "internalType": "address",
          "name": "to",
          "type": "address"
        },
        {
          "indexed": true,
          "internalType": "uint256",
          "name": "tokenId",
          "type": "uint256"
        }
      ],
      "name": "Transfer",
      "type": "event"
    },
    {
      "anonymous": false,
      "inputs": [
        {
          "indexed": false,
          "internalType": "uint256",
          "name": "",
          "type": "uint256"
        }
      ],
      "name": "landMinted",
      "type": "event"
    },
    {
      "anonymous": false,
      "inputs": [
        {
          "indexed": false,
          "internalType": "uint256",
          "name": "",
          "type": "uint256"
        }
      ],
      "name": "lordMinted",
      "type": "event"
    },
    {
      "inputs": [
        {
          "internalType": "address",
          "name": "to",
          "type": "address"
        },
        {
          "internalType": "uint256",
          "name": "tokenId",
          "type": "uint256"
        }
      ],
      "name": "approve",
      "outputs": [],
      "stateMutability": "nonpayable",
      "type": "function"
    },
    {
      "inputs": [
        {
          "internalType": "address",
          "name": "owner",
          "type": "address"
        }
      ],
      "name": "balanceOf",
      "outputs": [
        {
          "internalType": "uint256",
          "name": "",
          "type": "uint256"
        }
      ],
      "stateMutability": "view",
      "type": "function"
    },
    {
      "inputs": [
        {
          "internalType": "uint256",
          "name": "tokenId",
          "type": "uint256"
        }
      ],
      "name": "getApproved",
      "outputs": [
        {
          "internalType": "address",
          "name": "",
          "type": "address"
        }
      ],
      "stateMutability": "view",
      "type": "function"
    },
    {
      "inputs": [
        {
          "internalType": "address",
          "name": "owner",
          "type": "address"
        },
        {
          "internalType": "address",
          "name": "operator",
          "type": "address"
        }
      ],
      "name": "isApprovedForAll",
      "outputs": [
        {
          "internalType": "bool",
          "name": "",
          "type": "bool"
        }
      ],
      "stateMutability": "view",
      "type": "function"
    },
    {
      "inputs": [],
      "name": "landNFT",
      "outputs": [
        {
          "internalType": "uint256",
          "name": "",
          "type": "uint256"
        }
      ],
      "stateMutability": "view",
      "type": "function"
    },
    {
      "inputs": [],
      "name": "lordNFT",
      "outputs": [
        {
          "internalType": "uint256",
          "name": "",
          "type": "uint256"
        }
      ],
      "stateMutability": "view",
      "type": "function"
    },
    {
      "inputs": [],
      "name": "name",
      "outputs": [
        {
          "internalType": "string",
          "name": "",
          "type": "string"
        }
      ],
      "stateMutability": "view",
      "type": "function"
    },
    {
      "inputs": [
        {
          "internalType": "uint256",
          "name": "tokenId",
          "type": "uint256"
        }
      ],
      "name": "ownerOf",
      "outputs": [
        {
          "internalType": "address",
          "name": "",
          "type": "address"
        }
      ],
      "stateMutability": "view",
      "type": "function"
    },
    {
      "inputs": [
        {
          "internalType": "address",
          "name": "from",
          "type": "address"
        },
        {
          "internalType": "address",
          "name": "to",
          "type": "address"
        },
        {
          "internalType": "uint256",
          "name": "tokenId",
          "type": "uint256"
        }
      ],
      "name": "safeTransferFrom",
      "outputs": [],
      "stateMutability": "nonpayable",
      "type": "function"
    },
    {
      "inputs": [
        {
          "internalType": "address",
          "name": "from",
          "type": "address"
        },
        {
          "internalType": "address",
          "name": "to",
          "type": "address"
        },
        {
          "internalType": "uint256",
          "name": "tokenId",
          "type": "uint256"
        },
        {
          "internalType": "bytes",
          "name": "_data",
          "type": "bytes"
        }
      ],
      "name": "safeTransferFrom",
      "outputs": [],
      "stateMutability": "nonpayable",
      "type": "function"
    },
    {
      "inputs": [
        {
          "internalType": "address",
          "name": "operator",
          "type": "address"
        },
        {
          "internalType": "bool",
          "name": "approved",
          "type": "bool"
        }
      ],
      "name": "setApprovalForAll",
      "outputs": [],
      "stateMutability": "nonpayable",
      "type": "function"
    },
    {
      "inputs": [
        {
          "internalType": "bytes4",
          "name": "interfaceId",
          "type": "bytes4"
        }
      ],
      "name": "supportsInterface",
      "outputs": [
        {
          "internalType": "bool",
          "name": "",
          "type": "bool"
        }
      ],
      "stateMutability": "view",
      "type": "function"
    },
    {
      "inputs": [],
      "name": "symbol",
      "outputs": [
        {
          "internalType": "string",
          "name": "",
          "type": "string"
        }
      ],
      "stateMutability": "view",
      "type": "function"
    },
    {
      "inputs": [],
      "name": "totalNFT",
      "outputs": [
        {
          "internalType": "uint256",
          "name": "",
          "type": "uint256"
        }
      ],
      "stateMutability": "view",
      "type": "function"
    },
    {
      "inputs": [
        {
          "internalType": "address",
          "name": "from",
          "type": "address"
        },
        {
          "internalType": "address",
          "name": "to",
          "type": "address"
        },
        {
          "internalType": "uint256",
          "name": "tokenId",
          "type": "uint256"
        }
      ],
      "name": "transferFrom",
      "outputs": [],
      "stateMutability": "nonpayable",
      "type": "function"
    },
    {
      "inputs": [
        {
          "internalType": "uint256",
          "name": "amount",
          "type": "uint256"
        }
      ],
      "name": "deposit",
      "outputs": [],
      "stateMutability": "payable",
      "type": "function"
    },
    {
      "inputs": [
        {
          "internalType": "bytes32",
          "name": "hashVal",
          "type": "bytes32"
        },
        {
          "internalType": "string",
          "name": "_tokenURI",
          "type": "string"
        },
        {
          "internalType": "bool",
          "name": "lord",
          "type": "bool"
        }
      ],
      "name": "mint",
      "outputs": [],
      "stateMutability": "payable",
      "type": "function"
    },
    {
      "inputs": [
        {
          "internalType": "uint256",
          "name": "tokenId",
          "type": "uint256"
        }
      ],
      "name": "tokenURI",
      "outputs": [
        {
          "internalType": "string",
          "name": "",
          "type": "string"
        }
      ],
      "stateMutability": "view",
      "type": "function"
    },
    {
      "inputs": [],
      "name": "getTotalSupply",
      "outputs": [
        {
          "internalType": "uint256",
          "name": "",
          "type": "uint256"
        }
      ],
      "stateMutability": "view",
      "type": "function"
    },
    {
      "inputs": [
        {
          "internalType": "uint256",
          "name": "tokenId",
          "type": "uint256"
        },
        {
          "internalType": "string",
          "name": "_newURI",
          "type": "string"
        }
      ],
      "name": "updateTokenURI",
      "outputs": [],
      "stateMutability": "nonpayable",
      "type": "function"
    }
  ],
  "bytecode": "0x60806040526000600755600060085560006009556040518060400160405280600481526020017f3132333400000000000000000000000000000000000000000000000000000000815250600b90805190602001906200006092919062000156565b503480156200006e57600080fd5b506040518060400160405280600781526020017f50726f70657254000000000000000000000000000000000000000000000000008152506040518060400160405280600381526020017f50525400000000000000000000000000000000000000000000000000000000008152508160009080519060200190620000f392919062000156565b5080600190805190602001906200010c92919062000156565b50505033600a60006101000a81548173ffffffffffffffffffffffffffffffffffffffff021916908373ffffffffffffffffffffffffffffffffffffffff1602179055506200026b565b828054620001649062000206565b90600052602060002090601f016020900481019282620001885760008555620001d4565b82601f10620001a357805160ff1916838001178555620001d4565b82800160010185558215620001d4579182015b82811115620001d3578251825591602001919060010190620001b6565b5b509050620001e39190620001e7565b5090565b5b8082111562000202576000816000905550600101620001e8565b5090565b600060028204905060018216806200021f57607f821691505b602082108114156200023657620002356200023c565b5b50919050565b7f4e487b7100000000000000000000000000000000000000000000000000000000600052602260045260246000fd5b6131f9806200027b6000396000f3fe60806040526004361061011e5760003560e01c80636352211e116100a0578063b88d4fde11610064578063b88d4fde146103d7578063c4e41b2214610400578063c87b56dd1461042b578063e3ddc7bb14610468578063e985e9c5146104845761011e565b80636352211e146102ed57806370a082311461032a57806395d89b4114610367578063a22cb46514610392578063b6b55f25146103bb5761011e565b806316dadbd2116100e757806316dadbd21461021c57806318e97fd11461024757806323b872dd1461027057806339d022e11461029957806342842e0e146102c45761011e565b80624563791461012357806301ffc9a71461014e57806306fdde031461018b578063081812fc146101b6578063095ea7b3146101f3575b600080fd5b34801561012f57600080fd5b506101386104c1565b6040516101459190612856565b60405180910390f35b34801561015a57600080fd5b506101756004803603810190610170919061204e565b6104c7565b60405161018291906125d9565b60405180910390f35b34801561019757600080fd5b506101a06105a9565b6040516101ad91906125f4565b60405180910390f35b3480156101c257600080fd5b506101dd60048036038101906101d891906120a0565b61063b565b6040516101ea9190612572565b60405180910390f35b3480156101ff57600080fd5b5061021a60048036038101906102159190611f82565b6106c0565b005b34801561022857600080fd5b506102316107d8565b60405161023e9190612856565b60405180910390f35b34801561025357600080fd5b5061026e600480360381019061026991906120c9565b6107de565b005b34801561027c57600080fd5b5061029760048036038101906102929190611e7c565b610862565b005b3480156102a557600080fd5b506102ae6108c2565b6040516102bb9190612856565b60405180910390f35b3480156102d057600080fd5b506102eb60048036038101906102e69190611e7c565b6108c8565b005b3480156102f957600080fd5b50610314600480360381019061030f91906120a0565b6108e8565b6040516103219190612572565b60405180910390f35b34801561033657600080fd5b50610351600480360381019061034c9190611e17565b61099a565b60405161035e9190612856565b60405180910390f35b34801561037357600080fd5b5061037c610a52565b60405161038991906125f4565b60405180910390f35b34801561039e57600080fd5b506103b960048036038101906103b49190611f46565b610ae4565b005b6103d560048036038101906103d091906120a0565b610c65565b005b3480156103e357600080fd5b506103fe60048036038101906103f99190611ecb565b610c68565b005b34801561040c57600080fd5b50610415610cca565b6040516104229190612856565b60405180910390f35b34801561043757600080fd5b50610452600480360381019061044d91906120a0565b610cd4565b60405161045f91906125f4565b60405180910390f35b610482600480360381019061047d9190611fe7565b610ce6565b005b34801561049057600080fd5b506104ab60048036038101906104a69190611e40565b610ea2565b6040516104b891906125d9565b60405180910390f35b60075481565b60007f80ac58cd000000000000000000000000000000000000000000000000000000007bffffffffffffffffffffffffffffffffffffffffffffffffffffffff1916827bffffffffffffffffffffffffffffffffffffffffffffffffffffffff1916148061059257507f5b5e139f000000000000000000000000000000000000000000000000000000007bffffffffffffffffffffffffffffffffffffffffffffffffffffffff1916827bffffffffffffffffffffffffffffffffffffffffffffffffffffffff1916145b806105a257506105a182610f36565b5b9050919050565b6060600080546105b890612ad6565b80601f01602080910402602001604051908101604052809291908181526020018280546105e490612ad6565b80156106315780601f1061060657610100808354040283529160200191610631565b820191906000526020600020905b81548152906001019060200180831161061457829003601f168201915b5050505050905090565b600061064682610fa0565b610685576040517f08c379a000000000000000000000000000000000000000000000000000000000815260040161067c906127b6565b60405180910390fd5b6004600083815260200190815260200160002060009054906101000a900473ffffffffffffffffffffffffffffffffffffffff169050919050565b60006106cb826108e8565b90508073ffffffffffffffffffffffffffffffffffffffff168373ffffffffffffffffffffffffffffffffffffffff16141561073c576040517f08c379a000000000000000000000000000000000000000000000000000000000815260040161073390612816565b60405180910390fd5b8073ffffffffffffffffffffffffffffffffffffffff1661075b61100c565b73ffffffffffffffffffffffffffffffffffffffff16148061078a57506107898161078461100c565b610ea2565b5b6107c9576040517f08c379a00000000000000000000000000000000000000000000000000000000081526004016107c0906126f6565b60405180910390fd5b6107d38383611014565b505050565b60095481565b6107e7826108e8565b73ffffffffffffffffffffffffffffffffffffffff163373ffffffffffffffffffffffffffffffffffffffff1614610854576040517f08c379a000000000000000000000000000000000000000000000000000000000815260040161084b906126d6565b60405180910390fd5b61085e82826110cd565b5050565b61087361086d61100c565b82611141565b6108b2576040517f08c379a00000000000000000000000000000000000000000000000000000000081526004016108a990612836565b60405180910390fd5b6108bd83838361121f565b505050565b60085481565b6108e383838360405180602001604052806000815250610c68565b505050565b6000806002600084815260200190815260200160002060009054906101000a900473ffffffffffffffffffffffffffffffffffffffff169050600073ffffffffffffffffffffffffffffffffffffffff168173ffffffffffffffffffffffffffffffffffffffff161415610991576040517f08c379a000000000000000000000000000000000000000000000000000000000815260040161098890612736565b60405180910390fd5b80915050919050565b60008073ffffffffffffffffffffffffffffffffffffffff168273ffffffffffffffffffffffffffffffffffffffff161415610a0b576040517f08c379a0000000000000000000000000000000000000000000000000000000008152600401610a0290612716565b60405180910390fd5b600360008373ffffffffffffffffffffffffffffffffffffffff1673ffffffffffffffffffffffffffffffffffffffff168152602001908152602001600020549050919050565b606060018054610a6190612ad6565b80601f0160208091040260200160405190810160405280929190818152602001828054610a8d90612ad6565b8015610ada5780601f10610aaf57610100808354040283529160200191610ada565b820191906000526020600020905b815481529060010190602001808311610abd57829003601f168201915b5050505050905090565b610aec61100c565b73ffffffffffffffffffffffffffffffffffffffff168273ffffffffffffffffffffffffffffffffffffffff161415610b5a576040517f08c379a0000000000000000000000000000000000000000000000000000000008152600401610b5190612696565b60405180910390fd5b8060056000610b6761100c565b73ffffffffffffffffffffffffffffffffffffffff1673ffffffffffffffffffffffffffffffffffffffff16815260200190815260200160002060008473ffffffffffffffffffffffffffffffffffffffff1673ffffffffffffffffffffffffffffffffffffffff16815260200190815260200160002060006101000a81548160ff0219169083151502179055508173ffffffffffffffffffffffffffffffffffffffff16610c1461100c565b73ffffffffffffffffffffffffffffffffffffffff167f17307eab39ab6107e8899845ad3d59bd9653f200f220920489ca2b5937696c3183604051610c5991906125d9565b60405180910390a35050565b50565b610c79610c7361100c565b83611141565b610cb8576040517f08c379a0000000000000000000000000000000000000000000000000000000008152600401610caf90612836565b60405180910390fd5b610cc48484848461147b565b50505050565b6000600754905090565b6060610cdf826114d7565b9050919050565b6000610cf134611629565b600b604051602001610d0492919061254e565b60405160208183030381529060405290506000600282604051610d279190612513565b602060405180830381855afa158015610d44573d6000803e3d6000fd5b5050506040513d601f19601f82011682018060405250810190610d679190611fbe565b9050848114610de2577f024f99f3f65a9256f969191f9d434ace10df99c6686c2c6f4163529e2f52390f33604051610d9f9190612572565b60405180910390a16040517f08c379a0000000000000000000000000000000000000000000000000000000008152600401610dd990612636565b60405180910390fd5b610deb34610c65565b600160076000828254610dfe919061295b565b92505081905550610e11336007546117d6565b610e1d600754856110cd565b8215610e61577fe2daa3875eefa1aad689355ecb674de99d288dce3c676ad6ed31379c56fe26c6600754604051610e549190612856565b60405180910390a1610e9b565b7fa4bfb59da2aad84ce62d50278a343f4ad5463b66080a0c500d903d821c34455a600754604051610e929190612856565b60405180910390a15b5050505050565b6000600560008473ffffffffffffffffffffffffffffffffffffffff1673ffffffffffffffffffffffffffffffffffffffff16815260200190815260200160002060008373ffffffffffffffffffffffffffffffffffffffff1673ffffffffffffffffffffffffffffffffffffffff16815260200190815260200160002060009054906101000a900460ff16905092915050565b60007f01ffc9a7000000000000000000000000000000000000000000000000000000007bffffffffffffffffffffffffffffffffffffffffffffffffffffffff1916827bffffffffffffffffffffffffffffffffffffffffffffffffffffffff1916149050919050565b60008073ffffffffffffffffffffffffffffffffffffffff166002600084815260200190815260200160002060009054906101000a900473ffffffffffffffffffffffffffffffffffffffff1673ffffffffffffffffffffffffffffffffffffffff1614159050919050565b600033905090565b816004600083815260200190815260200160002060006101000a81548173ffffffffffffffffffffffffffffffffffffffff021916908373ffffffffffffffffffffffffffffffffffffffff160217905550808273ffffffffffffffffffffffffffffffffffffffff16611087836108e8565b73ffffffffffffffffffffffffffffffffffffffff167f8c5be1e5ebec7d5bd14f71427d1e84f3dd0314c0f7b2291e5b200ac8c7c3b92560405160405180910390a45050565b6110d682610fa0565b611115576040517f08c379a000000000000000000000000000000000000000000000000000000000815260040161110c90612756565b60405180910390fd5b8060066000848152602001908152602001600020908051906020019061113c929190611c11565b505050565b600061114c82610fa0565b61118b576040517f08c379a0000000000000000000000000000000000000000000000000000000008152600401611182906126b6565b60405180910390fd5b6000611196836108e8565b90508073ffffffffffffffffffffffffffffffffffffffff168473ffffffffffffffffffffffffffffffffffffffff16148061120557508373ffffffffffffffffffffffffffffffffffffffff166111ed8461063b565b73ffffffffffffffffffffffffffffffffffffffff16145b8061121657506112158185610ea2565b5b91505092915050565b8273ffffffffffffffffffffffffffffffffffffffff1661123f826108e8565b73ffffffffffffffffffffffffffffffffffffffff1614611295576040517f08c379a000000000000000000000000000000000000000000000000000000000815260040161128c906127d6565b60405180910390fd5b600073ffffffffffffffffffffffffffffffffffffffff168273ffffffffffffffffffffffffffffffffffffffff161415611305576040517f08c379a00000000000000000000000000000000000000000000000000000000081526004016112fc90612676565b60405180910390fd5b6113108383836119a4565b61131b600082611014565b6001600360008573ffffffffffffffffffffffffffffffffffffffff1673ffffffffffffffffffffffffffffffffffffffff168152602001908152602001600020600082825461136b91906129e2565b925050819055506001600360008473ffffffffffffffffffffffffffffffffffffffff1673ffffffffffffffffffffffffffffffffffffffff16815260200190815260200160002060008282546113c2919061295b565b92505081905550816002600083815260200190815260200160002060006101000a81548173ffffffffffffffffffffffffffffffffffffffff021916908373ffffffffffffffffffffffffffffffffffffffff160217905550808273ffffffffffffffffffffffffffffffffffffffff168473ffffffffffffffffffffffffffffffffffffffff167fddf252ad1be2c89b69c2b068fc378daa952ba7f163c4a11628f55a4df523b3ef60405160405180910390a4505050565b61148684848461121f565b611492848484846119a9565b6114d1576040517f08c379a00000000000000000000000000000000000000000000000000000000081526004016114c890612616565b60405180910390fd5b50505050565b60606114e282610fa0565b611521576040517f08c379a000000000000000000000000000000000000000000000000000000000815260040161151890612796565b60405180910390fd5b600060066000848152602001908152602001600020805461154190612ad6565b80601f016020809104026020016040519081016040528092919081815260200182805461156d90612ad6565b80156115ba5780601f1061158f576101008083540402835291602001916115ba565b820191906000526020600020905b81548152906001019060200180831161159d57829003601f168201915b5050505050905060006115cb611b40565b90506000815114156115e1578192505050611624565b6000825111156116165780826040516020016115fe92919061252a565b60405160208183030381529060405292505050611624565b61161f84611b57565b925050505b919050565b60606000821415611671576040518060400160405280600181526020017f300000000000000000000000000000000000000000000000000000000000000081525090506117d1565b600082905060005b600082146116a357808061168c90612b39565b915050600a8261169c91906129b1565b9150611679565b60008167ffffffffffffffff8111156116e5577f4e487b7100000000000000000000000000000000000000000000000000000000600052604160045260246000fd5b6040519080825280601f01601f1916602001820160405280156117175781602001600182028036833780820191505090505b5090505b600085146117ca5760018261173091906129e2565b9150600a8561173f9190612b82565b603061174b919061295b565b60f81b818381518110611787577f4e487b7100000000000000000000000000000000000000000000000000000000600052603260045260246000fd5b60200101907effffffffffffffffffffffffffffffffffffffffffffffffffffffffffffff1916908160001a905350600a856117c391906129b1565b945061171b565b8093505050505b919050565b600073ffffffffffffffffffffffffffffffffffffffff168273ffffffffffffffffffffffffffffffffffffffff161415611846576040517f08c379a000000000000000000000000000000000000000000000000000000000815260040161183d90612776565b60405180910390fd5b61184f81610fa0565b1561188f576040517f08c379a000000000000000000000000000000000000000000000000000000000815260040161188690612656565b60405180910390fd5b61189b600083836119a4565b6001600360008473ffffffffffffffffffffffffffffffffffffffff1673ffffffffffffffffffffffffffffffffffffffff16815260200190815260200160002060008282546118eb919061295b565b92505081905550816002600083815260200190815260200160002060006101000a81548173ffffffffffffffffffffffffffffffffffffffff021916908373ffffffffffffffffffffffffffffffffffffffff160217905550808273ffffffffffffffffffffffffffffffffffffffff16600073ffffffffffffffffffffffffffffffffffffffff167fddf252ad1be2c89b69c2b068fc378daa952ba7f163c4a11628f55a4df523b3ef60405160405180910390a45050565b505050565b60006119ca8473ffffffffffffffffffffffffffffffffffffffff16611bfe565b15611b33578373ffffffffffffffffffffffffffffffffffffffff1663150b7a026119f361100c565b8786866040518563ffffffff1660e01b8152600401611a15949392919061258d565b602060405180830381600087803b158015611a2f57600080fd5b505af1925050508015611a6057506040513d601f19601f82011682018060405250810190611a5d9190612077565b60015b611ae3573d8060008114611a90576040519150601f19603f3d011682016040523d82523d6000602084013e611a95565b606091505b50600081511415611adb576040517f08c379a0000000000000000000000000000000000000000000000000000000008152600401611ad290612616565b60405180910390fd5b805181602001fd5b63150b7a0260e01b7bffffffffffffffffffffffffffffffffffffffffffffffffffffffff1916817bffffffffffffffffffffffffffffffffffffffffffffffffffffffff191614915050611b38565b600190505b949350505050565b606060405180602001604052806000815250905090565b6060611b6282610fa0565b611ba1576040517f08c379a0000000000000000000000000000000000000000000000000000000008152600401611b98906127f6565b60405180910390fd5b6000611bab611b40565b90506000815111611bcb5760405180602001604052806000815250611bf6565b80611bd584611629565b604051602001611be692919061252a565b6040516020818303038152906040525b915050919050565b600080823b905060008111915050919050565b828054611c1d90612ad6565b90600052602060002090601f016020900481019282611c3f5760008555611c86565b82601f10611c5857805160ff1916838001178555611c86565b82800160010185558215611c86579182015b82811115611c85578251825591602001919060010190611c6a565b5b509050611c939190611c97565b5090565b5b80821115611cb0576000816000905550600101611c98565b5090565b6000611cc7611cc284612896565b612871565b905082815260208101848484011115611cdf57600080fd5b611cea848285612a94565b509392505050565b6000611d05611d00846128c7565b612871565b905082815260208101848484011115611d1d57600080fd5b611d28848285612a94565b509392505050565b600081359050611d3f81613150565b92915050565b600081359050611d5481613167565b92915050565b600081359050611d698161317e565b92915050565b600081519050611d7e8161317e565b92915050565b600081359050611d9381613195565b92915050565b600081519050611da881613195565b92915050565b600082601f830112611dbf57600080fd5b8135611dcf848260208601611cb4565b91505092915050565b600082601f830112611de957600080fd5b8135611df9848260208601611cf2565b91505092915050565b600081359050611e11816131ac565b92915050565b600060208284031215611e2957600080fd5b6000611e3784828501611d30565b91505092915050565b60008060408385031215611e5357600080fd5b6000611e6185828601611d30565b9250506020611e7285828601611d30565b9150509250929050565b600080600060608486031215611e9157600080fd5b6000611e9f86828701611d30565b9350506020611eb086828701611d30565b9250506040611ec186828701611e02565b9150509250925092565b60008060008060808587031215611ee157600080fd5b6000611eef87828801611d30565b9450506020611f0087828801611d30565b9350506040611f1187828801611e02565b925050606085013567ffffffffffffffff811115611f2e57600080fd5b611f3a87828801611dae565b91505092959194509250565b60008060408385031215611f5957600080fd5b6000611f6785828601611d30565b9250506020611f7885828601611d45565b9150509250929050565b60008060408385031215611f9557600080fd5b6000611fa385828601611d30565b9250506020611fb485828601611e02565b9150509250929050565b600060208284031215611fd057600080fd5b6000611fde84828501611d6f565b91505092915050565b600080600060608486031215611ffc57600080fd5b600061200a86828701611d5a565b935050602084013567ffffffffffffffff81111561202757600080fd5b61203386828701611dd8565b925050604061204486828701611d45565b9150509250925092565b60006020828403121561206057600080fd5b600061206e84828501611d84565b91505092915050565b60006020828403121561208957600080fd5b600061209784828501611d99565b91505092915050565b6000602082840312156120b257600080fd5b60006120c084828501611e02565b91505092915050565b600080604083850312156120dc57600080fd5b60006120ea85828601611e02565b925050602083013567ffffffffffffffff81111561210757600080fd5b61211385828601611dd8565b9150509250929050565b61212681612a16565b82525050565b61213581612a28565b82525050565b60006121468261290d565b6121508185612923565b9350612160818560208601612aa3565b61216981612c6f565b840191505092915050565b600061217f8261290d565b6121898185612934565b9350612199818560208601612aa3565b80840191505092915050565b60006121b082612918565b6121ba818561293f565b93506121ca818560208601612aa3565b6121d381612c6f565b840191505092915050565b60006121e982612918565b6121f38185612950565b9350612203818560208601612aa3565b80840191505092915050565b6000815461221c81612ad6565b6122268186612950565b94506001821660008114612241576001811461225257612285565b60ff19831686528186019350612285565b61225b856128f8565b60005b8381101561227d5781548189015260018201915060208101905061225e565b838801955050505b50505092915050565b600061229b60328361293f565b91506122a682612c80565b604082019050919050565b60006122be600c8361293f565b91506122c982612ccf565b602082019050919050565b60006122e1601c8361293f565b91506122ec82612cf8565b602082019050919050565b600061230460248361293f565b915061230f82612d21565b604082019050919050565b600061232760198361293f565b915061233282612d70565b602082019050919050565b600061234a602c8361293f565b915061235582612d99565b604082019050919050565b600061236d600b8361293f565b915061237882612de8565b602082019050919050565b600061239060388361293f565b915061239b82612e11565b604082019050919050565b60006123b3602a8361293f565b91506123be82612e60565b604082019050919050565b60006123d660298361293f565b91506123e182612eaf565b604082019050919050565b60006123f9602e8361293f565b915061240482612efe565b604082019050919050565b600061241c60208361293f565b915061242782612f4d565b602082019050919050565b600061243f60318361293f565b915061244a82612f76565b604082019050919050565b6000612462602c8361293f565b915061246d82612fc5565b604082019050919050565b600061248560298361293f565b915061249082613014565b604082019050919050565b60006124a8602f8361293f565b91506124b382613063565b604082019050919050565b60006124cb60218361293f565b91506124d6826130b2565b604082019050919050565b60006124ee60318361293f565b91506124f982613101565b604082019050919050565b61250d81612a8a565b82525050565b600061251f8284612174565b915081905092915050565b600061253682856121de565b915061254282846121de565b91508190509392505050565b600061255a82856121de565b9150612566828461220f565b91508190509392505050565b6000602082019050612587600083018461211d565b92915050565b60006080820190506125a2600083018761211d565b6125af602083018661211d565b6125bc6040830185612504565b81810360608301526125ce818461213b565b905095945050505050565b60006020820190506125ee600083018461212c565b92915050565b6000602082019050818103600083015261260e81846121a5565b905092915050565b6000602082019050818103600083015261262f8161228e565b9050919050565b6000602082019050818103600083015261264f816122b1565b9050919050565b6000602082019050818103600083015261266f816122d4565b9050919050565b6000602082019050818103600083015261268f816122f7565b9050919050565b600060208201905081810360008301526126af8161231a565b9050919050565b600060208201905081810360008301526126cf8161233d565b9050919050565b600060208201905081810360008301526126ef81612360565b9050919050565b6000602082019050818103600083015261270f81612383565b9050919050565b6000602082019050818103600083015261272f816123a6565b9050919050565b6000602082019050818103600083015261274f816123c9565b9050919050565b6000602082019050818103600083015261276f816123ec565b9050919050565b6000602082019050818103600083015261278f8161240f565b9050919050565b600060208201905081810360008301526127af81612432565b9050919050565b600060208201905081810360008301526127cf81612455565b9050919050565b600060208201905081810360008301526127ef81612478565b9050919050565b6000602082019050818103600083015261280f8161249b565b9050919050565b6000602082019050818103600083015261282f816124be565b9050919050565b6000602082019050818103600083015261284f816124e1565b9050919050565b600060208201905061286b6000830184612504565b92915050565b600061287b61288c565b90506128878282612b08565b919050565b6000604051905090565b600067ffffffffffffffff8211156128b1576128b0612c40565b5b6128ba82612c6f565b9050602081019050919050565b600067ffffffffffffffff8211156128e2576128e1612c40565b5b6128eb82612c6f565b9050602081019050919050565b60008190508160005260206000209050919050565b600081519050919050565b600081519050919050565b600082825260208201905092915050565b600081905092915050565b600082825260208201905092915050565b600081905092915050565b600061296682612a8a565b915061297183612a8a565b9250827fffffffffffffffffffffffffffffffffffffffffffffffffffffffffffffffff038211156129a6576129a5612bb3565b5b828201905092915050565b60006129bc82612a8a565b91506129c783612a8a565b9250826129d7576129d6612be2565b5b828204905092915050565b60006129ed82612a8a565b91506129f883612a8a565b925082821015612a0b57612a0a612bb3565b5b828203905092915050565b6000612a2182612a6a565b9050919050565b60008115159050919050565b6000819050919050565b60007fffffffff0000000000000000000000000000000000000000000000000000000082169050919050565b600073ffffffffffffffffffffffffffffffffffffffff82169050919050565b6000819050919050565b82818337600083830152505050565b60005b83811015612ac1578082015181840152602081019050612aa6565b83811115612ad0576000848401525b50505050565b60006002820490506001821680612aee57607f821691505b60208210811415612b0257612b01612c11565b5b50919050565b612b1182612c6f565b810181811067ffffffffffffffff82111715612b3057612b2f612c40565b5b80604052505050565b6000612b4482612a8a565b91507fffffffffffffffffffffffffffffffffffffffffffffffffffffffffffffffff821415612b7757612b76612bb3565b5b600182019050919050565b6000612b8d82612a8a565b9150612b9883612a8a565b925082612ba857612ba7612be2565b5b828206905092915050565b7f4e487b7100000000000000000000000000000000000000000000000000000000600052601160045260246000fd5b7f4e487b7100000000000000000000000000000000000000000000000000000000600052601260045260246000fd5b7f4e487b7100000000000000000000000000000000000000000000000000000000600052602260045260246000fd5b7f4e487b7100000000000000000000000000000000000000000000000000000000600052604160045260246000fd5b6000601f19601f8301169050919050565b7f4552433732313a207472616e7366657220746f206e6f6e20455243373231526560008201527f63656976657220696d706c656d656e7465720000000000000000000000000000602082015250565b7f496e76616c696420686173680000000000000000000000000000000000000000600082015250565b7f4552433732313a20746f6b656e20616c7265616479206d696e74656400000000600082015250565b7f4552433732313a207472616e7366657220746f20746865207a65726f2061646460008201527f7265737300000000000000000000000000000000000000000000000000000000602082015250565b7f4552433732313a20617070726f766520746f2063616c6c657200000000000000600082015250565b7f4552433732313a206f70657261746f7220717565727920666f72206e6f6e657860008201527f697374656e7420746f6b656e0000000000000000000000000000000000000000602082015250565b7f6e6f7420616c6c6f776564000000000000000000000000000000000000000000600082015250565b7f4552433732313a20617070726f76652063616c6c6572206973206e6f74206f7760008201527f6e6572206e6f7220617070726f76656420666f7220616c6c0000000000000000602082015250565b7f4552433732313a2062616c616e636520717565727920666f7220746865207a6560008201527f726f206164647265737300000000000000000000000000000000000000000000602082015250565b7f4552433732313a206f776e657220717565727920666f72206e6f6e657869737460008201527f656e7420746f6b656e0000000000000000000000000000000000000000000000602082015250565b7f45524337323155524953746f726167653a2055524920736574206f66206e6f6e60008201527f6578697374656e7420746f6b656e000000000000000000000000000000000000602082015250565b7f4552433732313a206d696e7420746f20746865207a65726f2061646472657373600082015250565b7f45524337323155524953746f726167653a2055524920717565727920666f722060008201527f6e6f6e6578697374656e7420746f6b656e000000000000000000000000000000602082015250565b7f4552433732313a20617070726f76656420717565727920666f72206e6f6e657860008201527f697374656e7420746f6b656e0000000000000000000000000000000000000000602082015250565b7f4552433732313a207472616e73666572206f6620746f6b656e2074686174206960008201527f73206e6f74206f776e0000000000000000000000000000000000000000000000602082015250565b7f4552433732314d657461646174613a2055524920717565727920666f72206e6f60008201527f6e6578697374656e7420746f6b656e0000000000000000000000000000000000602082015250565b7f4552433732313a20617070726f76616c20746f2063757272656e74206f776e6560008201527f7200000000000000000000000000000000000000000000000000000000000000602082015250565b7f4552433732313a207472616e736665722063616c6c6572206973206e6f74206f60008201527f776e6572206e6f7220617070726f766564000000000000000000000000000000602082015250565b61315981612a16565b811461316457600080fd5b50565b61317081612a28565b811461317b57600080fd5b50565b61318781612a34565b811461319257600080fd5b50565b61319e81612a3e565b81146131a957600080fd5b50565b6131b581612a8a565b81146131c057600080fd5b5056fea26469706673582212200025720c422bab3b8bf300ff4aa996d5f07d52150bf5d069ed8598f091606b2464736f6c63430008010033",
  "immutableReferences": {},
  "source": "// SPDX-License-Identifier: MIT\npragma solidity ^0.8.0;\nimport \"@openzeppelin/contracts/token/ERC721/ERC721.sol\";\nimport \"@openzeppelin/contracts/token/ERC721/extensions/ERC721URIStorage.sol\";\nimport \"@openzeppelin/contracts/utils/Strings.sol\";\n\n\n\n\ncontract NFT is ERC721,ERC721URIStorage{\n    uint256 public totalNFT=0;\n    uint256 public landNFT=0;\n    uint256 public lordNFT=0;\n    address adminNft;\n    event Breach(address);\n    event lordMinted(uint256);\n    event landMinted(uint256);\n    string private salt=\"1234\";\n    \n    constructor() ERC721(\"ProperT\",\"PRT\"){\n        adminNft = msg.sender;\n    }\n\n    function deposit(uint256 amount) public payable{}\n\n    function mint(bytes32 hashVal, string memory _tokenURI, bool lord) public payable {\n        bytes memory  preHash = bytes(abi.encodePacked(Strings.toString(msg.value),salt));\n        bytes32 expectedHash = sha256(preHash);\n        if(expectedHash != hashVal){\n            emit Breach(msg.sender);\n            revert(\"Invalid hash\");\n        }\n        deposit(msg.value);\n        totalNFT+=1;\n        _mint(msg.sender, totalNFT);\n        _setTokenURI(totalNFT,_tokenURI);\n        if(lord) emit lordMinted(totalNFT);\n        else emit landMinted(totalNFT);\n    }\n\n    function _burn(uint256 tokenId) internal override(ERC721URIStorage, ERC721) {\n        super._burn(tokenId);\n    }\n\n    function tokenURI(uint256 tokenId)\n        public\n        view\n        override(ERC721URIStorage,ERC721)\n        returns (string memory)\n    {\n        return super.tokenURI(tokenId);\n    }\n\n    function getTotalSupply() public view returns(uint256){\n        return totalNFT;\n    }\n\n    function updateTokenURI(uint256 tokenId, string memory _newURI) public{\n        require(msg.sender==ownerOf(tokenId),\"not allowed\");\n        _setTokenURI(tokenId, _newURI);\n    }\n\n\n    function setSalt(string memory newSalt) private {\n        require(msg.sender==adminNft);\n        salt=newSalt;\n    }\n\n}",
  "sourcePath": "/Users/ayush/Desktop/ProperT/contracts/MintNft.sol",
  "compiler": {
    "name": "solc",
    "version": "0.8.1+commit.df193b15.Emscripten.clang"
  },
  "schemaVersion": "3.4.2",
  "updatedAt": "2022-01-17T14:40:55.368Z",
  "devdoc": {
    "kind": "dev",
    "methods": {
      "approve(address,uint256)": {
        "details": "See {IERC721-approve}."
      },
      "balanceOf(address)": {
        "details": "See {IERC721-balanceOf}."
      },
      "getApproved(uint256)": {
        "details": "See {IERC721-getApproved}."
      },
      "isApprovedForAll(address,address)": {
        "details": "See {IERC721-isApprovedForAll}."
      },
      "name()": {
        "details": "See {IERC721Metadata-name}."
      },
      "ownerOf(uint256)": {
        "details": "See {IERC721-ownerOf}."
      },
      "safeTransferFrom(address,address,uint256)": {
        "details": "See {IERC721-safeTransferFrom}."
      },
      "safeTransferFrom(address,address,uint256,bytes)": {
        "details": "See {IERC721-safeTransferFrom}."
      },
      "setApprovalForAll(address,bool)": {
        "details": "See {IERC721-setApprovalForAll}."
      },
      "supportsInterface(bytes4)": {
        "details": "See {IERC165-supportsInterface}."
      },
      "symbol()": {
        "details": "See {IERC721Metadata-symbol}."
      },
      "transferFrom(address,address,uint256)": {
        "details": "See {IERC721-transferFrom}."
      }
    },
    "version": 1
  },
  "userdoc": {
    "kind": "user",
    "methods": {},
    "version": 1
  }
}