{
  "contractName": "NFT",
  "abi": [
    {
      "inputs": [],
      "stateMutability": "nonpayable",
      "type": "constructor"
    },
    {
      "anonymous": false,
      "inputs": [
        {
          "indexed": true,
          "internalType": "address",
          "name": "owner",
          "type": "address"
        },
        {
          "indexed": true,
          "internalType": "address",
          "name": "approved",
          "type": "address"
        },
        {
          "indexed": true,
          "internalType": "uint256",
          "name": "tokenId",
          "type": "uint256"
        }
      ],
      "name": "Approval",
      "type": "event"
    },
    {
      "anonymous": false,
      "inputs": [
        {
          "indexed": true,
          "internalType": "address",
          "name": "owner",
          "type": "address"
        },
        {
          "indexed": true,
          "internalType": "address",
          "name": "operator",
          "type": "address"
        },
        {
          "indexed": false,
          "internalType": "bool",
          "name": "approved",
          "type": "bool"
        }
      ],
      "name": "ApprovalForAll",
      "type": "event"
    },
    {
      "anonymous": false,
      "inputs": [
        {
          "indexed": true,
          "internalType": "address",
          "name": "from",
          "type": "address"
        },
        {
          "indexed": true,
          "internalType": "address",
          "name": "to",
          "type": "address"
        },
        {
          "indexed": true,
          "internalType": "uint256",
          "name": "tokenId",
          "type": "uint256"
        }
      ],
      "name": "Transfer",
      "type": "event"
    },
    {
      "anonymous": false,
      "inputs": [],
      "name": "e1",
      "type": "event"
    },
    {
      "anonymous": false,
      "inputs": [],
      "name": "e2",
      "type": "event"
    },
    {
      "anonymous": false,
      "inputs": [],
      "name": "e3",
      "type": "event"
    },
    {
      "anonymous": false,
      "inputs": [],
      "name": "e4",
      "type": "event"
    },
    {
      "anonymous": false,
      "inputs": [
        {
          "indexed": false,
          "internalType": "bytes32",
          "name": "",
          "type": "bytes32"
        },
        {
          "indexed": false,
          "internalType": "string",
          "name": "",
          "type": "string"
        }
      ],
      "name": "tokenCreated",
      "type": "event"
    },
    {
      "inputs": [],
      "name": "TOTAL_LAND",
      "outputs": [
        {
          "internalType": "uint256",
          "name": "",
          "type": "uint256"
        }
      ],
      "stateMutability": "view",
      "type": "function",
      "constant": true
    },
    {
      "inputs": [
        {
          "internalType": "uint256",
          "name": "",
          "type": "uint256"
        }
      ],
      "name": "allUsers",
      "outputs": [
        {
          "internalType": "address",
          "name": "",
          "type": "address"
        }
      ],
      "stateMutability": "view",
      "type": "function",
      "constant": true
    },
    {
      "inputs": [
        {
          "internalType": "address",
          "name": "to",
          "type": "address"
        },
        {
          "internalType": "uint256",
          "name": "tokenId",
          "type": "uint256"
        }
      ],
      "name": "approve",
      "outputs": [],
      "stateMutability": "nonpayable",
      "type": "function"
    },
    {
      "inputs": [
        {
          "internalType": "address",
          "name": "owner",
          "type": "address"
        }
      ],
      "name": "balanceOf",
      "outputs": [
        {
          "internalType": "uint256",
          "name": "",
          "type": "uint256"
        }
      ],
      "stateMutability": "view",
      "type": "function",
      "constant": true
    },
    {
      "inputs": [
        {
          "internalType": "address",
          "name": "",
          "type": "address"
        },
        {
          "internalType": "uint256",
          "name": "",
          "type": "uint256"
        }
      ],
      "name": "boostsOfUser",
      "outputs": [
        {
          "internalType": "uint256",
          "name": "",
          "type": "uint256"
        }
      ],
      "stateMutability": "view",
      "type": "function",
      "constant": true
    },
    {
      "inputs": [
        {
          "internalType": "uint256",
          "name": "tokenId",
          "type": "uint256"
        }
      ],
      "name": "getApproved",
      "outputs": [
        {
          "internalType": "address",
          "name": "",
          "type": "address"
        }
      ],
      "stateMutability": "view",
      "type": "function",
      "constant": true
    },
    {
      "inputs": [
        {
          "internalType": "address",
          "name": "owner",
          "type": "address"
        },
        {
          "internalType": "address",
          "name": "operator",
          "type": "address"
        }
      ],
      "name": "isApprovedForAll",
      "outputs": [
        {
          "internalType": "bool",
          "name": "",
          "type": "bool"
        }
      ],
      "stateMutability": "view",
      "type": "function",
      "constant": true
    },
    {
      "inputs": [
        {
          "internalType": "address",
          "name": "",
          "type": "address"
        }
      ],
      "name": "landOfUser",
      "outputs": [
        {
          "internalType": "uint256",
          "name": "",
          "type": "uint256"
        }
      ],
      "stateMutability": "view",
      "type": "function",
      "constant": true
    },
    {
      "inputs": [],
      "name": "name",
      "outputs": [
        {
          "internalType": "string",
          "name": "",
          "type": "string"
        }
      ],
      "stateMutability": "view",
      "type": "function",
      "constant": true
    },
    {
      "inputs": [
        {
          "internalType": "uint256",
          "name": "tokenId",
          "type": "uint256"
        }
      ],
      "name": "ownerOf",
      "outputs": [
        {
          "internalType": "address",
          "name": "",
          "type": "address"
        }
      ],
      "stateMutability": "view",
      "type": "function",
      "constant": true
    },
    {
      "inputs": [
        {
          "internalType": "address",
          "name": "from",
          "type": "address"
        },
        {
          "internalType": "address",
          "name": "to",
          "type": "address"
        },
        {
          "internalType": "uint256",
          "name": "tokenId",
          "type": "uint256"
        }
      ],
      "name": "safeTransferFrom",
      "outputs": [],
      "stateMutability": "nonpayable",
      "type": "function"
    },
    {
      "inputs": [
        {
          "internalType": "address",
          "name": "from",
          "type": "address"
        },
        {
          "internalType": "address",
          "name": "to",
          "type": "address"
        },
        {
          "internalType": "uint256",
          "name": "tokenId",
          "type": "uint256"
        },
        {
          "internalType": "bytes",
          "name": "_data",
          "type": "bytes"
        }
      ],
      "name": "safeTransferFrom",
      "outputs": [],
      "stateMutability": "nonpayable",
      "type": "function"
    },
    {
      "inputs": [
        {
          "internalType": "address",
          "name": "operator",
          "type": "address"
        },
        {
          "internalType": "bool",
          "name": "approved",
          "type": "bool"
        }
      ],
      "name": "setApprovalForAll",
      "outputs": [],
      "stateMutability": "nonpayable",
      "type": "function"
    },
    {
      "inputs": [
        {
          "internalType": "bytes4",
          "name": "interfaceId",
          "type": "bytes4"
        }
      ],
      "name": "supportsInterface",
      "outputs": [
        {
          "internalType": "bool",
          "name": "",
          "type": "bool"
        }
      ],
      "stateMutability": "view",
      "type": "function",
      "constant": true
    },
    {
      "inputs": [],
      "name": "symbol",
      "outputs": [
        {
          "internalType": "string",
          "name": "",
          "type": "string"
        }
      ],
      "stateMutability": "view",
      "type": "function",
      "constant": true
    },
    {
      "inputs": [],
      "name": "totalNFT",
      "outputs": [
        {
          "internalType": "uint256",
          "name": "",
          "type": "uint256"
        }
      ],
      "stateMutability": "view",
      "type": "function",
      "constant": true
    },
    {
      "inputs": [
        {
          "internalType": "address",
          "name": "from",
          "type": "address"
        },
        {
          "internalType": "address",
          "name": "to",
          "type": "address"
        },
        {
          "internalType": "uint256",
          "name": "tokenId",
          "type": "uint256"
        }
      ],
      "name": "transferFrom",
      "outputs": [],
      "stateMutability": "nonpayable",
      "type": "function"
    },
    {
      "inputs": [
        {
          "internalType": "uint256",
          "name": "x",
          "type": "uint256"
        },
        {
          "internalType": "uint256",
          "name": "y",
          "type": "uint256"
        },
        {
          "internalType": "string",
          "name": "cost",
          "type": "string"
        },
        {
          "internalType": "string",
          "name": "hashG",
          "type": "string"
        },
        {
          "internalType": "string",
          "name": "_tokenURI",
          "type": "string"
        }
      ],
      "name": "mint",
      "outputs": [],
      "stateMutability": "nonpayable",
      "type": "function"
    },
    {
      "inputs": [
        {
          "internalType": "uint256",
          "name": "tokenId",
          "type": "uint256"
        }
      ],
      "name": "tokenURI",
      "outputs": [
        {
          "internalType": "string",
          "name": "",
          "type": "string"
        }
      ],
      "stateMutability": "view",
      "type": "function",
      "constant": true
    },
    {
      "inputs": [],
      "name": "getTotalSupply",
      "outputs": [
        {
          "internalType": "uint256",
          "name": "",
          "type": "uint256"
        }
      ],
      "stateMutability": "view",
      "type": "function",
      "constant": true
    },
    {
      "inputs": [
        {
          "internalType": "uint256",
          "name": "tokenId",
          "type": "uint256"
        },
        {
          "internalType": "string",
          "name": "_newURI",
          "type": "string"
        }
      ],
      "name": "updateTokenURI",
      "outputs": [],
      "stateMutability": "nonpayable",
      "type": "function"
    }
  ],
  "bytecode": "0x608060405260006007556107d06008553480156200001c57600080fd5b506040518060400160405280600781526020017f50726f70657254000000000000000000000000000000000000000000000000008152506040518060400160405280600381526020017f50525400000000000000000000000000000000000000000000000000000000008152508160009080519060200190620000a192919062000104565b508060019080519060200190620000ba92919062000104565b50505033600960006101000a81548173ffffffffffffffffffffffffffffffffffffffff021916908373ffffffffffffffffffffffffffffffffffffffff16021790555062000219565b8280546200011290620001b4565b90600052602060002090601f01602090048101928262000136576000855562000182565b82601f106200015157805160ff191683800117855562000182565b8280016001018555821562000182579182015b828111156200018157825182559160200191906001019062000164565b5b50905062000191919062000195565b5090565b5b80821115620001b057600081600090555060010162000196565b5090565b60006002820490506001821680620001cd57607f821691505b60208210811415620001e457620001e3620001ea565b5b50919050565b7f4e487b7100000000000000000000000000000000000000000000000000000000600052602260045260246000fd5b6130e280620002296000396000f3fe608060405234801561001057600080fd5b50600436106101365760003560e01c80636352211e116100b8578063b88d4fde1161007c578063b88d4fde1461035f578063bc06a6ce1461037b578063c4e41b22146103ab578063c87b56dd146103c9578063da11d675146103f9578063e985e9c51461041557610136565b80636352211e1461029557806370a08231146102c557806395d89b41146102f5578063a22cb46514610313578063a2bdedf41461032f57610136565b8063095ea7b3116100ff578063095ea7b31461020757806317be6bc11461022357806318e97fd11461024157806323b872dd1461025d57806342842e0e1461027957610136565b80624563791461013b57806301ffc9a71461015957806306c60b6e1461018957806306fdde03146101b9578063081812fc146101d7575b600080fd5b610143610445565b6040516101509190612763565b60405180910390f35b610173600480360381019061016e9190611edf565b61044b565b6040516101809190612506565b60405180910390f35b6101a3600480360381019061019e9190611ea3565b61052d565b6040516101b09190612763565b60405180910390f35b6101c161055e565b6040516101ce9190612521565b60405180910390f35b6101f160048036038101906101ec9190611f31565b6105f0565b6040516101fe919061249f565b60405180910390f35b610221600480360381019061021c9190611ea3565b610675565b005b61022b61078d565b6040516102389190612763565b60405180910390f35b61025b60048036038101906102569190611f5a565b610793565b005b61027760048036038101906102729190611d9d565b610817565b005b610293600480360381019061028e9190611d9d565b610877565b005b6102af60048036038101906102aa9190611f31565b610897565b6040516102bc919061249f565b60405180910390f35b6102df60048036038101906102da9190611d38565b610949565b6040516102ec9190612763565b60405180910390f35b6102fd610a01565b60405161030a9190612521565b60405180910390f35b61032d60048036038101906103289190611e67565b610a93565b005b61034960048036038101906103449190611f31565b610c14565b604051610356919061249f565b60405180910390f35b61037960048036038101906103749190611dec565b610c53565b005b61039560048036038101906103909190611d38565b610cb5565b6040516103a29190612763565b60405180910390f35b6103b3610ccd565b6040516103c09190612763565b60405180910390f35b6103e360048036038101906103de9190611f31565b610cd7565b6040516103f09190612521565b60405180910390f35b610413600480360381019061040e9190611fae565b610ce9565b005b61042f600480360381019061042a9190611d61565b610ded565b60405161043c9190612506565b60405180910390f35b60075481565b60007f80ac58cd000000000000000000000000000000000000000000000000000000007bffffffffffffffffffffffffffffffffffffffffffffffffffffffff1916827bffffffffffffffffffffffffffffffffffffffffffffffffffffffff1916148061051657507f5b5e139f000000000000000000000000000000000000000000000000000000007bffffffffffffffffffffffffffffffffffffffffffffffffffffffff1916827bffffffffffffffffffffffffffffffffffffffffffffffffffffffff1916145b80610526575061052582610e81565b5b9050919050565b600a602052816000526040600020818154811061054957600080fd5b90600052602060002001600091509150505481565b60606000805461056d906129d9565b80601f0160208091040260200160405190810160405280929190818152602001828054610599906129d9565b80156105e65780601f106105bb576101008083540402835291602001916105e6565b820191906000526020600020905b8154815290600101906020018083116105c957829003601f168201915b5050505050905090565b60006105fb82610eeb565b61063a576040517f08c379a0000000000000000000000000000000000000000000000000000000008152600401610631906126a3565b60405180910390fd5b6004600083815260200190815260200160002060009054906101000a900473ffffffffffffffffffffffffffffffffffffffff169050919050565b600061068082610897565b90508073ffffffffffffffffffffffffffffffffffffffff168373ffffffffffffffffffffffffffffffffffffffff1614156106f1576040517f08c379a00000000000000000000000000000000000000000000000000000000081526004016106e890612703565b60405180910390fd5b8073ffffffffffffffffffffffffffffffffffffffff16610710610f57565b73ffffffffffffffffffffffffffffffffffffffff16148061073f575061073e81610739610f57565b610ded565b5b61077e576040517f08c379a0000000000000000000000000000000000000000000000000000000008152600401610775906125e3565b60405180910390fd5b6107888383610f5f565b505050565b60085481565b61079c82610897565b73ffffffffffffffffffffffffffffffffffffffff163373ffffffffffffffffffffffffffffffffffffffff1614610809576040517f08c379a000000000000000000000000000000000000000000000000000000000815260040161080090612723565b60405180910390fd5b6108138282611018565b5050565b610828610822610f57565b8261108c565b610867576040517f08c379a000000000000000000000000000000000000000000000000000000000815260040161085e90612743565b60405180910390fd5b61087283838361116a565b505050565b61089283838360405180602001604052806000815250610c53565b505050565b6000806002600084815260200190815260200160002060009054906101000a900473ffffffffffffffffffffffffffffffffffffffff169050600073ffffffffffffffffffffffffffffffffffffffff168173ffffffffffffffffffffffffffffffffffffffff161415610940576040517f08c379a000000000000000000000000000000000000000000000000000000000815260040161093790612623565b60405180910390fd5b80915050919050565b60008073ffffffffffffffffffffffffffffffffffffffff168273ffffffffffffffffffffffffffffffffffffffff1614156109ba576040517f08c379a00000000000000000000000000000000000000000000000000000000081526004016109b190612603565b60405180910390fd5b600360008373ffffffffffffffffffffffffffffffffffffffff1673ffffffffffffffffffffffffffffffffffffffff168152602001908152602001600020549050919050565b606060018054610a10906129d9565b80601f0160208091040260200160405190810160405280929190818152602001828054610a3c906129d9565b8015610a895780601f10610a5e57610100808354040283529160200191610a89565b820191906000526020600020905b815481529060010190602001808311610a6c57829003601f168201915b5050505050905090565b610a9b610f57565b73ffffffffffffffffffffffffffffffffffffffff168273ffffffffffffffffffffffffffffffffffffffff161415610b09576040517f08c379a0000000000000000000000000000000000000000000000000000000008152600401610b00906125a3565b60405180910390fd5b8060056000610b16610f57565b73ffffffffffffffffffffffffffffffffffffffff1673ffffffffffffffffffffffffffffffffffffffff16815260200190815260200160002060008473ffffffffffffffffffffffffffffffffffffffff1673ffffffffffffffffffffffffffffffffffffffff16815260200190815260200160002060006101000a81548160ff0219169083151502179055508173ffffffffffffffffffffffffffffffffffffffff16610bc3610f57565b73ffffffffffffffffffffffffffffffffffffffff167f17307eab39ab6107e8899845ad3d59bd9653f200f220920489ca2b5937696c3183604051610c089190612506565b60405180910390a35050565b600c8181548110610c2457600080fd5b906000526020600020016000915054906101000a900473ffffffffffffffffffffffffffffffffffffffff1681565b610c64610c5e610f57565b8361108c565b610ca3576040517f08c379a0000000000000000000000000000000000000000000000000000000008152600401610c9a90612743565b60405180910390fd5b610caf848484846113c6565b50505050565b600b6020528060005260406000206000915090505481565b6000600754905090565b6060610ce282611422565b9050919050565b600160076000828254610cfc9190612868565b92505081905550600083600d604051602001610d1992919061247b565b60405160208183030381529060405290506000600382604051610d3c9190612440565b602060405180830381855afa158015610d59573d6000803e3d6000fd5b5050506040515160601b6bffffffffffffffffffffffff19169050610d8033600754611574565b7f56800b5260512456b844fc9371dbdb10a629694349bc1829c0518bc84861b0c160405160405180910390a1610db860075484611018565b7f79e5f05486520ee227978e44df5013b958eb8b7c4045fd17db1c8f340f2c361160405160405180910390a150505050505050565b6000600560008473ffffffffffffffffffffffffffffffffffffffff1673ffffffffffffffffffffffffffffffffffffffff16815260200190815260200160002060008373ffffffffffffffffffffffffffffffffffffffff1673ffffffffffffffffffffffffffffffffffffffff16815260200190815260200160002060009054906101000a900460ff16905092915050565b60007f01ffc9a7000000000000000000000000000000000000000000000000000000007bffffffffffffffffffffffffffffffffffffffffffffffffffffffff1916827bffffffffffffffffffffffffffffffffffffffffffffffffffffffff1916149050919050565b60008073ffffffffffffffffffffffffffffffffffffffff166002600084815260200190815260200160002060009054906101000a900473ffffffffffffffffffffffffffffffffffffffff1673ffffffffffffffffffffffffffffffffffffffff1614159050919050565b600033905090565b816004600083815260200190815260200160002060006101000a81548173ffffffffffffffffffffffffffffffffffffffff021916908373ffffffffffffffffffffffffffffffffffffffff160217905550808273ffffffffffffffffffffffffffffffffffffffff16610fd283610897565b73ffffffffffffffffffffffffffffffffffffffff167f8c5be1e5ebec7d5bd14f71427d1e84f3dd0314c0f7b2291e5b200ac8c7c3b92560405160405180910390a45050565b61102182610eeb565b611060576040517f08c379a000000000000000000000000000000000000000000000000000000000815260040161105790612643565b60405180910390fd5b80600660008481526020019081526020016000209080519060200190611087929190611b5c565b505050565b600061109782610eeb565b6110d6576040517f08c379a00000000000000000000000000000000000000000000000000000000081526004016110cd906125c3565b60405180910390fd5b60006110e183610897565b90508073ffffffffffffffffffffffffffffffffffffffff168473ffffffffffffffffffffffffffffffffffffffff16148061115057508373ffffffffffffffffffffffffffffffffffffffff16611138846105f0565b73ffffffffffffffffffffffffffffffffffffffff16145b8061116157506111608185610ded565b5b91505092915050565b8273ffffffffffffffffffffffffffffffffffffffff1661118a82610897565b73ffffffffffffffffffffffffffffffffffffffff16146111e0576040517f08c379a00000000000000000000000000000000000000000000000000000000081526004016111d7906126c3565b60405180910390fd5b600073ffffffffffffffffffffffffffffffffffffffff168273ffffffffffffffffffffffffffffffffffffffff161415611250576040517f08c379a000000000000000000000000000000000000000000000000000000000815260040161124790612583565b60405180910390fd5b61125b838383611742565b611266600082610f5f565b6001600360008573ffffffffffffffffffffffffffffffffffffffff1673ffffffffffffffffffffffffffffffffffffffff16815260200190815260200160002060008282546112b691906128ef565b925050819055506001600360008473ffffffffffffffffffffffffffffffffffffffff1673ffffffffffffffffffffffffffffffffffffffff168152602001908152602001600020600082825461130d9190612868565b92505081905550816002600083815260200190815260200160002060006101000a81548173ffffffffffffffffffffffffffffffffffffffff021916908373ffffffffffffffffffffffffffffffffffffffff160217905550808273ffffffffffffffffffffffffffffffffffffffff168473ffffffffffffffffffffffffffffffffffffffff167fddf252ad1be2c89b69c2b068fc378daa952ba7f163c4a11628f55a4df523b3ef60405160405180910390a4505050565b6113d184848461116a565b6113dd84848484611747565b61141c576040517f08c379a000000000000000000000000000000000000000000000000000000000815260040161141390612543565b60405180910390fd5b50505050565b606061142d82610eeb565b61146c576040517f08c379a000000000000000000000000000000000000000000000000000000000815260040161146390612683565b60405180910390fd5b600060066000848152602001908152602001600020805461148c906129d9565b80601f01602080910402602001604051908101604052809291908181526020018280546114b8906129d9565b80156115055780601f106114da57610100808354040283529160200191611505565b820191906000526020600020905b8154815290600101906020018083116114e857829003601f168201915b5050505050905060006115166118de565b905060008151141561152c57819250505061156f565b600082511115611561578082604051602001611549929190612457565b6040516020818303038152906040529250505061156f565b61156a846118f5565b925050505b919050565b600073ffffffffffffffffffffffffffffffffffffffff168273ffffffffffffffffffffffffffffffffffffffff1614156115e4576040517f08c379a00000000000000000000000000000000000000000000000000000000081526004016115db90612663565b60405180910390fd5b6115ed81610eeb565b1561162d576040517f08c379a000000000000000000000000000000000000000000000000000000000815260040161162490612563565b60405180910390fd5b61163960008383611742565b6001600360008473ffffffffffffffffffffffffffffffffffffffff1673ffffffffffffffffffffffffffffffffffffffff16815260200190815260200160002060008282546116899190612868565b92505081905550816002600083815260200190815260200160002060006101000a81548173ffffffffffffffffffffffffffffffffffffffff021916908373ffffffffffffffffffffffffffffffffffffffff160217905550808273ffffffffffffffffffffffffffffffffffffffff16600073ffffffffffffffffffffffffffffffffffffffff167fddf252ad1be2c89b69c2b068fc378daa952ba7f163c4a11628f55a4df523b3ef60405160405180910390a45050565b505050565b60006117688473ffffffffffffffffffffffffffffffffffffffff1661199c565b156118d1578373ffffffffffffffffffffffffffffffffffffffff1663150b7a02611791610f57565b8786866040518563ffffffff1660e01b81526004016117b394939291906124ba565b602060405180830381600087803b1580156117cd57600080fd5b505af19250505080156117fe57506040513d601f19601f820116820180604052508101906117fb9190611f08565b60015b611881573d806000811461182e576040519150601f19603f3d011682016040523d82523d6000602084013e611833565b606091505b50600081511415611879576040517f08c379a000000000000000000000000000000000000000000000000000000000815260040161187090612543565b60405180910390fd5b805181602001fd5b63150b7a0260e01b7bffffffffffffffffffffffffffffffffffffffffffffffffffffffff1916817bffffffffffffffffffffffffffffffffffffffffffffffffffffffff1916149150506118d6565b600190505b949350505050565b606060405180602001604052806000815250905090565b606061190082610eeb565b61193f576040517f08c379a0000000000000000000000000000000000000000000000000000000008152600401611936906126e3565b60405180910390fd5b60006119496118de565b905060008151116119695760405180602001604052806000815250611994565b80611973846119af565b604051602001611984929190612457565b6040516020818303038152906040525b915050919050565b600080823b905060008111915050919050565b606060008214156119f7576040518060400160405280600181526020017f30000000000000000000000000000000000000000000000000000000000000008152509050611b57565b600082905060005b60008214611a29578080611a1290612a3c565b915050600a82611a2291906128be565b91506119ff565b60008167ffffffffffffffff811115611a6b577f4e487b7100000000000000000000000000000000000000000000000000000000600052604160045260246000fd5b6040519080825280601f01601f191660200182016040528015611a9d5781602001600182028036833780820191505090505b5090505b60008514611b5057600182611ab691906128ef565b9150600a85611ac59190612a85565b6030611ad19190612868565b60f81b818381518110611b0d577f4e487b7100000000000000000000000000000000000000000000000000000000600052603260045260246000fd5b60200101907effffffffffffffffffffffffffffffffffffffffffffffffffffffffffffff1916908160001a905350600a85611b4991906128be565b9450611aa1565b8093505050505b919050565b828054611b68906129d9565b90600052602060002090601f016020900481019282611b8a5760008555611bd1565b82601f10611ba357805160ff1916838001178555611bd1565b82800160010185558215611bd1579182015b82811115611bd0578251825591602001919060010190611bb5565b5b509050611bde9190611be2565b5090565b5b80821115611bfb576000816000905550600101611be3565b5090565b6000611c12611c0d846127a3565b61277e565b905082815260208101848484011115611c2a57600080fd5b611c35848285612997565b509392505050565b6000611c50611c4b846127d4565b61277e565b905082815260208101848484011115611c6857600080fd5b611c73848285612997565b509392505050565b600081359050611c8a81613050565b92915050565b600081359050611c9f81613067565b92915050565b600081359050611cb48161307e565b92915050565b600081519050611cc98161307e565b92915050565b600082601f830112611ce057600080fd5b8135611cf0848260208601611bff565b91505092915050565b600082601f830112611d0a57600080fd5b8135611d1a848260208601611c3d565b91505092915050565b600081359050611d3281613095565b92915050565b600060208284031215611d4a57600080fd5b6000611d5884828501611c7b565b91505092915050565b60008060408385031215611d7457600080fd5b6000611d8285828601611c7b565b9250506020611d9385828601611c7b565b9150509250929050565b600080600060608486031215611db257600080fd5b6000611dc086828701611c7b565b9350506020611dd186828701611c7b565b9250506040611de286828701611d23565b9150509250925092565b60008060008060808587031215611e0257600080fd5b6000611e1087828801611c7b565b9450506020611e2187828801611c7b565b9350506040611e3287828801611d23565b925050606085013567ffffffffffffffff811115611e4f57600080fd5b611e5b87828801611ccf565b91505092959194509250565b60008060408385031215611e7a57600080fd5b6000611e8885828601611c7b565b9250506020611e9985828601611c90565b9150509250929050565b60008060408385031215611eb657600080fd5b6000611ec485828601611c7b565b9250506020611ed585828601611d23565b9150509250929050565b600060208284031215611ef157600080fd5b6000611eff84828501611ca5565b91505092915050565b600060208284031215611f1a57600080fd5b6000611f2884828501611cba565b91505092915050565b600060208284031215611f4357600080fd5b6000611f5184828501611d23565b91505092915050565b60008060408385031215611f6d57600080fd5b6000611f7b85828601611d23565b925050602083013567ffffffffffffffff811115611f9857600080fd5b611fa485828601611cf9565b9150509250929050565b600080600080600060a08688031215611fc657600080fd5b6000611fd488828901611d23565b9550506020611fe588828901611d23565b945050604086013567ffffffffffffffff81111561200257600080fd5b61200e88828901611cf9565b935050606086013567ffffffffffffffff81111561202b57600080fd5b61203788828901611cf9565b925050608086013567ffffffffffffffff81111561205457600080fd5b61206088828901611cf9565b9150509295509295909350565b61207681612923565b82525050565b61208581612935565b82525050565b60006120968261281a565b6120a08185612830565b93506120b08185602086016129a6565b6120b981612b72565b840191505092915050565b60006120cf8261281a565b6120d98185612841565b93506120e98185602086016129a6565b80840191505092915050565b600061210082612825565b61210a818561284c565b935061211a8185602086016129a6565b61212381612b72565b840191505092915050565b600061213982612825565b612143818561285d565b93506121538185602086016129a6565b80840191505092915050565b6000815461216c816129d9565b612176818661285d565b9450600182166000811461219157600181146121a2576121d5565b60ff198316865281860193506121d5565b6121ab85612805565b60005b838110156121cd578154818901526001820191506020810190506121ae565b838801955050505b50505092915050565b60006121eb60328361284c565b91506121f682612b83565b604082019050919050565b600061220e601c8361284c565b915061221982612bd2565b602082019050919050565b600061223160248361284c565b915061223c82612bfb565b604082019050919050565b600061225460198361284c565b915061225f82612c4a565b602082019050919050565b6000612277602c8361284c565b915061228282612c73565b604082019050919050565b600061229a60388361284c565b91506122a582612cc2565b604082019050919050565b60006122bd602a8361284c565b91506122c882612d11565b604082019050919050565b60006122e060298361284c565b91506122eb82612d60565b604082019050919050565b6000612303602e8361284c565b915061230e82612daf565b604082019050919050565b600061232660208361284c565b915061233182612dfe565b602082019050919050565b600061234960318361284c565b915061235482612e27565b604082019050919050565b600061236c602c8361284c565b915061237782612e76565b604082019050919050565b600061238f60298361284c565b915061239a82612ec5565b604082019050919050565b60006123b2602f8361284c565b91506123bd82612f14565b604082019050919050565b60006123d560218361284c565b91506123e082612f63565b604082019050919050565b60006123f860228361284c565b915061240382612fb2565b604082019050919050565b600061241b60318361284c565b915061242682613001565b604082019050919050565b61243a8161298d565b82525050565b600061244c82846120c4565b915081905092915050565b6000612463828561212e565b915061246f828461212e565b91508190509392505050565b6000612487828561212e565b9150612493828461215f565b91508190509392505050565b60006020820190506124b4600083018461206d565b92915050565b60006080820190506124cf600083018761206d565b6124dc602083018661206d565b6124e96040830185612431565b81810360608301526124fb818461208b565b905095945050505050565b600060208201905061251b600083018461207c565b92915050565b6000602082019050818103600083015261253b81846120f5565b905092915050565b6000602082019050818103600083015261255c816121de565b9050919050565b6000602082019050818103600083015261257c81612201565b9050919050565b6000602082019050818103600083015261259c81612224565b9050919050565b600060208201905081810360008301526125bc81612247565b9050919050565b600060208201905081810360008301526125dc8161226a565b9050919050565b600060208201905081810360008301526125fc8161228d565b9050919050565b6000602082019050818103600083015261261c816122b0565b9050919050565b6000602082019050818103600083015261263c816122d3565b9050919050565b6000602082019050818103600083015261265c816122f6565b9050919050565b6000602082019050818103600083015261267c81612319565b9050919050565b6000602082019050818103600083015261269c8161233c565b9050919050565b600060208201905081810360008301526126bc8161235f565b9050919050565b600060208201905081810360008301526126dc81612382565b9050919050565b600060208201905081810360008301526126fc816123a5565b9050919050565b6000602082019050818103600083015261271c816123c8565b9050919050565b6000602082019050818103600083015261273c816123eb565b9050919050565b6000602082019050818103600083015261275c8161240e565b9050919050565b60006020820190506127786000830184612431565b92915050565b6000612788612799565b90506127948282612a0b565b919050565b6000604051905090565b600067ffffffffffffffff8211156127be576127bd612b43565b5b6127c782612b72565b9050602081019050919050565b600067ffffffffffffffff8211156127ef576127ee612b43565b5b6127f882612b72565b9050602081019050919050565b60008190508160005260206000209050919050565b600081519050919050565b600081519050919050565b600082825260208201905092915050565b600081905092915050565b600082825260208201905092915050565b600081905092915050565b60006128738261298d565b915061287e8361298d565b9250827fffffffffffffffffffffffffffffffffffffffffffffffffffffffffffffffff038211156128b3576128b2612ab6565b5b828201905092915050565b60006128c98261298d565b91506128d48361298d565b9250826128e4576128e3612ae5565b5b828204905092915050565b60006128fa8261298d565b91506129058361298d565b92508282101561291857612917612ab6565b5b828203905092915050565b600061292e8261296d565b9050919050565b60008115159050919050565b60007fffffffff0000000000000000000000000000000000000000000000000000000082169050919050565b600073ffffffffffffffffffffffffffffffffffffffff82169050919050565b6000819050919050565b82818337600083830152505050565b60005b838110156129c45780820151818401526020810190506129a9565b838111156129d3576000848401525b50505050565b600060028204905060018216806129f157607f821691505b60208210811415612a0557612a04612b14565b5b50919050565b612a1482612b72565b810181811067ffffffffffffffff82111715612a3357612a32612b43565b5b80604052505050565b6000612a478261298d565b91507fffffffffffffffffffffffffffffffffffffffffffffffffffffffffffffffff821415612a7a57612a79612ab6565b5b600182019050919050565b6000612a908261298d565b9150612a9b8361298d565b925082612aab57612aaa612ae5565b5b828206905092915050565b7f4e487b7100000000000000000000000000000000000000000000000000000000600052601160045260246000fd5b7f4e487b7100000000000000000000000000000000000000000000000000000000600052601260045260246000fd5b7f4e487b7100000000000000000000000000000000000000000000000000000000600052602260045260246000fd5b7f4e487b7100000000000000000000000000000000000000000000000000000000600052604160045260246000fd5b6000601f19601f8301169050919050565b7f4552433732313a207472616e7366657220746f206e6f6e20455243373231526560008201527f63656976657220696d706c656d656e7465720000000000000000000000000000602082015250565b7f4552433732313a20746f6b656e20616c7265616479206d696e74656400000000600082015250565b7f4552433732313a207472616e7366657220746f20746865207a65726f2061646460008201527f7265737300000000000000000000000000000000000000000000000000000000602082015250565b7f4552433732313a20617070726f766520746f2063616c6c657200000000000000600082015250565b7f4552433732313a206f70657261746f7220717565727920666f72206e6f6e657860008201527f697374656e7420746f6b656e0000000000000000000000000000000000000000602082015250565b7f4552433732313a20617070726f76652063616c6c6572206973206e6f74206f7760008201527f6e6572206e6f7220617070726f76656420666f7220616c6c0000000000000000602082015250565b7f4552433732313a2062616c616e636520717565727920666f7220746865207a6560008201527f726f206164647265737300000000000000000000000000000000000000000000602082015250565b7f4552433732313a206f776e657220717565727920666f72206e6f6e657869737460008201527f656e7420746f6b656e0000000000000000000000000000000000000000000000602082015250565b7f45524337323155524953746f726167653a2055524920736574206f66206e6f6e60008201527f6578697374656e7420746f6b656e000000000000000000000000000000000000602082015250565b7f4552433732313a206d696e7420746f20746865207a65726f2061646472657373600082015250565b7f45524337323155524953746f726167653a2055524920717565727920666f722060008201527f6e6f6e6578697374656e7420746f6b656e000000000000000000000000000000602082015250565b7f4552433732313a20617070726f76656420717565727920666f72206e6f6e657860008201527f697374656e7420746f6b656e0000000000000000000000000000000000000000602082015250565b7f4552433732313a207472616e73666572206f6620746f6b656e2074686174206960008201527f73206e6f74206f776e0000000000000000000000000000000000000000000000602082015250565b7f4552433732314d657461646174613a2055524920717565727920666f72206e6f60008201527f6e6578697374656e7420746f6b656e0000000000000000000000000000000000602082015250565b7f4552433732313a20617070726f76616c20746f2063757272656e74206f776e6560008201527f7200000000000000000000000000000000000000000000000000000000000000602082015250565b7f596f7520617265206e6f7420746865206f776e6572206f662074686520746f6b60008201527f656e000000000000000000000000000000000000000000000000000000000000602082015250565b7f4552433732313a207472616e736665722063616c6c6572206973206e6f74206f60008201527f776e6572206e6f7220617070726f766564000000000000000000000000000000602082015250565b61305981612923565b811461306457600080fd5b50565b61307081612935565b811461307b57600080fd5b50565b61308781612941565b811461309257600080fd5b50565b61309e8161298d565b81146130a957600080fd5b5056fea264697066735822122047a89e8f8f7e6705baa76e9fb818e8afcddaa2ffbc4a41c7d1a63e28314041e664736f6c63430008010033",
  "immutableReferences": {},
  "source": "// SPDX-License-Identifier: MIT\npragma solidity ^0.8.0;\nimport \"@openzeppelin/contracts/token/ERC721/ERC721.sol\";\nimport \"@openzeppelin/contracts/token/ERC721/extensions/ERC721URIStorage.sol\";\n\n\ncontract NFT is ERC721,ERC721URIStorage{\n    uint256 public totalNFT=0;\n    uint256 public TOTAL_LAND=2000; //hard coded value\n    address adminNft;\n    event e1();\n    event e2();\n    event e3();\n    event e4();\n    event tokenCreated(bytes32,string);\n    mapping(address=> uint256[]) public boostsOfUser;\n    mapping(address=>uint256) public landOfUser;\n    address[] public allUsers;\n    string salt;\n\n    constructor() ERC721(\"ProperT\",\"PRT\"){\n        adminNft = msg.sender;\n    }\n\n    function mint(uint256 x, uint256 y,string memory cost, string memory hashG, string memory _tokenURI) public {\n        // string memory salt= getSalt();\n        totalNFT+=1;\n        bytes memory  info = bytes(abi.encodePacked(cost,salt));\n        // emit e1();\n        bytes32 expectedHash = ripemd160(info);\n        // emit e2();\n        _mint(msg.sender, totalNFT);\n        emit e3();\n        _setTokenURI(totalNFT,_tokenURI);\n        emit e4();\n        //emit tokenCreated(expectedHash,hashG);\n    }\n\n    function _burn(uint256 tokenId) internal override(ERC721URIStorage, ERC721) {\n        super._burn(tokenId);\n    }\n\n    function tokenURI(uint256 tokenId)\n        public\n        view\n        override(ERC721URIStorage,ERC721)\n        returns (string memory)\n    {\n        return super.tokenURI(tokenId);\n    }\n\n    function getTotalSupply() public view returns(uint256){\n        return totalNFT;\n    }\n\n    function updateTokenURI(uint256 tokenId, string memory _newURI) public{\n        require(msg.sender==ownerOf(tokenId),\"You are not the owner of the token\");\n        _setTokenURI(tokenId, _newURI);\n    }\n\n    // function getSalt() private view returns(string memory){\n    //     require(msg.sender == adminNft);\n    //     return salt;\n    // }\n    // function verifyHash(string memory info) private view returns(bool){\n    function ripe(bytes memory data) private view returns(bytes32){\n        return ripemd160(data);\n    } \n    // }\n}",
  "sourcePath": "/Users/ayush/Desktop/ProperT/contracts/MintNft.sol",
  "compiler": {
    "name": "solc",
    "version": "0.8.1+commit.df193b15.Emscripten.clang"
  },
  "schemaVersion": "3.4.2",
  "updatedAt": "2022-01-12T17:37:02.846Z",
  "networkType": "ethereum",
  "devdoc": {
    "kind": "dev",
    "methods": {
      "approve(address,uint256)": {
        "details": "See {IERC721-approve}."
      },
      "balanceOf(address)": {
        "details": "See {IERC721-balanceOf}."
      },
      "getApproved(uint256)": {
        "details": "See {IERC721-getApproved}."
      },
      "isApprovedForAll(address,address)": {
        "details": "See {IERC721-isApprovedForAll}."
      },
      "name()": {
        "details": "See {IERC721Metadata-name}."
      },
      "ownerOf(uint256)": {
        "details": "See {IERC721-ownerOf}."
      },
      "safeTransferFrom(address,address,uint256)": {
        "details": "See {IERC721-safeTransferFrom}."
      },
      "safeTransferFrom(address,address,uint256,bytes)": {
        "details": "See {IERC721-safeTransferFrom}."
      },
      "setApprovalForAll(address,bool)": {
        "details": "See {IERC721-setApprovalForAll}."
      },
      "supportsInterface(bytes4)": {
        "details": "See {IERC165-supportsInterface}."
      },
      "symbol()": {
        "details": "See {IERC721Metadata-symbol}."
      },
      "transferFrom(address,address,uint256)": {
        "details": "See {IERC721-transferFrom}."
      }
    },
    "version": 1
  },
  "userdoc": {
    "kind": "user",
    "methods": {},
    "version": 1
  }
}